:100000000C9468020C94AF020C94AF020C94AF02F3
:100010000C94AF020C94AF020C94AF020C94AF029C
:100020000C94AF020C94AF020C9416250C94EA25A4
:100030000C94AF1F0C94AF020C94AF020C94AF025F
:100040000C94AF020C94AF020C94AF020C94AF026C
:100050000C94AF020C9406200C94AF020C94AF02E7
:100060000C94AF020C94AF020C94AF020C94AF024C
:100070000C94AF020C94AF020C94AF020C94AF023C
:100080000C94AF020C94AF020C94AF020C94AF022C
:100090000C94AF020C94AF020C94AF020C94AF021C
:1000A0000C94AF020C94AF020C94AF02687474709D
:1000B000733A2F2F716D6B2E666D2F0A00514D4BC9
:1000C00020697320746865206265737420746869A0
:1000D0006E67206576657221000400050006000742
:1000E000000000080009000A000B0000001E001FAD
:1000F00000200021002200230024002500260027E4
:1001000000010001000100010000000100010001E8
:1001100000010000000100010001000100010001D8
:1001200000010001000100010001000100010001C7
:1001300000000001000100010001000000010001B9
:1001400000010001000100010001000100010001A7
:100150000001000100010001000000010001000198
:100160000001000000010001000100010001000188
:10017000000100010001000100000000000000007B
:10018000002A2B28000000000000000000000000F2
:100190000000000029000000002C1E342021222431
:1001A000342627252E362D3738271E1F20212223BF
:1001B0002425263333362E37381F04050607080951
:1001C0000A0B0C0D0E0F1011121314151617181917
:1001D0001A1B1C1D2F3130232D3504050607080975
:1001E0000A0B0C0D0E0F10111213141516171819F7
:1001F0001A1B1C1D2F3130354C0000000000000080
:1002000000000000000000000000000000000000EE
:10021000000000000000000000000000007E0F0051
:10022000D4FFFFFFC70000007800010101010101B8
:10023000010101020202020202020202030303039D
:10024000030303030404040404040405050505056D
:10025000060606060607070707070808080809092B
:1002600009090A0A0A0B0B0B0C0C0C0D0D0D0E0ED6
:100270000E0F0F0F10101111111212131314141569
:100280001516161717181819191A1A1B1B1C1D1DDD
:100290001E1E1F2020212222232424252626272833
:1002A00029292A2B2C2D2D2E2F3031323233343563
:1002B000363738393A3B3C3D3E3F40414243444566
:1002C000464748494A4C4D4E4F5051535455565845
:1002D000595A5B5D5E5F616264656668696B6C6DEF
:1002E0006F7072737577787A7B7D7E808283858765
:1002F000888A8C8E8F91939596989A9C9EA0A2A3A3
:10030000A5A7A9ABADAFB1B3B5B7BABCBEC0C2C4A7
:10031000C6C9CBCDCFD1D4D6D8DBDDDFE2E4E7E967
:10032000EBEEF0F3F5F8FAFDFF1203430043002073
:1003300000500072006F0074006F00000042034321
:1003400000680069006E0061007400730075002091
:10035000004300680069006200610020002800611D
:10036000007A0075006C00650065002F006D006F5D
:10037000006B0065007300750072006100290000C9
:10038000000403090409025B00030100A0FA090448
:1003900000000103010100092111010001224000B8
:1003A0000705810308000A09040100020300000098
:1003B000092111010001222200070582032000010A
:1003C00007050303200001090402000103000000E7
:1003D000092111010001227B000705840320000A86
:1003E0001201100100000008EDFE00CC0100010226
:1003F00000010660FF0961A1010962150026FF00E6
:100400009520750881020963150026FF0095207567
:10041000089102C005010902A10185020901A1009C
:1004200005091901290815002501950875018102A2
:100430000501093009311581257F9502750881066E
:1004400009381581257F950175088106050C0A3844
:10045000021581257F950175088106C0C005010937
:1004600080A101850319012AB700150126B700955F
:100470000175108100C0050C0901A1018504190155
:100480002AA002150126A002950175108100C00561
:10049000010906A101050719E029E71500250195C5
:1004A0000875018102950175088101050719002968
:1004B000FF150026FF009506750881000508190143
:1004C0002905950575019102950175039101C000FB
:1004D00011241FBECFEFDAE0DEBFCDBF04B603FEAE
:1004E00027C080914E0290914F02A0915002B0918E
:1004F00051028730904BA740B04BD1F410924E027E
:1005000010924F02109250021092510214BE84B702
:10051000877F84BF0FB6F894A895809160008861AA
:1005200080936000109260000FBEE0E0F8E3099550
:1005300011E0A0E0B1E0E4EAF0E502C005900D9220
:10054000A639B107D9F722E0A6E9B1E001C01D92B2
:10055000AE34B207E1F70E94D6210C9419280C940E
:1005600000008E352DE5920729F08F359D4559F015
:1005700081E00895FB0182818823D1F38DEB90E027
:100580000E942E05F5CFFB018281882389F38CEA36
:1005900090E0F6CF81E008950C94B10208950C9498
:1005A000CE021F93CF93DF9300D000D00F92CDB730
:1005B000DEB749835A836B833091C20189819A8166
:1005C00031111DC06623B9F02223A9F00E94F01C4E
:1005D000182F682F89819A810E94991C69817A81DC
:1005E000812F0F900F900F900F900F90DF91CF9170
:1005F0001F910C94C9100E94C71C182FEFCF0E94A6
:10060000F01C69817A81EDCFFC01262F4081518158
:100610006281738184810C94D102CF93DF93EC01CA
:1006200060E00E940403BE01DF91CF910C94CF02E1
:100630008F929F92AF92BF92CF92DF92EF92FF92F2
:100640000F931F936B017C0181E090E0A0E0B0E08C
:100650004C015D0104C0880C991CAA1CBB1C4A9566
:10066000D2F7B501A4014C015D0104C0880C991CAE
:10067000AA1CBB1C2A95D2F7482959296A297B292B
:1006800004C0880F991FAA1FBB1F0A95D2F78A01C1
:100690009B010C211D212E213F2104171507260740
:1006A000370789F48C299D29AE29BF29BC01CD01CA
:1006B0001F910F91FF90EF90DF90CF90BF90AF9080
:1006C0009F908F90089580959095A095B0958C21DE
:1006D0009D21AE21BF21EACF0F93382F262F6091A5
:1006E0000A0270910B0280910C0290910D02042F6E
:1006F000432F0E9418030F910C94D71B0E942C07C4
:100700000C9451070C94540708950E947B180E9482
:1007100084032FEF84E39CE0215080409040E1F778
:1007200000C000000C942A200F931F93CF93DF93F7
:100730008C0161E00E940403EC01B8010E94B20E3A
:10074000882309F441C0B801CE010E94CC0288235D
:10075000D9F1B801CE010E9400128823A9F1B80195
:10076000CE010E945212882379F1B801CE010E9475
:100770007513882349F1B801CE010E94B30D882377
:1007800019F1F8018281882361F0CA35FDE5DF07A0
:1007900021F170F4C115ECE5DE07A1F0CE3DDC459A
:1007A000C9F0C801DF91CF911F910F910C94CA023B
:1007B000CB358DE5D807A1F0CC35DD4591F70E940A
:1007C000971DEFCF0E94850380E0DF91CF911F91AD
:1007D0000F9108950E94031FF7CF0E94A01DE1CF43
:1007E0000E94A31DDECFDF92EF92FF920F931F9323
:1007F000CF93DF93E82FF0E0E758FE4FD490282FF7
:1008000026952695269530E0F901E75EFD4F049187
:10081000877010E0082E02C0159507950A94E2F73C
:1008200001701127F901E75FFD4FE490F12C082ECC
:1008300002C0F594E7940A94E2F791E0E922FF24DC
:10084000F901E750FE4FC491D0E002C0D595C7959D
:100850008A95E2F7C170DD270115110519F081EEC7
:100860000E940815E114F10419F086EE0E940815A3
:100870008D2D0E940716EF2819F086EE0E949A151A
:10088000012B19F081EE0E949A15CD2B51F08CE2CC
:10089000DF91CF911F910F91FF90EF90DF900C941B
:1008A0000716DF91CF911F910F91FF90EF90DF908E
:1008B0000895EF92FF920F931F93CF93DF93EC0174
:1008C000162F0AE08881882309F454C0813009F08A
:1008D0004EC08981813099F47E0122E0E20EF11C44
:1008E0008A810E940716E7012196812F815050F3DB
:1008F000EFE9FFE03197F1F700C00000F7CF823059
:1009000041F47E0182E0E80EF11C8A810E94081504
:10091000EACF833041F47E01E2E0EE0EF11C8A81E1
:100920000E949A15E0CF843011F02196DDCF2A8104
:10093000229690E080E0AE014F5F5F4F2053330B73
:100940002A30310548F0019778F2EFE9FFE031975E
:10095000F1F700C00000F7CF089FB001099F700DAC
:100960001124C901860F971F2981EA01E4CF0E9453
:10097000F303BACFDF91CF911F910F91FF90EF90CA
:10098000089560E00C945904EF92FF920F931F9327
:10099000CF93DF938C01F62E8AE0E82EF801849144
:1009A000882309F454C0813009F04DC0E801219634
:1009B000FE018491813091F42196FE0184910E9480
:1009C00007168E010F5F1F4F8F2D815038F3EFE90F
:1009D000FFE03197F1F700C00000F7CF823039F423
:1009E000E8012296FE0184910E940815EACF833027
:1009F00039F4E8012296FE0184910E949A15E1CF14
:100A00008430F9F6E8012296FE01249190E080E01E
:100A1000FE0131962053330B2A30310548F00197FF
:100A200080F2EFE9FFE03197F1F700C00000F7CF67
:100A3000E89EA001E99E500D1124C901840F951F65
:100A40002491EF01E5CF0E94F303E801BACFDF91D3
:100A5000CF911F910F91FF90EF90089560E00C945B
:100A6000C40408950C94310581E008950C94340574
:100A7000CF93C82F0E9432058C2FCF910C9436054E
:100A8000CF93DF930E94C9100E943A06EC018115B2
:100A900021E5920708F042C0811530E5930708F080
:100AA0009DC0883E910530F5803E910508F092C0CA
:100AB000883A910588F4853A910508F084C0813020
:100AC000910509F487C0009709F484C0049708F0E1
:100AD00081C0D0E0C0E07EC08F3B9105D0F7C85AFE
:100AE000D0E0CC0FDD1FC65EDE4F0990D881C02D4F
:100AF000D46470C08115904250F4C11581E0D807CC
:100B000008F068C0C03FD10520F3D06563C0C115AF
:100B100090E4D907F0F2DF70D06A5CC0811525E55A
:100B2000920700F5811534E5930708F08BC0811515
:100B300043E5940708F073C0C11582E5D80708F4AF
:100B400069C0CE018370992721E030E002C0220FF6
:100B5000331F8A95E2F7C695C69580E2C89FE001EB
:100B6000112454C0C11599E5D907A8F4C11528E589
:100B7000D20708F06CC0C11536E5D30708F0A9CF3D
:100B80008C2F0E94D106C82FD0E0DC2FCC27CC2799
:100B9000DF71D0621FC0C1154AE5D40708F45CC0FC
:100BA000CE0190568115904208F093CF8D2F8F7112
:100BB0000E94D10690E0982F882788279F719C017A
:100BC0002C2BE901E6CFC55AD0E0C85BDE4FC881C7
:100BD000D0E0D064CE01DF91CF910895E4E0969506
:100BE0008795EA95E1F783702C2F2695269523703B
:100BF00040E2249F90011124382B8C2F8370C1E098
:100C0000D0E002C0CC0FDD1F8A95E2F7C22BD32BB8
:100C1000DC68E0CFDC2FCC27C16FD06ADBCF8370DC
:100C2000992721E030E002C0220F331F8A95E2F7B6
:100C3000C695C69590E2C99FE0011124C22BD32B23
:100C4000DA68C8CFD82FCC27C46FD06AC3CFDC2FC7
:100C5000CC27C06FD06ABECF8C2F8F700E94D10678
:100C600034E0D695C7953A95E1F7CF709C2FEC010B
:100C7000D069B0CF82389105B1F1B0F481339105DC
:100C800009F475C048F48932910509F469C08A32C3
:100C9000910509F473C008958533910509F459C08D
:100CA0008933910501F10895833E9105A9F138F446
:100CB000803E9105F9F0823E910549F10895863E06
:100CC0009105A9F1873E9105C9F1843E910519F579
:100CD00020912C0221FF1FC080912B0284FD14C0A3
:100CE00087EE90E0089520912B022370A1F080EE12
:100CF00090E0089520912B0220FD47C030912C02F6
:100D000030FF09C024FF44C090E080E004C020917F
:100D10002B0222FDF7CF089520912B0222FD3BC02C
:100D200030912C0230FDE3CF24FFF5CFEDCF2091A1
:100D30002B0223FFF0CF24FDE7CFD2CF20912B024F
:100D400023FD2CC030912C0231FFEECF84EE90E0D9
:100D5000089520912B0225FFDECF89E290E00895CF
:100D600020912B0225FFD7CF85E390E008952091B5
:100D70002B0226FFD0CF8AE290E0089520912B022B
:100D800026FFC9CF81E390E0089589E390E00895BC
:100D900083EE90E0089582EE90E0089586EE90E074
:100DA000089590912B0292FF06C0282F28712830B9
:100DB000F9F4877F846093FF06C0282F28712831BB
:100DC000F1F4877E846120912C0220FF06C0382F29
:100DD00038713830D9F4877F816021FF06C0282F11
:100DE00028712831D1F4877E816194FD877E089532
:100DF000282F24712430F9F68B7F8860DCCF282FD0
:100E00002471243101F78B7E8861DDCF382F317159
:100E1000313019F78E7F8860E0CF282F2171213182
:100E200021F78E7E8861E1CF0C948C0E0E94AD0775
:100E30008FE39CE90197F1F700C000000E94AD0725
:100E400080E00E94560780FF04C00E9414070C94A3
:100E50002A2008950C9416070E945E1E811102C07C
:100E60000E94031F0E94691E80931F020E94711E30
:100E700090932C0280932B020E942A070E946D1EE1
:100E8000682F70E090E080E00E949B1B60910A0256
:100E900070910B0280910C0290910D020C94D51B65
:100EA00008950C94500708950C945307E82FF0E030
:100EB000EF5CFD4F80810895089580EA8A95F1F7EF
:100EC000089500C008950C945D07F894E82FE2950A
:100ED000EF70F0E031A1282F2F7081E090E001C089
:100EE000880F2A95EAF7982F9095932391A392A1C2
:100EF000892B82A37894089585E30E94650784E393
:100F00000E94650786EC0E94650787E90E946507D5
:100F100086E30E94650782E30E94650783E30E94DF
:100F2000650781E30E94650787EF0E946507ADE2D0
:100F3000B2E01C92E1E3F2E0108211961C9211974C
:100F4000118212961C921297128213961C9213828F
:100F500084E00E9424080C947E03CF92DF92EF92EB
:100F6000FF920F931F93CF93DF93C0E5D1E00DE283
:100F700012E0D12CEE24E394F12C8991F894E82F1F
:100F8000E295EF70F0E021A18F70A70102C0440F3D
:100F9000551F8A95E2F7CA01922F982B91A392A12F
:100FA0008095892382A378940E946107EBE4F1E0A5
:100FB00030E020E0C12C4191A42FA295AF70B0E0A9
:100FC00090968C9190E04F7002C0959587954A95C8
:100FD000E2F780FD35C08E2D022E01C0880F0A94E5
:100FE000EAF7C82A2F5F3F4F2530310521F7FE0170
:100FF000319780810E9465070E946307F801808114
:10100000C81601F1C08281E0D82A0F5F1F4FF1E0BE
:10101000C435DF0709F0B1CF2D2D44E061E372E064
:101020008DE292E00E9425080E9482038D2DDF91BF
:10103000CF911F910F91FF90EF90DF90CF90089587
:1010400080E0CFCF80E0E0CF0895FF920F931F9311
:10105000CF93DF93F82E092F162FD72FC42F2223DB
:1010600049F081E080939A010E94DF1F90939901DB
:101070008093980180919A018823A1F08091980132
:10108000909199010E94F71F069760F0EF2DF02FC5
:10109000A12FBD2FCE0FDF2FD11DEC17FD0741F47F
:1010A00010929A01DF91CF911F910F91FF900895B7
:1010B00081918D93F2CF8091A10180FF12C0609148
:1010C000050185E0689FB0011124759567957595B8
:1010D000679560387105A8F561157105A1F1862F36
:1010E000089581FF09C06091050185E0689FB00106
:1010F000112475956795EDCF6091050182FD0AC0B9
:101100008091A0018823D1F09091040160910501A4
:10111000891728F085E0689FB0011124DACF869FF7
:10112000B001112485E0869F9001879F300D112426
:10113000692F70E0C9010E94B027CBCF65E070E055
:10114000CECF8FE7089581E008958091A10180FFBF
:101150000CC06091010170E0759567957595679574
:101160006115710549F1862F089581FF06C06091D0
:10117000010170E075956795F3CF6091010182FDE3
:101180000BC090919F019923A1F060910001809183
:101190000101961738F0682F70E06038710500F390
:1011A0008FE70895899FC001112470E00E94B02745
:1011B000F4CF61E070E0D7CF81E00895803F31F453
:1011C0000E945B0881958093A5010895813F19F4E1
:1011D0000E945B08F8CF823F31F40E945B08819542
:1011E0008093A4010895833F19F40E945B08F8CF0F
:1011F000893F29F40E94A5088093A60108958A3F9B
:1012000021F40E94A5088195F7CF8B3F31F40E940D
:10121000A50881958093A70108958C3F19F40E9439
:10122000A508F8CF9CE0980F953070F4845F990B77
:1012300021E030E001C0220F8A95EAF78091A301F6
:10124000822B8093A30108958D3F31F48091A101F9
:1012500081608093A10108958E3F21F48091A101C6
:101260008260F7CF8F3FB9F78091A1018460F1CF01
:101270004091A401803F59F48091A50187FF0DC0E2
:101280001092A50141110BC01092A00108C0813F2E
:1012900081F48091A50118169CF3442381F080917C
:1012A000A6019091A701892B09F05AC010929F01C5
:1012B0000895823F49F447FFF0CF1092A401809136
:1012C000A5018111ECCFE0CF833F19F41416ACF3E4
:1012D000E4CF9091A601893F29F41916F4F61092F3
:1012E000A601DBCF8A3F19F497FFD7CFF8CF9091B3
:1012F000A7018B3F29F497FFD0CF1092A701CDCF44
:101300008C3F19F41916CCF3C8CF9CE0980F953098
:1013100090F4845F990B21E030E0B90102C0660FC0
:10132000771F8A95E2F7CB0180959091A3018923DD
:101330008093A301B2CF8D3F31F48091A1018E7FC4
:101340008093A101AACF8E3F21F48091A1018D7FCE
:10135000F7CF8F3F09F0A1CF8091A1018B7FF0CF14
:1013600008950E94DF1F9C019091A4018091A50126
:10137000982B21F030939E0120939D019091A6011E
:101380008091A701982B21F030939C0120939B0121
:1013900082EA91E00C94BB13EF92FF920F931F939C
:1013A000CF93DF9300D000D000D0CDB7DEB786E07A
:1013B000E2EAF1E0DE01119601900D928A95E1F7E3
:1013C000E090A401F090A5010091A6011091A70161
:1013D0001092A4011092A5011092A6011092A701EB
:1013E0008E2D8F2991F080919D0190919E010E94F8
:1013F000F71FAC019091A001992309F43FC080919F
:1014000006018417150608F447C0802F812B91F040
:1014100080919B0190919C010E94F71FAC019091DB
:101420009F01992309F477C0809102018417150662
:1014300008F47FC08091A4019091A501892B90911F
:10144000A601892B9091A701892B11F00E94B10967
:1014500086E0FE013196A2EAB1E001900D928A95F4
:10146000E1F726960FB6F894DEBF0FBECDBFDF9131
:10147000CF911F910F91FF90EF9008952091070158
:101480008AE0289F900111242417350708F0BDCF6A
:101490009F5F9093A00102C09F3FD1F7EE2059F0CB
:1014A0000E945B089FEF1E140CF491E0899F802D31
:1014B00011248093A401FF2059F00E945B089FEF44
:1014C0001F140CF491E0899F802D11248093A501B5
:1014D0003091A401332309F498CF2091A501222350
:1014E00009F493CF45EB3403C0011124992359F03B
:1014F0009093A40145EB240390011124332339F088
:101500003093A50182CF81E08093A401F3CF81E0E5
:101510008093A5017ACF209103018AE0289F900152
:1015200011242417350708F085CF9F5F90939F0102
:1015300002C09F3FD1F7002359F00E94A5089FEFFA
:1015400010160CF491E0899F802D11248093A60140
:10155000112359F00E94A5089FEF11160CF491E099
:10156000899F802D11248093A7013091A6013323F8
:1015700009F460CF2091A701222309F45BCF45EB4A
:101580003403C0011124992359F09093A60145EB2F
:10159000240390011124332339F03093A7014ACF5B
:1015A00081E08093A601F3CF81E08093A70142CF31
:1015B00086E0E2EAF1E0DF011D928A95E9F71092F8
:1015C000A00110929F011092A1010895EF92FF9245
:1015D0000F931F93CF93DF93EB01E82FD11110C02E
:1015E000442321F0F0E0E75DFD4FE4916E2F7E2F64
:1015F0008E2FDF91CF911F910F91FF90EF90089563
:101600000D2F10E0282F30E0442329F0275D3D4FB7
:10161000F901249130E0F6E0CF9FC0011124EFEFF3
:10162000F0E0BF010E949C27AB018C2F90E0880F57
:10163000991FA5E5A49FB001A59F700D1124861BDD
:10164000970B982F990F980FBF01601B710B629F2A
:10165000D001639FB00D729FB00D11248B2F9D9F01
:10166000B0011124672F7727EF01C61BD70BBE01EE
:10167000629FE001639FD00D729FD00D11247F0106
:10168000E91AF108E09EB001E19E700DF09E700D28
:101690001124672F7727E61BF70BE29F8001E39F5A
:1016A000100DF29F100D1124E12F722F42305105C1
:1016B00099F048F44115510569F04130510581F028
:1016C000EB2F8D2F07C04430510569F080F0463074
:1016D0005105B1F76E2F8DCFE22F7B2F812FFACFDF
:1016E000E22F7D2FF7CFEB2F822F712FF3CF7B2FA0
:1016F000822FED2FEFCF41E00C94E60A0C947B0B88
:10170000CF93DF93762FE901682F842F0E947E0B01
:10171000798368838A83DF91CF9108954D3308F0F0
:101720004CE30C94800B80913502982F9E7F71F4CE
:1017300080913502817082608093350280913802F9
:101740008D3318F08CE3809338020895843080F74D
:10175000F5CF88E090E00C94D927CF92DF92EF92FA
:10176000FF926B017C010E94930BB701A60188E0F8
:1017700090E0FF90EF90DF90CF900C94F72760916E
:1017800035027091360280913702909138020C94A4
:10179000AD0BE5E3F2E083E0808311828FEF82837B
:1017A0008CE38383148260817181828193810C94A4
:1017B000AD0B8091350280FF02C08695089580E0D0
:1017C000089590913902933018F49F5F90933902F5
:1017D000882351F060913502709136028091370272
:1017E000909138020C94AD0B089581E00C94E10BBC
:1017F00090913902992319F09150909339028823DE
:1018000051F06091350270913602809137029091CB
:1018100038020C94AD0B089581E00C94F80B809184
:101820003902089580933902662351F060913502A0
:101830007091360280913702909138020C94AD0B72
:10184000089560E00C94120C809136020895809106
:101850003702089580913802089570E00C942F0E9D
:10186000609109018091350280FF0AC080910801D2
:1018700023E0829FC0011124865C9D4F0C942D0CA7
:10188000E0910A0180910B01E81780F78E2F90E01C
:10189000FC01EE0FFF1FE80FF91FE65CFD4F118200
:1018A00010821282E3CFE5E3F2E080818E7F8083B5
:1018B00060817181828193810E94AD0B2FEF80E75F
:1018C00092E0215080409040E1F700C000000C946D
:1018D000300CE5E3F2E080818E7F80832FEF80E79C
:1018E00092E0215080409040E1F700C000000C944D
:1018F000300C9091350290FF14C0E0910A01909154
:101900000B01E91760F42E2F30E0F901EE0FFF1FF5
:10191000E20FF31FE65CFD4F8183608342830C94EA
:10192000300C0895EF92FF920F931F93CF93DF93A4
:1019300000D00F92CDB7DEB7F82E062F142FE22E6F
:101940008091350280FF28C0E82FE695F0E0EC5A40
:10195000FE4F90819093A9018E7F823059F49E01B1
:101960002F5F3F4F8F2D0E948E0B4B8169818A81A3
:101970000E94790CF09236020093370210933802DD
:10198000EE2051F06091350270913602809137025D
:10199000909138020E94AD0B0F900F900F90DF9145
:1019A000CF911F910F91FF90EF900895E5E3F2E042
:1019B0009181282F4381628188E0890F0C94920CD9
:1019C00081E00C94D60CE5E3F2E09181282F43816D
:1019D000628188EF890F0C94920C81E00C94E30CE7
:1019E000E5E3F2E0628121E1620F08F46FEF282F56
:1019F000438181810C94920C81E00C94F00CE5E31E
:101A0000F2E0628121E1621B08F460E0282F43814B
:101A100081810C94920C81E00C94FF0CE5E3F2E0E0
:101A2000438121E1420F08F44FEF282F6281818129
:101A30000C94920C81E00C940E0DE5E3F2E04381EE
:101A400021E1421B08F440E0282F628181810C943F
:101A5000920C81E00C941D0D20E00C94920C80916E
:101A6000350280FF18C08170826080933502662342
:101A700051F0609135027091360280913702909159
:101A800038020E94AD0B409138026091370280917C
:101A900036020C942C0D0895682F81E00C942F0DC4
:101AA00081E00C944C0D682F9091350296958FEF44
:101AB000890F09F481E00C942F0D81E00C94530DF3
:101AC00061E00C942F0DE5E3F2E08081816080837A
:101AD00086950C94600D8091350280FD0C94530C1A
:101AE0000C94630D60E00C942F0D8091A80181117E
:101AF0002CC00E945E1E811104C00E94031F0E9420
:101B0000C90B0E94A90B6093350270933602809333
:101B10003702909338026E7F61F40E94C90B0E94D5
:101B2000A90B60933502709336028093370290932D
:101B300038020E94930B8091350280FF03C0869586
:101B40000E94720D81E08093A8010895E5E3F2E020
:101B500080818160808386950C94720DFA018111D9
:101B600001C0FB0109940F931F93CF938C01FB01DC
:101B7000C281CC2309F471C00E94A61D8272093C67
:101B8000FCE51F0709F460C048F5053CECE51E07BD
:101B900009F455C078F4033C9CE5190709F443C0E7
:101BA00008F048C0023C1C45D9F18C2FCF911F9101
:101BB0000F9108954BE05DE06CEF7CE0073C9CE505
:101BC0001907A9F140EE5CE06DEE7CE0083C1C4595
:101BD00070F14CEF5CE06BE07DE029C00D3CFCE572
:101BE0001F07B9F1A0F44CE05CE065EF7BE00B3C33
:101BF000ECE51E07E1F04AE15DE069E27DE00C3CC6
:101C00001C45A8F045EF5BE06CE07CE010C0063DB1
:101C10008CE5180718F00D351D4539F6C0E0C5CF25
:101C20000E946B0DFBCF4DE55DE060E57DE00E941D
:101C3000AE0DF4CF40E55DE06DE57DE0F8CF4DEE13
:101C40005CE060EE7CE0F3CF49E25DE06AE17DE0DC
:101C5000EECF81E00E94600DE1CFC1E0A6CF539AA4
:101C60004BB1477F5BB15860EFB7F8949B01220FEF
:101C7000331F260F371F280F391F2817390741F444
:101C8000EFBF8FE594E00197F1F700C000000895E1
:101C9000DC016D91CD0178E05BB9000000C067FF09
:101CA0004BB9660F000000C000C000C04BB900C0B7
:101CB0007A9591F7E2CF83E290E00E94D1278132BA
:101CC00089F484E290E00E94D127873059F485E2BC
:101CD00090E00E94D12791E0893009F090E0892FAF
:101CE0008170089580E0FCCFCF93C82F6FEF8111F2
:101CF00061E283E290E00E94E5276FEFC11167E0A7
:101D000084E290E00E94E5276FEFC11169E085E26F
:101D100090E0CF910C94E52780E00E94740E0C9423
:101D2000581E089586E290E00E94D127682F70E047
:101D300090E080E0089586E290E00C94E5270E9410
:101D4000910E0E945B0E81110CC060E070E0CB012F
:101D50000E949B0E0E9443100E942D1181E00C9462
:101D6000740E0895CF93FB01C281CC2309F19C012D
:101D700022513F452031310520F582510E943D110D
:101D8000C0E08C2FCF91089581E00E94FD1B43E0BD
:101D900062E081E00E946C03F3CF81E00E941E1C90
:101DA00043E062E081E00E946C03EBCF82E0F6CF7B
:101DB0008031FFE59F0789F381319F45B9F3C1E089
:101DC000E0CF8031EFE59E07F9F281319F45C9F6FA
:101DD00082E0DBCF2FEFFC0120830895CF93DF93C8
:101DE000EC0188818138A9F028F4803871F0DF9106
:101DF000CF910895823881F08338C9F70E94240C6E
:101E000089830E94270C8A83F2CF0E942A0C89833F
:101E1000EECF0E94D90BFBCF0E940F0CF8CFCF93CF
:101E2000DF93EC0188818138E1F028F4803869F093
:101E3000DF91CF910895823811F18338C9F70E945C
:101E40002A0C482F6A81898108C0D9810E94270CF9
:101E5000C82F0E94240C4D2F6C2FDF91CF910C9432
:101E60002C0D89810E94720D8981811104C0DF913E
:101E7000CF910C94690CDF91CF910C94A60D8981C0
:101E8000DF91CF910C94210CEF92FF920F931F934F
:101E9000CF93DF93EC01062FDC01ED91CD01E150F2
:101EA000E33108F0ADC0F0E0E55EF74D0C94C427D7
:101EB000198289E08A83602FCE01DF91CF911F9133
:101EC0000F91FF90EF900C94CB208981823069F0C4
:101ED000833071F08130D9F40E94EB1F0E94CA2731
:101EE0006A837B838C839D83E6CF0E94920EF6CF1C
:101EF0007E01B2E0EB0EF11C10E0812F0E9456072C
:101F0000F70181937F011F5F1430B9F7D4CF602FA1
:101F1000CE010E94EA0ECFCF89818230C1F76A815B
:101F20007B818C819D810E94CA270E949B0EC3CF1A
:101F30004B816A8189810E941510982789279827EB
:101F40009D838C83B8CF2C813D8132272327322774
:101F50004B816A8189810E942E10ADCF0E9443106F
:101F6000AACF0E940F0FA7CF0E94EE0EA4CF0E940F
:101F7000BF0BA1CF0E94D61089839DCF0E94D8109D
:101F80009827892798279A83898395CF6B8170E05A
:101F900089819A81AE014C5F5F4F982789279827E6
:101FA0000E94DB1088CF6B8170E089819A81AE013D
:101FB0004C5F5F4F9827892798270E9402117BCF9B
:101FC0000E942D1178CF0E940310D6CF6B8170E054
:101FD00089819A81AE014C5F5F4F982789279827A6
:101FE0000E947B1068CF6B8170E089819A81AE017D
:101FF0004C5F5F4F9827892798270E94A0105BCFDE
:102000008FEF888358CF84E0089550E0440F551F28
:102010009AE0699F400D511D112498E2899F400D5F
:10202000511D1124CA01879608950F931F93CF93D2
:10203000DF930E9405108C010E94D127C82FD0E0A9
:10204000DC2FCC27C80101960E94D1279E01282BA6
:10205000C901DF91CF911F910F9108950F931F93A5
:10206000CF93DF93122F032F0E940510EC01602FF6
:102070000E94E527612FCE010196DF91CF911F913C
:102080000F910C94E527AF92BF92CF92DF92EF921F
:10209000FF921F93CF93DF9389EDC82E80E0D82E57
:1020A000D0E07601C0E014C0F50125913491412FB4
:1020B0006C2F8D2F0E942E1082E0A80EB11C1F5F86
:1020C000153091F78AE0E80EF11CCF5FC43019F0AB
:1020D000570110E0E9CFDF5F88E2C80ED11CD43091
:1020E00001F7DF91CF911F91FF90EF90DF90CF909C
:1020F000BF90AF900895EF92FF920F931F93CF93ED
:10210000DF93EC018A017C01E60EF71ECE01879673
:10211000CE15DF0539F4DF91CF911F910F91FF901C
:10212000EF900895C03AD10540F40E94D127F801FC
:1021300080830F5F1F4F2196E9CFF8011082F9CFFE
:10214000CF92DF92EF92FF920F931F93CF93DF9383
:102150007C016A018C01060F171FEC01CE018796E6
:10216000C017D10749F4DF91CF911F910F91FF90D4
:10217000EF90DF90CF900895C03AD10540F4FE0172
:10218000EE19FF09EC0DFD1D60810E94E5272196E7
:10219000E5CF462F843038F4743028F4653018F4D5
:1021A000672F0C94151090E080E0089580E1089569
:1021B00089E393E00895EF92FF920F931F93CF93DB
:1021C000DF93EC018A017C01E60EF71ECE018953F4
:1021D0009F4FCE15DF0539F4DF91CF911F910F91FD
:1021E000FF90EF900895C93323E0D20740F40E9496
:1021F000D127F80180830F5F1F4F2196E7CFF801A9
:102200001082F9CFCF92DF92EF92FF920F931F933C
:10221000CF93DF937C016A018C01060F171FEC013D
:10222000CE0189539F4FC017D10749F4DF91CF9159
:102230001F910F91FF90EF90DF90CF900895C933D9
:1022400023E0D20740F4FE01EE19FF09EC0DFD1D5D
:1022500060810E94E5272196E3CFCF93DF93C7ECFF
:10226000D0E060E0CE010E94E5272196C11584E010
:10227000D807B9F7DF91CF910895DF92EF92FF92DF
:102280000F931F93CF93DF9300D000D0CDB7DEB76D
:10229000F82E8FE08F1540F08FEF93E00E94D1274A
:1022A00007EC10E08823C1F00F900F900F900F9073
:1022B000DF91CF911F910F91FF90EF90DF900895E4
:1022C000011584E0180781F3C8010E94D12781110C
:1022D00001C0FA940F5F1F4FF110F2CF19821A82DA
:1022E0001B821C82DD24D39478018FEFE81AF80A50
:1022F000C8010E94D12789831A828823A9F29FEFFF
:10230000980F933078F48A83D9820E5F1F4FC701EC
:102310000E94D1278B83882339F2CE0101960E9437
:10232000C104E2CF8701F9CF0F931F93CF93DF93BF
:10233000C42FD22FFC0182818823C9F04093AD01C4
:102340000E94DF1F9093AC018093AB0180E28C0F61
:10235000883008F050C0C77081E001C0880FCA956E
:10236000EAF7DF91CF911F910F910C940F16109106
:10237000AD01141335C08091AB019091AC010E9466
:10238000F71F883C910560F5C0E2CD0F1D17B9F02D
:1023900080E2810F883040F4177081E001C0880F1F
:1023A0001A95EAF70E941616C83048F481E09D2F6E
:1023B000977001C0880F9A95EAF70E940F16802F38
:1023C0000E940716C830B8F4D77081E001C0880FAA
:1023D000DA95EAF7DF91CF911F910F910C941616C1
:1023E00080E28C0F883038F4C77081E001C0880F1C
:1023F000CA95EAF7EFCFDF91CF911F910F91089522
:102400000F939C01CB01233F4CE5340759F1A8F40D
:10241000283DFCE53F0701F1293D4CE53407D1F1AA
:10242000273D3C4591F406E221EE41EE67ED7CE567
:102430000E94941180E00F910895253FFCE53F072D
:10244000E9F0B0F0263F3C45F9F0FC018281882399
:1024500039F11092AD01EFCF07E225EE45EE68EDC0
:102460007CE5E6CF06E221EE40EE63EF7CE5E0CFCF
:1024700007E225EE44EE64EF7CE5DACF06E221EEDA
:1024800042EE65EF7CE5D4CF07E225EE46EE66EF3F
:102490007CE5CECF08E221E045EE69ED7CE5C8CFD2
:1024A00081E0C9CFCF93DF93EC01FB0182818823C8
:1024B00009F419C1C230FCE5DF07C0F1C6319CE563
:1024C000D90730F09E012A5F3C452930310570F56F
:1024D0000E94711E90932C0280932B02C031ECE578
:1024E000DE0709F4CFC008F05BC0C8308CE5D80720
:1024F00009F4B6C088F5C430ECE5DE0709F4A8C0DD
:10250000C0F4C2308CE5D80709F49CC080912B023E
:102510008260C330DC4509F498C080912B02909111
:102520002C020E947F1E0E947B1880E0DF91CF91D9
:10253000089580912B028061C630ECE5DE0709F436
:1025400084C080912B028860C730DC4508F47DC0D0
:1025500080912B02806279C0CC308CE5D80709F4D9
:1025600089C070F480912B028C60CA30ECE5DE07E4
:1025700009F46BC008F478C080912B028E7F65C08F
:10258000CE308CE5D80709F479C080912B028B7F7F
:10259000CF30DC4508F459C080912B028F7E55C0A6
:1025A000CB3FECE5DE0709F457C030F5C3318CE5CD
:1025B000D80709F46FC078F4C131ECE5DE0709F4FF
:1025C00065C0C231DC4509F0A8CF0E947B1880911C
:1025D0002B028F773AC0C5318CE5D80709F462C069
:1025E00008F476C080912C028160CA3FDC4509F076
:1025F00094CF80932C0291CFCF3FFCE5DF0709F405
:102600004DC088F480912C028D7FCD3F9CE5D90789
:1026100081F380912C028E7FCE3FDC4550F3809178
:102620002C028360E6CFC130FDE5DF0709F459C015
:1026300008F444C080E0C230DD4509F06ECF0E944E
:10264000051F6BCF80912B02816080932B0265CF99
:1026500080912B028460F9CF80912C028260C9CFD7
:1026600080912B028064F1CF0E947B1880912B0215
:102670008068EBCF80912B028D7FE7CF80912B027A
:10268000877FE3CF80912B028F7DDFCF80912B025C
:102690008F7BDBCF80912B02837FD7CF80912C0261
:1026A0008C7FA7CF80912B0282FB992790F921E0A4
:1026B000922790FB82F990FB83F9C7CF80912C027F
:1026C000982F909591708E7F892B90FB81F991CFF7
:1026D0000E947B1890912B02892F97FB87F98058D5
:1026E000B4CF81E0ACCF81E021CFCF93DF93EB017A
:1026F00086319C4511F50E94A61D9A81992399F077
:102700008A7A91E009F490E09093AE01811109C0BA
:1027100089E20E94601D0E94E91D80E0DF91CF9157
:10272000089585E3F6CF8091AE01811104C089E25E
:102730000E94671DF0CF85E3FBCF81E0EFCF909340
:10274000B4018093B3010895E091B301F091B40115
:10275000309721F00190F081E02D099480E00895F8
:10276000E091B301F091B401309721F00280F38140
:10277000E02D09940895E091B301F091B4013097F0
:1027800039F022E0DC012C930480F581E02D0994DE
:1027900008952091B1013091B2012817390771F0E5
:1027A0009093B2018093B101E091B301F091B40133
:1027B000309721F00680F781E02D0994089520914B
:1027C000AF013091B0012817390771F09093B00133
:1027D0008093AF01E091B301F091B401309721F003
:1027E0000084F185E02D099408950E94EB1F609309
:1027F000BE017093BF018093C0019093C1016093AB
:10280000BA017093BB018093BC019093BD01089500
:1028100085B7806885BF85B7806885BF08950895AE
:1028200008950C940F1408950C9413140E94081426
:1028300086E59EE10E943B200E9410140C94111426
:1028400081E008950C942014089508950E942414A2
:102850000C9425140E94D61F0E947C070E949F0E94
:102860000E94750D0C941414AF92BF92CF92DF9218
:10287000EF92FF920F931F93CF93DF93CDB7DEB705
:102880002A970FB6F894DEBF0FBECDBF0E94AD07EA
:1028900081110E94F51386EBA82E81E0B82E10E07E
:1028A00000E0C02E802F0E945607E82EF501F1901F
:1028B0005F01F81609F44DC080911F0281FD0E944E
:1028C0005C078F2D8E25D12CFF24F394982F9F2108
:1028D000D9F10E942214882399F0DE82CF82EF2062
:1028E00081E009F480E088870E94DF1F8160782FF3
:1028F0009A8789874E815F8168858A850E94D11475
:10290000F801EA54FE4F8081F826F0820E94CC093B
:102910000E94A4139091B501891791F10E94A4130C
:102920008093B5012A960FB6F894DEBF0FBECDBFD7
:10293000DF91CF911F910F91FF90EF90DF90CF909B
:10294000BF90AF900C943805D394FF0CF5E0DF12E4
:10295000BDCF0F5F1F4F0430110509F0A2CF8FEFDD
:1029600089838A831B820E94DF1F8160782F9D8369
:102970008C8349815A816B818D810E94D114C6CF8D
:102980002A960FB6F894DEBF0FBECDBFDF91CF9170
:102990001F910F91FF90EF90DF90CF90BF90AF907D
:1029A0000895DF92EF92FF920F931F93CF93DF93DF
:1029B000CDB7DEB72B970FB6F894DEBF0FBECDBFF5
:1029C0007A878B87F42E052F162FE72ED82E6111CC
:1029D0000E94C61D1E821D827E2DEC82DD824F2D3F
:1029E000502F612F8D2D9E812B960FB6F894DEBF50
:1029F0000FBECDBFDF91CF911F910F91FF90EF9050
:102A0000DF900C94F11AFC01808191810C94321DAD
:102A1000CF93C82F882309F48BC08238C1F40E9459
:102A2000A41381FD85C089E30E94601D0E94E91DF9
:102A30002FEF81EE94E0215080409040E1F700C0FC
:102A4000000089E30E94671DCF910C94E91D833833
:102A5000A1F40E94A41380FD6BC083E50E94601D59
:102A60000E94E91D2FEF81EE94E0215080409040BC
:102A7000E1F700C0000083E5E5CF8438A1F40E94AF
:102A8000A41382FD55C087E40E94601D0E94E91DC9
:102A90002FEF81EE94E0215080409040E1F700C09C
:102AA000000087E4CFCF8CEF8C0F813A90F46C2F2D
:102AB00080910D0190910E010E941C1F882329F026
:102AC0008C2F0E94671D0E94E91D8C2F0E94601DA3
:102AD000BBCF80E28C0F883048F4C77081E001C022
:102AE000880FCA95EAF70E94A91DAECFEBE5EC0F5F
:102AF000E33040F4F0E0EC57FE4F808190E0CF915E
:102B00000C94C913E8E5EC0FE73150F4F0E0EE0F58
:102B1000FF1FEA5AFE4F80819181CF910C94DF1301
:102B2000C03F30F08C2F0E94DE08CF910C94B10989
:102B3000CF910895882309F452C0823871F40E941D
:102B4000A41381FF4CC089E30E94601D0E94E91D0F
:102B500089E30E94671D0C94E91D833859F40E9493
:102B6000A41380FF3CC083E50E94601D0E94E91D04
:102B700083E5EFCF843859F40E94A41382FF2FC05D
:102B800087E40E94601D0E94E91D87E4E2CF9CEF6C
:102B9000980F913AF0F290E2980F983050F48770C5
:102BA00091E001C0990F8A95EAF7892F0E94AF1D25
:102BB000D2CF9BE5980F933020F490E080E00C9406
:102BC000C91398E5980F973120F490E080E00C94B9
:102BD000DF13803F20F00E9438090C94B10908955A
:102BE0001F93CF93DF93182FEB010E9408152097B6
:102BF00031F4812FDF91CF911F910C949A158FE9B9
:102C00009FE00197F1F700C000002197F0CF70E03E
:102C100060E0893311F460E570E00C94F0158823CE
:102C200021F00E94A91D0C94E91D0895882321F02C
:102C30000E94AF1D0C94E91D0895BF92CF92DF92C0
:102C4000EF92FF920F931F93CF93DF936C01D62FD8
:102C5000C72FFC011281058102950F700E947E1D15
:102C6000E82E8823A1F0E12E112389F08C2F807F9C
:102C7000803429F080E28D0FE12C883040F082E032
:102C80000E943A1E0E947E1D91E0E82EE926BC2E8D
:102C9000B2949FE0B922FBE0FB1598F1EB2DF0E038
:102CA000E25DF74D0C94C4270C2F0F70C07F11F01C
:102CB0000295007F1123A9F0002359F080E28D0FC7
:102CC000883010F0D11109C0802F0E94A91D0E94E8
:102CD000E91D8D2F0E94081514C0802F0E94B91D78
:102CE000F6CF8D2F0E949A15002359F080E28D0FA8
:102CF000883010F0D1112CC0802F0E94AF1D0E948F
:102D0000E91D2B2D2850330B2430310520F40E946F
:102D1000A4130E943805EE2009F48EC10E947A1D8A
:102D200080FD8AC1F60112820E94741D0E94FD1B63
:102D3000C6010E943D180E94741DDF91CF911F9122
:102D40000F91FF90EF90DF90CF90BF900C941E1CDE
:102D5000802F0E94BF1DD3CF2C2F2F70F22EC07F4B
:102D6000C03219F0F29480EFF822DD2369F0D130FF
:102D700049F1112391F1002351F1F601858180FF82
:102D8000A8CF8F70858323C0112381F0011106C065
:102D90000E94CC1D8F290E940F16B3CF0130C1F7BE
:102DA0000E94CC1D8F290E94D21DABCF011106C0FD
:102DB0000E94DF1D8F2D0E941616A3CF013009F44B
:102DC000A0CFF6CF112329F0063008F09ACF8F2D2F
:102DD000E2CF053008F095CFEDCF002359F3D9337A
:102DE00049F4FFEF27EE33E0F15020403040E1F7A7
:102DF00000C000008D2F0E949A1583CF8C2F8695DE
:102E00008695837069F0813009F07BCF8D2F9C2FE0
:102E10009370111102C090E080E00E94DF1371CF27
:102E20008D2F9C2F9370111102C090E080E00E94C2
:102E3000C91367CF8D2F112329F00E94DE080E944D
:102E4000B1095FCF0E943809FACF8C2F837009F047
:102E500041C0111156CF4D2F429546954770440FF2
:102E6000440F0D2F0F7010E030E020E0042E04C05E
:102E7000000F111F221F331F0A94D2F760E070E089
:102E8000CB01D4FF0FC06FE070E080E090E004C0A1
:102E9000660F771F881F991F4A95D2F76095709526
:102EA00080959095C695C695C370602B712B822B2B
:102EB000932BC23049F058F4C13019F00E94AF1B77
:102EC00020CF0E949D1B1DCF0E94C11B1ACF0E94C4
:102ED0009B1B17CF8695112311F08C2F81708823AF
:102EE00009F40FCF4D2F429546954770440F440F7C
:102EF0000D2F0F7010E030E020E0042E04C0000F12
:102F0000111F221F331F0A94D2F760E070E0CB013B
:102F1000D4FF0FC06FE070E080E090E004C0660F67
:102F2000771F881F991F4A95D2F7609570958095F5
:102F30009095C695C695C370602B712B822B932BF1
:102F4000C23049F058F4C13019F00E94741CD9CE37
:102F50000E94621CD6CE0E94861CD3CE0E94D71B34
:102F6000D0CECF70112329F08C2F0E94FD1B8D2F06
:102F700012CF8D2F0E9416168C2F0E941E1CC1CEC0
:102F8000D23F89F160F4D03FC9F0D13F29F111233C
:102F900009F442C001119DCE8C2F8F7121C0D33F07
:102FA00039F1D43FA1F7112369F1CF718C2F0E9421
:102FB000FD1B63E08C2F0E941F1EA3CE112341F046
:102FC000053008F09ECE8C2F8F710E94411C99CE47
:102FD000063008F096CEF7CF8C2F8F71112369F24F
:102FE0000E94FD1B8ECE8C2F8F711123C9F3C5CF8C
:102FF000112329F08C2F8F710E94E81B82CE0E9432
:10300000E31B7FCE81E00E943A1E023008F479CEA5
:1030100082E00E943A1E75CE002359F0D93309F0A0
:10302000E9CE8FEF97EEE3E081509040E040E1F78A
:10303000DFCE8C2F8F71A1CFDF91CF911F910F9198
:10304000FF90EF90DF90CF90BF9008950F931F9364
:10305000CF93DF93EC01688179818A810E943C1DC6
:103060008C010E94981C0E949A1BB801CE01DF912E
:10307000CF911F910F910C941D16CF93DF93EC010C
:103080008B819C81892B29F08881998189238F3FAD
:1030900059F4DF91CF910895CE010E942618CE01F8
:1030A000DF91CF910C940D03CE010E949403811106
:1030B000F3CF0E947E1D882361F38A81882349F320
:1030C00082E0DF91CF910C943A1E90E080E00E9464
:1030D000C91390E080E00E94DF130E94C61D0E9489
:1030E000C91D0E94E91D0E94D80A0C94B1090E94D2
:1030F0006E1D0C9465180E94B61D0C947718E92F6C
:10310000E295EF70E250EE3070F4F0E0E65CF74DDF
:103110000C94C427803F19F020F4883E20F481E00D
:103120000895843FE1F380E00895883EC0F3813F35
:10313000D1F7F5CF93FB882780F908950E94321DBF
:103140000C947F18CF93DF9300D000D00F92CDB7AF
:10315000DEB70F900F900F900F900F90DF91CF91EF
:103160000895CF93DF9300D000D000D0CDB7DEB765
:1031700026960FB6F894DEBF0FBECDBFDF91CF917C
:1031800008951F93CF93DF93C091C30116E0809100
:10319000C4018C1304C0DF91CF911F910895D0E03A
:1031A0001C9FF0011D9FF00D1124EB53FE4F408139
:1031B000518162817381848195810E94B118219629
:1031C000C770E5CF4091F5015091F6016091F7018C
:1031D0007091F8018091F9019091FA010C94B11865
:1031E0001F93CF93DF938091FA01807FA9F48091A0
:1031F000F701882389F08091C301C091C4016091D7
:10320000F5017091F601A091F801B091F901D62F66
:10321000D72316E0C81304C0DF91CF911F91089502
:1032200090E0109711F0DF3F19F401968770F2CF0C
:10323000189F9001199F300D1124F901EB53FE4F97
:1032400041814713F2CF40814613EFCF42814111B4
:10325000ECCF438154814A1B5B0B483C510528F756
:103260008091FA018F7080618093FA01F901E65331
:10327000FE4F80818F708061808385EF91E00E9496
:103280003D18DF91CF911F910C94C118AF92BF925E
:10329000CF92DF92EF92FF920F931F93CF93DF9322
:1032A000CDB7DEB761970FB6F894DEBF0FBECDBFC6
:1032B0008C0185E0F801DE011D9601900D928A9542
:1032C000E1F7F80140815181E28085EFC82E81E06D
:1032D000D82E6091F8017091F9016115710509F41A
:1032E00061C19091F5012091F601892F82238F3FD2
:1032F00009F458C1A380B480F090F701F501E61BF2
:10330000F70BFF2009F4FCC08091FA01382F307FC1
:10331000E83CF10508F0B2C0311179C0FE2C25134C
:1033200023C0941321C0E1101FC08F70806180936F
:10333000FA010E94E218C6010E943D188091FA012C
:10334000F80185838F2D61960FB6F894DEBF0FBE0E
:10335000CDBFDF91CF911F910F91FF90EF90DF9044
:10336000CF90BF90AF900895AB2829F0842F85238C
:103370008F3F09F033C180E0F82FF170DF2E80FF1E
:103380003CC08091C3012091C40136E0821315C076
:103390004D875E878D859E850E94321D292F22953F
:1033A0002F702230F0F0243018F59F70F1F0F80102
:1033B0009581907FD1F4D12C1EC090E0389FF00110
:1033C000399FF00D1124EB53FE4F6181651306C048
:1033D0006081641303C062816E110FC00196877013
:1033E000D5CF9F7011F0882331F3805E883018F3B9
:1033F000C8010E943D18FD2CA5CFEE2009F4A2CFF4
:103400008091FA0181608093FA01F12C9BCF251302
:1034100006C0941304C0F801EE2009F48DC04D8756
:103420005E878D859E850E949E18882319F1EE2067
:1034300009F18091FA01803270F02091F50130910C
:10344000F60138872F831986BB86AA868C87CE0122
:1034500007960E943D1886E0F801A5EFB1E00190C3
:103460000D928A95E1F70E94F0180E94E218FF245D
:10347000F39468CFC8010E943D18F9CF311113C0F1
:103480007A2DB98AA88A6E2D89890E94A21885EFA3
:1034900091E00E943D1886E0F60111928A95E9F7C5
:1034A0000E94E218B2CF25130FC094130DC0E11093
:1034B0000BC0F8018583C8010E943D1886E0F60123
:1034C00011928A95E9F73ECF4D875E878D859E855F
:1034D0000E949E18882371F2EE2061F28091FA0119
:1034E000803208F4B8CF2091F5013091F6013A838B
:1034F00029831B82BD82AC828E83CE010196A9CF27
:10350000E83CF10508F041C0FE2CEE2009F4B2CFF2
:1035100025132AC0941328C08091FA0180FD1BC096
:10352000982F907FC1F0F8018583903F31F0982F5C
:10353000907F905F8F70892B8583C8010E943D1812
:1035400086E0F801A5EFB1E001900D928A95E1F7D0
:103550000E94E218F7CE86E0F801A5EFB1E00190F5
:103560000D928A95E1F7EECE4D875E878D859E851B
:103570000E949E1881116FCF8091FA018160809323
:10358000FA01C8010E943D18DDCE7A2DB98AA88AB9
:103590006E2D89890E94A21886E0F60111928A9503
:1035A000E9F7D6CFEE2009F465CF4D875E878D858C
:1035B0009E850E949E18F82E882309F45BCF86E032
:1035C000F801A5EFB1E001900D928A95E1F785EF42
:1035D00091E00E9403150E94F018BACF81E08E2579
:1035E000CBCE1F93CF93DF93CDB7DEB72C970FB61B
:1035F000F894DEBF0FBECDBF4F83588769877A87A7
:103600008B879C87CE0107960E944619882369F014
:103610008A859B85892B39F04F815885842F852396
:103620008F3F09F071C016E05FC086E0FE0137965B
:10363000DE01119601900D928A95E1F78A859B85AE
:10364000892B89F38F81988589238F3F61F320919E
:10365000C40130E0C9010196877099274091C301E8
:103660004817190671F40E947B181092C401109239
:10367000C30186E0E5EFF1E0DF011D928A95E9F7ED
:10368000D2CF96E0929FD001939FB00D1124AB53FF
:10369000BE4FFE01319601900D929A95E1F780930D
:1036A000C4010E94C118BFCF819FC00111248B5358
:1036B0009E4F0E9446198823E9F0E091C3011E9FA6
:1036C000F0011124EB53FE4F4081518162817381DF
:1036D000848195810E94B1188091C30190E0019688
:1036E000877099278093C3018091C3019091C40191
:1036F0008913DACF2C960FB6F894DEBF0FBECDBF7C
:10370000DF91CF911F91089569857A858B859C857E
:103710000E94B11888CF08950C948B1B0E948C1BBB
:1037200060930E0270930F02809310029093110227
:103730000C94651808950C948E1B0F931F930091A1
:103740000E0210910F022091100230911102602B95
:10375000712B822B932B1F910F910C948E1B0F9327
:103760001F9300910E0210910F02209110023091D0
:10377000110260237123822393231F910F910C94D4
:103780008E1B0F931F9300910E0210910F02209138
:1037900010023091110260277127822793271F9111
:1037A0000F910C948E1B0C948B1B0C94D31B0E94BA
:1037B000D51B60930A0270930B0280930C029093C6
:1037C0000D020C94651860E070E0CB010C94D71BDF
:1037D0000F931F9341E050E060E070E08A019B018D
:1037E00004C0000F111F221F331F8A95D2F7C90191
:1037F000B8011F910F910C94D71B0F931F9341E0B9
:1038000050E060E070E004C0440F551F661F771F52
:103810008A95D2F780910A0290910B02A0910C0236
:10382000B0910D028A019B01082B192B2A2B3B2BEF
:10383000C901B8011F910F910C94D71B0F931F93CF
:1038400041E050E060E070E004C0440F551F661F87
:10385000771F8A95D2F7CB01BA0160957095809554
:10386000909500910A0210910B0220910C02309168
:103870000D0260237123822393231F910F910C94D7
:10388000D71B0F931F9341E050E060E070E004C04D
:10389000440F551F661F771F8A95D2F780910A0241
:1038A00090910B02A0910C02B0910D028A019B0134
:1038B000082719272A273B27C901B8011F910F9113
:1038C0000C94D71B0F931F9300910A0210910B02C7
:1038D00020910C0230910D02602B712B822B932BC7
:1038E0001F910F910C94D71B0F931F9300910A0205
:1038F00010910B0220910C0230910D026023712374
:10390000822393231F910F910C94D71B0F931F9326
:1039100000910A0210910B0220910C0230910D02CD
:1039200060277127822793271F910F910C94D71B33
:103930000895E92FEE0FEE0F9E0F890F982F9770C5
:1039400041E001C0440F9A95EAF7869586958695E1
:1039500095E0899FF0011124E550FE4F30E020E012
:1039600070E05191DF011197CB01022E02C09695B4
:1039700087950A94E2F781708195852784238527AE
:103980008C932F5F3F4F2530310559F70895E92F6C
:10399000EE0FEE0F9E0F890F982F977086958695E4
:1039A000869525E0829FF0011124E550FE4F50E0FE
:1039B00040E080E0219130E0092E02C03695279545
:1039C0000A94E2F721703327042E01C0220F0A94D3
:1039D000EAF7822B4F5F5F4F4530510559F7089545
:1039E000BF92CF92DF92EF92FF920F931F93CF93EC
:1039F000DF938C01C0900A02D0900B02E0900C0281
:103A0000F0900D0280910E0290910F02A091100291
:103A1000B0911102C82AD92AEA2AFB2ACFE1D0E0C4
:103A2000BC2ED701C6010C2E04C0B695A79597955C
:103A300087950A94D2F780FD0EC0219788F7B12CA4
:103A40008B2DDF91CF911F910F91FF90EF90DF9021
:103A5000CF90BF900895B8018C2F0E944005019728
:103A600061F3EECFCF93DF93EC010E94F01CBE0117
:103A7000DF91CF910C9440051F93CF93DF93EB011F
:103A80009091C201992331F0CB01DF91CF911F9129
:103A90000C94321D882379F0CB010E94F01C182F62
:103AA000682FCE010E94991CBE01812FDF91CF911A
:103AB0001F910C944005CB010E94C71C182FF4CF16
:103AC000682F80910D0190910E010C94521F682F68
:103AD00080910D0190910E010C94541F80910D0165
:103AE00090910E010C94561F809112028595859538
:103AF0008595089580911202877008959091120221
:103B0000977081E009F480E0089590912C0292FB77
:103B1000222720F9281751F080FB92F990932C026C
:103B200080912B0290912C020C947F1E089580911D
:103B30002C0282FB882780F991E089270C94851D4F
:103B400081E00C94851D80E00C94851D80911E02FF
:103B5000089590911E02892B80931E0208958095EE
:103B600090911E02982390931E02089510921E02B7
:103B7000089590911D02892B80931D0208958095D0
:103B800090911D02982390931D02089510921D029A
:103B9000089510921C0208958091130208950895CB
:103BA0000C94CF1D90912C0292FD08C090911302AD
:103BB000981721F0809313020C94D01D08958091E2
:103BC0001302882329F01092130280E00C94D01D78
:103BD0000895E0910D01F0910E0180911E02808305
:103BE000E0910D01F0910E01808190911D02892BD1
:103BF0008083E0910D01F0910E01808190911C0273
:103C0000892B808390911302992381F0E0910D011B
:103C1000F0910E018081892B808380910D0190911C
:103C20000E010E940A1F81110E94DF1D80910D016B
:103C300090910E010C94B01308950C941C1E909159
:103C40002C0292FD10C098E0899F90011124622BF4
:103C5000609312020E94FD1B80911202859585954A
:103C600085950C941D1E0C94FD1B1092120280E091
:103C70000C941D1E9091120280958923809312024C
:103C8000282F277039F4282F082E000C330B921799
:103C9000130621F490912C0292FF07C0859585951B
:103CA00085950E941E1C0C94351E089580E0089591
:103CB0006FEF7FEF90E080E00C94032890E080E0CD
:103CC0000E94DF2721E08A3E9E4F09F020E0822FEC
:103CD000089582E090E00C94D12783E090E00C946A
:103CE000D127CF9384E090E00E94D127C82F82E2B1
:103CF00090E00E94D127982F8C2FCF910895CF93D9
:103D0000C92F682F84E090E00E94E5276C2F82E2A3
:103D100090E0CF910C94E527AB01BC018FE090E0DF
:103D20000C94F727AB01BC0183E190E00C94F727DA
:103D300060E070E0CB010C94921E60E070E0CB017B
:103D40000E948C1E0C94981E6AEE7EEF90E080E03C
:103D50000E94032860E082E090E00E94E52760E096
:103D600083E090E00E94E52710920E0210920F026D
:103D7000109210021092110260E084E090E00E9424
:103D8000E52760E082E290E00E94E52760E085E0C0
:103D900090E00E94E52760E086E090E00E94E52741
:103DA0006FEF87E090E00E94E52740E050E0BA0125
:103DB00088E090E00E94F72760E08DE090E00E94AC
:103DC000E52740E050E0BA0188E190E00E94F72743
:103DD00060E087E190E00E94E52740E050E0BA0112
:103DE0008CE190E00E94F72770E060E080E290E0D4
:103DF0000E94032840E050E0BA0188E190E00E9470
:103E0000F7270C949D1E0C94A41E682F8EE090E062
:103E10000C94E5279C012E5F3F4FAC01485F5F4F3C
:103E200080E02417350709F40895F90191919F0165
:103E30009923B9F38F5FF5CF662349F0FC013296E1
:103E400008962191261729F0E817F907D1F780E0A5
:103E5000089581E008959C01FC0132969FEF80E077
:103E60004191461751F09F3F19F4411101C0982F1D
:103E70008F5F8630A9F79F3F09F40895290F311D00
:103E800097FD3A95F90162830895FC0132960896F0
:103E90002191261303C0DF0111971C92E817F9073F
:103EA000B9F708950C942B1F0C94451F029626E039
:103EB000FC0111922A95E9F70895089508950C944C
:103EC0005E1F80914502843049F10E945F1F80E0AF
:103ED0000E9438051092200288E190E020E40FB69D
:103EE000F894A895809360000FBE2093600083B77C
:103EF000817F846083BF83B7816083BF7894889516
:103F000083B78E7F83BF0FB6F894A8958091600029
:103F1000886180936000109260000FBE089508953C
:103F2000CF930E945D1F0E94AD070E948F1FC0E0CB
:103F30008C2F0E945607811105C0CF5FC430C1F796
:103F4000CF91089581E0FCCF08950C94A41F0E94A6
:103F50007B180E94A4130E9438050C94A51F1F9281
:103F60001FB61F9211248F939F93AF93BF9380919D
:103F70002002811113C080913D0290913E02A091D8
:103F80003F02B09140024196A11DB11D80933D02B8
:103F900090933E02A0933F02B0934002BF91AF9135
:103FA0009F918F911F901FBE1F90189582E084BD36
:103FB00093E095BD9AEF97BD80936E0008952FB75B
:103FC000F89480913D0290913E02A0913F02B09101
:103FD00040022FBF08952FB7F89460913D02709171
:103FE0003E0280913F02909140022FBF08959C01B4
:103FF0004FB7F89480913D0290913E02A0913F020C
:10400000B09140024FBF821B930B089578941F928A
:104010001FB61F9211248F939F93AF93BF938091EC
:104020003D0290913E02A0913F02B0914002019664
:10403000A11DB11D80933D0290933E02A0933F02CB
:10404000B0934002BF91AF919F918F911F901FBE7F
:104050001F90189587E797E79093010880930008D1
:1040600088E19AE00FB6F894A895809360000FBE9F
:1040700090936000FFCF90939701809396010895ED
:10408000809129020895CF93DF9300D00F92CDB78E
:10409000DEB790914502943011F589837B836A8362
:1040A0009093E9008FEF9091E800815095FD06C054
:1040B00095ED9A95F1F700008111F5CF8091E80018
:1040C00085FF0DC050E040E063E070E0CE01019656
:1040D0000E94BC228091E8008E778093E8000F90C8
:1040E0000F900F90DF91CF910895BC0184E00C9464
:1040F0004320BC0183E00C9443209C0184E0809326
:10410000E9009FEF8091E800915085FD06C085EDA4
:104110008A95F1F700009111F5CF8091E80085FFB5
:104120000CC050E040E066E070E0C9010E94BC2293
:104130008091E8008E778093E8000895CF93DF9315
:10414000EC0181E08093E9008FEF9091E8008150CD
:1041500095FD06C095ED9A95F1F700008111F5CF18
:104160008091E80085FF14C050E040E068E070E016
:10417000CE010E94BC228091E8008E778093E800F7
:1041800088E0FE01A1E2B2E001900D928A95E1F78C
:10419000DF91CF910895CF93FC01603221F580919A
:1041A0004502843001F5C091E900CF702091EC0008
:1041B000922F917020FD90E8C92B82E08093E90056
:1041C0008091E80080FF0CC050E040E060E270E0C9
:1041D000CF010E94BC228091E8008E778093E80096
:1041E000CF70C093E900CF9108958091440281116E
:1041F00009C00E949B240E94F8248091E200846000
:104200008093E2000895109244020895089508955D
:10421000089542E061EC81E00E94172442E261ECE3
:1042200084E00E94172442E261EC82E00E9417249D
:1042300042E260EC83E00C941724809147028330C3
:1042400009F461C030F48130D1F1823009F49DC0AD
:1042500008958A3009F489C08B3009F46FC0893021
:1042600009F050C080914602813209F04BC0809124
:104270004A0290914B02009719F0029709F042C050
:104280008091E800877F8093E8008091E80082FFBA
:1042900035C09091F3008091F200029729F480914B
:1042A000F1008B7F813021F48091F100809329020D
:1042B0008091E8008B778093E8000C944B248091E8
:1042C0004602813AF9F48091E800877F8093E80004
:1042D00080914A0290914B02892B61F468E081E25F
:1042E00092E070E00E945A238091E8008B778093DF
:1042F000E800089560E090E080E0F3CF809145020F
:104300008111C3CF089580914602813AD9F78091F7
:104310004A0290914B02892BA9F78091E800877F90
:104320008093E8008091E80080FFFCCF8091190124
:104330008093F1008091E8008E77BDCF8091460296
:10434000813201F780914A0290914B02892BD1F67C
:104350008091E800877F8093E8000E944B24809141
:104360004802809319010C947B1880914602813297
:1043700049F68091E800877F8093E8000E944B24F3
:104380008091490280932A02089580914602813AE1
:1043900009F0B8CF8091E800877F8093E800809192
:1043A000E80080FFFCCF80912A02C2CFCDB7DEB7F4
:1043B000A0970FB6F894DEBF0FBECDBF84B7877F3E
:1043C00084BF0FB6F894A8958091600088618093AF
:1043D0006000109260000FBE80E890E00FB6F89485
:1043E00080936100909361000FBE0E9416140E949A
:1043F0009B240E94F8248091E20084608093E20074
:1044000078940E9481270E942A148FE091E00E94F4
:104410009F1313E0809145028530B9F00E94341457
:10442000809145028430C1F00E942614F3CF0E948F
:10443000611F80914302882341F00E94901F8823CE
:1044400021F00E94A6220E947B18809145028530AF
:1044500071F30E94A71FE2CF1093E9008091E8005A
:1044600082FFE2CF8091E80090E085FF09C050E034
:1044700040E060E270E0CE0101960E940B2391E0E3
:104480008091E8008B778093E800992369F260E2DD
:10449000CE0101960E94440FC7CF0C944F22292FC2
:1044A00033272330310521F168F42130310509F437
:1044B00043C02230310509F444C090E080E030E090
:1044C00020E026C02132310551F122323105A9F711
:1044D0006330710590F7FB01EE0FFF1FE657FE4FAB
:1044E0002081318169577E4FFB01808190E010C0AF
:1044F00099278130910581F0009729F00297E9F61C
:10450000E9E2F3E002C0E1E8F3E0849190E09F018A
:10451000FA01318320830895EDE3F3E0F6CF6330B1
:10452000710558F6660F771FFB01E057FE4F20819B
:10453000318189E090E0ECCF82E190E020EE33E041
:10454000E7CF8BE590E025E833E0E2CF80E189BD5D
:1045500082E189BD09B400FEFDCF8091D8008F7D36
:104560008093D8008091E00082608093E000809189
:10457000E00081FDFCCF0895AF92BF92CF92DF9211
:10458000FF920F931F93CF93DF936C01EB018A018E
:104590000E946A24F82E811123C00115110539F0FB
:1045A000F80180819181C81BD90BC80ED91EB12C8E
:1045B000A12C2097A9F08091E80085FD22C0809170
:1045C000E8008E778093E80001151105A1F0F8014D
:1045D00080819181A80EB91EB182A08285E0F82E5B
:1045E0008F2DDF91CF911F910F91FF90DF90CF9092
:1045F000BF90AF9008950E946A248823D1F2F82ECC
:10460000EFCFF60181916F018093F1002197FFEFC9
:10461000AF1ABF0ACECFAF92BF92CF92DF92FF9276
:104620000F931F93CF93DF936C01EB018A010E94DC
:104630006A24F82E811123C00115110539F0F80103
:1046400080819181C81BD90BC80ED91EB12CA12C19
:104650002097A9F08091E80085FD22C08091E800B4
:104660008B778093E80001151105A1F0F801808196
:104670009181A80EB91EB182A08285E0F82E8F2DFF
:10468000DF91CF911F910F91FF90DF90CF90BF905E
:10469000AF9008950E946A248823D1F2F82EEFCFBC
:1046A0008091F100F60181936F012197FFEFAF1A1E
:1046B000BF0ACECFFC0180914C0290914D0286172B
:1046C0009707A0F06115710529F49091E8009E7795
:1046D0009093E80090E06115710551F4911108C0C4
:1046E0008091E80082FF34C080E00895BC01F2CFE1
:1046F000809145028823C1F18530C1F18091E800A5
:1047000083FD30C08091E80082FDEACF8091E8000F
:1047100080FFE1CF8091F3002091F200382F6115E6
:10472000710519F02830310558F091E02830310535
:1047300009F090E02091E8002E772093E800CBCF9D
:1047400081918093F100615071092F5F3F4FE7CF56
:1047500080914502882341F0853041F08091E80046
:1047600083FFBECF81E0089582E0089583E008953D
:10477000FC0180914C0290914D0286179707A0F0A2
:104780006115710529F48091E8008E778093E80027
:1047900090E06115710551F4911108C08091E80015
:1047A00082FF35C080E00895BC01F2CF80914502C0
:1047B0008823C9F18530C9F18091E80083FD31C0BB
:1047C0008091E80082FDEACF8091E80080FFE1CF90
:1047D0008091F3002091F200382F6115710519F0D6
:1047E0002830310558F091E02830310509F090E08B
:1047F0008091E8008E778093E800CBCF84918093FE
:10480000F1003196615071092F5F3F4FE6CF8091E3
:104810004502882341F0853041F08091E80083FF14
:10482000BDCF81E0089582E0089583E00895982F38
:10483000973028F08F708093E90081E0089590937D
:10484000E900242F762F50E0981731F07091EC009A
:104850002091ED005091F00021FD02C09F5FE8CF54
:104860003091EB003E7F3093EB003091ED003D7FC7
:104870003093ED003091EB0031603093EB0070939A
:10488000EC002093ED005093F0002091EE0027FD06
:10489000E5CF80E008958091460287FF13C08091A4
:1048A000E80082FF06C08091E8008B778093E800E3
:1048B00004C0809145028111F2CF08958091450294
:1048C0008823D9F38091E80080FFF8CF8091E80039
:1048D0008E77ECCF2091E4003091E50095E6A901B8
:1048E0002091EC00822F817020FF06C08091E800AB
:1048F00080FF06C080E008952091E80022FD1AC0E4
:1049000080914502882389F0853089F08091EB0001
:1049100085FD0FC02091E4003091E5004217530758
:10492000F9F29150E1F684E0089582E0089583E081
:10493000089581E008950E9409250E941125E0EE66
:10494000F0E0808181608083E8EDF0E080818F7706
:10495000808319BCA7EDB0E08C918E7F8C93808111
:104960008F7E80831092440208950F931F93CF93FC
:10497000DF930E9409250E941125C8EDD0E08881AF
:104980008F77888388818068888388818F7D8883FA
:1049900019BC1092450210924102109243021092EB
:1049A000420200EE10E0F80180818B7F80838881D5
:1049B0008160888342E060E080E00E941724E1EE9D
:1049C000F0E080818E7F8083E2EEF0E08081816084
:1049D0008083808188608083F80180818E7F8083DE
:1049E000888180618883DF91CF911F910F91089515
:1049F000E8EDF0E080818F7E8083E7EDF0E080815C
:104A00008160808384E082BF81E0809344020C94C3
:104A1000B524E8EDF0E080818E7F80831092E20083
:104A200008951092DA001092E10008951F920F92FB
:104A30000FB60F9211242F933F934F935F936F9371
:104A40007F938F939F93AF93BF93EF93FF93809147
:104A5000E10082FF0BC08091E20082FF07C08091DD
:104A6000E1008B7F8093E1000E9480278091DA0033
:104A700080FF19C08091D80080FF15C08091DA00B6
:104A80008E7F8093DA008091D90080FF96C080E10C
:104A900089BD82E189BD09B400FEFDCF81E080932C
:104AA00045020E94F5208091E10080FF19C08091AD
:104AB000E20080FF15C08091E2008E7F8093E200CB
:104AC0008091E20080618093E2008091D800806252
:104AD0008093D80019BC85E0809345020E9407218D
:104AE0008091E10084FF2BC08091E20084FF27C009
:104AF00080E189BD82E189BD89B5982F917080FFE1
:104B0000FBCF8091D8008F7D8093D8008091E10009
:104B10008F7E8093E1008091E2008F7E8093E2009F
:104B20008091E20081608093E200809141028823BD
:104B300009F449C084E0809345020E9408218091D5
:104B4000E10083FF29C08091E20083FF25C08091AE
:104B5000E100877F8093E10082E08093450210921C
:104B600041028091E1008E7F8093E1008091E2001C
:104B70008E7F8093E2008091E20080618093E2006A
:104B800042E060E080E00E9417248091F00088609D
:104B90008093F0000E940621FF91EF91BF91AF91A9
:104BA0009F918F917F916F915F914F913F912F9145
:104BB0000F900FBE0F901F90189519BC10924502D0
:104BC0000E94032170CF8091E30087FD93E09093D2
:104BD0004502B3CF1F920F920FB60F9211242F935D
:104BE0003F934F935F936F937F938F939F93AF9375
:104BF000BF93CF93DF93EF93FF93D091E900DF70E2
:104C00008091EC00C82FC17080FDC0E81092E900CF
:104C10008091F000877F8093F00078940E942E2688
:104C20001092E9008091F00088608093F000CD2B15
:104C3000CF70C093E900FF91EF91DF91CF91BF91C9
:104C4000AF919F918F917F916F915F914F913F9124
:104C50002F910F900FBE0F901F9018951F93CF9319
:104C6000DF93CDB7DEB7AA970FB6F894DEBF0FBEBD
:104C7000CDBF86E492E02091F100FC012193CF01A9
:104C8000F2E08E349F07B9F70E941D218091E80061
:104C900083FF1EC180914602909147029A3008F02E
:104CA00017C1E92FF0E0E85BF74D0C94C42780387A
:104CB00099F0823809F00CC180914A028F708730D8
:104CC00008F006C18093E9008091EB0085FB8827FE
:104CD00080F91092E90006C080914202909143024F
:104CE000911182609091E800977F9093E800809303
:104CF000F1001092F1008091E8008E77E5C08823E2
:104D000009F4D3C0823009F0E3C0809148028111D8
:104D1000D6C080914A028F702FEF280F263008F0FE
:104D2000D7C08093E9002091EB0020FFC8C09330EA
:104D300031F48091EB0080628093EB00C0C09091D1
:104D4000EB0090619093EB0021E030E001C0220F76
:104D50008A95EAF72093EA001092EA008091EB002E
:104D60008860EACF8111B4C0109148021F7780910A
:104D7000E3008078812B8093E3008091E800877FB7
:104D80008093E8000E944B248091E80080FFFCCFD4
:104D90008091E30080688093E30082E0111183E05A
:104DA0008093450295C08058823008F091C0809170
:104DB0004802909149028C3D23E09207A1F583E0DF
:104DC0008A838AE289834FB7F894DE01139620E044
:104DD0003EE051E2E32FF0E050935700E49120FFD2
:104DE00003C0E295EF703F5FEF708E2F90E0EA30E6
:104DF000C0F0C7968D939D932F5F243159F74FBF15
:104E00008091E800877F8093E8006AE270E0CE013D
:104E100001960E945A238091E8008B778093E800E6
:104E200057C0C096E7CF60914A0270914B02AE0125
:104E30004F5F5F4F0E944D22BC01892B09F448C08F
:104E40009091E800977F9093E80089819A810E9471
:104E5000B823E1CF8038E1F58091E800877F809327
:104E6000E800809141028093F10045CF811130C06C
:104E700090914802923060F58091E800877F80939E
:104E8000E800909341020E944B24809141028823C4
:104E900011F084E005C08091E30087FDFACF81E046
:104EA000809345020E94092113C0809148028130FD
:104EB00079F481E0933009F080E08093430210920E
:104EC000E9008091E800877F8093E8000E944B24EE
:104ED0008091E80083FF0AC08091E800877F80937B
:104EE000E8008091EB0080628093EB00AA960FB6F9
:104EF000F894DEBF0FBECDBFDF91CF911F91089513
:104F00000895CF93809145028823A1F0C091E900D4
:104F1000CF709091EC00892F817090FD80E8C82BB4
:104F20001092E9008091E80083FD0E942E26CF7048
:104F3000C093E900CF910895AA1BBB1B51E107C0A4
:104F4000AA1FBB1FA617B70710F0A61BB70B881F19
:104F5000991F5A95A9F780959095BC01CD010895A8
:104F600097FB072E16F4009407D077FD09D00E9416
:104F70009C2707FC05D03EF4909581959F4F08959E
:104F8000709561957F4F0895EE0FFF1F0590F49186
:104F9000E02D09946927962769277827872778279E
:104FA0000895F999FECF92BD81BDF89A992780B5F1
:104FB0000895A6E1B0E044E050E00C940B28A8E18D
:104FC000B0E042E050E00C940B28262FF999FECF78
:104FD00092BD81BDF89A019700B4021639F01FBA4C
:104FE00020BD0FB6F894FA9AF99A0FBE0895039669
:104FF000272F0E94E6270E94E527252F0E94E627FB
:10500000242F0C94E6270196272F0E94E6270C9464
:10501000E527DC01CB01FC01F999FECF06C0F2BD0A
:10502000E1BDF89A319600B40D9241505040B8F766
:105030000895F894FFCF580F650F8C0F980FA30FAA
:10504000AE0FB10FB40FB70F00100010BA0FBE0FA4
:10505000C60FD30FE00FE30FE60FF30F54165416ED
:10506000AC16AC16FE161A17811681162517B11745
:10507000C017C0178A188A18931893189518931890
:10508000931893188A188A189A18931893189A18CC
:1050900057267F2668277F266827B226D3266827CB
:0450A0002A2736275E
:1050A4002808641E140A321E000100010114024083
:1050B400209E207D207920752001E200E900EA008D
:1050C400B500B600B700CD008301CC008A0192017F
:1050D40094012102230224022502260227022A0225
:1050E400B300B4006F00700081828336323331F72D
:1050F4003534C6970001E200E900EA00B500B600C5
:10510400B700CD008301CC008A01920194012102F1
:10511400230224022502260227022A02B300B40035
:105124006F00700081828340227B8F04F203140499
:065134009703B003D00355
:00000001FF
