:100000000C946A020C94B1020C94B1020C94B102EB
:100010000C94B1020C94B1020C94B1020C94B10294
:100020000C94B1020C94B1020C9486250C945A26BF
:100030000C941F200C94B1020C94B1020C94B102E8
:100040000C94B1020C94B1020C94B1020C94B10264
:100050000C94B1020C9476200C94B1020C94B10271
:100060000C94B1020C94B1020C94B1020C94B10244
:100070000C94B1020C94B1020C94B1020C94B10234
:100080000C94B1020C94B1020C94B1020C94B10224
:100090000C94B1020C94B1020C94B1020C94B10214
:1000A0000C94B1020C94B1020C94B102D400CA00B9
:1000B000C000B600000000010000FFFF00000000CB
:1000C000000155FFFFFF000000000001AAFFFFFF35
:1000D00000000000000100FFFFFF0000000004001E
:1000E0000500060007000000080009000A000B00D8
:1000F00000001E001F0020002100115023002400DA
:100100002500260027000100010001000100000079
:1001100001000100010001000000010001000100D8
:100120002200125001000100010001000100010045
:1001300001000100010000000100010001000100B8
:100140000000010001000100230013500100010024
:100150000100010001000100010001000100000098
:100160000100010001000100000001000100010088
:1001700024001050010001000100010001000000F6
:100180000000000000002A2B2800000000000000F2
:1001900000000000000000000029000000002C1EEC
:1001A0003420212224342627252E362D3738271EA9
:1001B0001F202122232425263333362E37381F04CF
:1001C00005060708090A0B0C0D0E0F101112131467
:1001D00015161718191A1B1C1D2F3130232D350425
:1001E00005060708090A0B0C0D0E0F101112131447
:1001F00015161718191A1B1C1D2F3130354C00000D
:1002000000000000000000000000000000000000EE
:1002100000000000000000000000000000000000DE
:1002200000007E0F00D4FFFFFFC700000078000130
:1002300001010101010101010202020202020202A6
:100240000203030303030303030404040404040478
:10025000050505050506060606060707070707083C
:10026000080808090909090A0A0A0B0B0B0C0C0CEF
:100270000D0D0D0E0E0E0F0F0F1010111111121289
:1002800013131414151516161717181819191A1A06
:100290001B1B1C1D1D1E1E1F202021222223242467
:1002A000252626272829292A2B2C2D2D2E2F3031A3
:1002B0003232333435363738393A3B3C3D3E3F40B5
:1002C0004142434445464748494A4C4D4E4F5051A0
:1002D0005354555658595A5B5D5E5F61626465665A
:1002E00068696B6C6D6F7072737577787A7B7D7EE1
:1002F0008082838587888A8C8E8F91939596989A31
:100300009C9EA0A2A3A5A7A9ABADAFB1B3B5B7BA48
:10031000BCBEC0C2C4C6C9CBCDCFD1D4D6D8DBDD1C
:10032000DFE2E4E7E9EBEEF0F3F5F8FAFDFF1203A4
:10033000430043002000500072006F0074006F0003
:10034000000042034300680069006E006100740011
:1003500073007500200043006800690062006100BE
:100360002000280061007A0075006C0065006500BF
:100370002F006D006F006B00650073007500720048
:100380006100290000000403090409025B00030165
:1003900000A0FA0904000001030101000921110174
:1003A00000012240000705810308000A090401003A
:1003B00002030000000921110100012222000705AB
:1003C0008203200001070503032000010904020045
:1003D0000103000000092111010001227B00070533
:1003E000840320000A120110010000000809120015
:1003F000CC0100010200010660FF0961A101096250
:10040000150026FF00952075088102096315002656
:10041000FF00952075089102C005010902A1018520
:10042000020901A1000509190129081500250195F6
:1004300008750181020501093009311581257F9573
:10044000027508810609381581257F950175088197
:1004500006050C0A38021581257F9501750881066D
:10046000C0C005010980A101850319012AB7001543
:100470000126B700950175108100C0050C0901A186
:1004800001850419012AA002150126A00295017513
:10049000108100C005010906A101050719E029E73F
:1004A00015002501950875018102950175088101E6
:1004B0000507190029FF150026FF0095067508811C
:1004C0000005081901290595057501910295017529
:1004D000039101C011241FBECFEFDAE0DEBFCDBF14
:1004E00004B603FE27C08091510290915202A09160
:1004F0005302B09154028730904BA740B04BD1F4D7
:100500001092510210925202109253021092540211
:1005100014BE84B7877F84BF0FB6F894A8958091E6
:100520006000886180936000109260000FBEE0E080
:10053000F8E3099511E0A0E0B1E0E6E9F1E502C0D9
:1005400005900D92A639B107D9F722E0A6E9B1E0EE
:1005500001C01D92A135B207E1F70E9446220C941A
:1005600092280C940000CF92DF92EF92FF926B01E1
:100570007C0140E00E94431C682F80E00E94EF0D48
:1005800041E0C701B6010E94431C682F81E00E9430
:10059000EF0D42E0C701B6010E94431C682F82E0C4
:1005A0000E94EF0D43E0C701B6010E94431C682F73
:1005B00083E00E94EF0DC701B601FF90EF90DF903E
:1005C000CF9008958CEA90E09093A9018093A801C0
:1005D000089581E0089581E008950C94EB02089558
:1005E0000C94EF021F93CF93DF9300D000D00F92B3
:1005F000CDB7DEB749835A836B833091C5018981BA
:100600009A8131111DC06623B9F02223A9F00E94FE
:10061000601D182F682F89819A810E94091D6981A8
:100620007A81812F0F900F900F900F900F90DF9194
:10063000CF911F910C9427110E94371D182FEFCFD7
:100640000E94601D69817A81EDCFFC01262F4081D7
:1006500051816281738184810C94F202CF93DF9384
:10066000EC0160E00E942503BE01DF91CF910C9464
:10067000F0028F929F92AF92BF92CF92DF92EF9251
:10068000FF920F931F936B017C0181E090E0A0E04B
:10069000B0E04C015D0104C0880C991CAA1CBB1C75
:1006A0004A95D2F7B501A4014C015D0104C0880C44
:1006B000991CAA1CBB1C2A95D2F7482959296A29DA
:1006C0007B2904C0880F991FAA1FBB1F0A95D2F768
:1006D0008A019B010C211D212E213F2104171507A2
:1006E0002607370789F48C299D29AE29BF29BC012B
:1006F000CD011F910F91FF90EF90DF90CF90BF90B1
:10070000AF909F908F90089580959095A095B0950B
:100710008C219D21AE21BF21EACF0F93382F262FA8
:1007200060910D0270910E0280910F029091100263
:10073000042F432F0E9439030F910C94321C0E9406
:10074000E0060C9405070C94080708950E94D81839
:100750000E94A5032FEF84E39CE02150804090404D
:10076000E1F700C000000C949A200F931F93CF93E1
:10077000DF938C0161E00E942503EC01B8010E9427
:10078000100F882309F441C0B801CE010E94ED0288
:100790008823D9F1B801CE010E945E128823A9F105
:1007A000B801CE010E94B012882379F1B801CE01C0
:1007B0000E94D313882349F1B801CE010E94110E83
:1007C000882319F1F8018281882361F0CA35FDE59B
:1007D000DF0721F170F4C115ECE5DE07A1F0CE3D95
:1007E000DC45C9F0C801DF91CF911F910F910C94A6
:1007F000E902CB358DE5D807A1F0CC35DD4591F781
:100800000E94071EEFCF0E94A60380E0DF91CF91E8
:100810001F910F9108950E94731FF7CF0E94101E21
:10082000E1CF0E94131EDECFDF92EF92FF920F9373
:100830001F93CF93DF93E82FF0E0E258FE4FD49060
:10084000282F26952695269530E0F901E25EFD4F8A
:100850000491877010E0082E02C0159507950A9440
:10086000E2F701701127F901E25FFD4FE490F12CEE
:10087000082E02C0F594E7940A94E2F791E0E92289
:10088000FF24F901E250FE4FC491D0E002C0D5959B
:10089000C7958A95E2F7C170DD270115110519F09A
:1008A00081EE0E946515E114F10419F086EE0E94B4
:1008B00065158D2D0E946416EF2819F086EE0E94B2
:1008C000F715012B19F081EE0E94F715CD2B51F091
:1008D0008CE2DF91CF911F910F91FF90EF90DF900D
:1008E0000C946416DF91CF911F910F91FF90EF90C0
:1008F000DF900895EF92FF920F931F93CF93DF93B2
:10090000EC01162F0AE08881882309F454C0813055
:1009100009F04EC08981813099F47E0122E0E20E17
:10092000F11C8A810E946416E7012196812F815073
:1009300050F3EFE9FFE03197F1F700C00000F7CF87
:10094000823041F47E0182E0E80EF11C8A810E942F
:100950006515EACF833041F47E01E2E0EE0EF11C32
:100960008A810E94F715E0CF843011F02196DDCF07
:100970002A81229690E080E0AE014F5F5F4F2053C6
:10098000330B2A30310548F0019778F2EFE9FFE0A8
:100990003197F1F700C00000F7CF089FB001099F21
:1009A000700D1124C901860F971F2981EA01E4CF38
:1009B0000E941404BACFDF91CF911F910F91FF9045
:1009C000EF90089560E00C947A0408950C94E50487
:1009D00081E008950C94E804CF93C82F0E94E604A8
:1009E0008C2FCF910C94EA04CF93DF930E942711B0
:1009F0000E94EE05EC01811521E5920708F042C046
:100A0000811530E5930708F09DC0883E910530F5CB
:100A1000803E910508F092C0883A910588F4853AA5
:100A2000910508F084C08130910509F487C00097D2
:100A300009F484C0049708F081C0D0E0C0E07EC013
:100A40008F3B9105D0F7C85AD0E0CC0FDD1FC65EB2
:100A5000DE4F0990D881C02DD46470C081159042BA
:100A600050F4C11581E0D80708F068C0C03FD10537
:100A700020F3D06563C0C11590E4D907F0F2DF70B0
:100A8000D06A5CC0811525E5920700F5811534E533
:100A9000930708F08BC0811543E5940708F073C0F5
:100AA000C11582E5D80708F469C0CE018370992783
:100AB00021E030E002C0220F331F8A95E2F7C6958D
:100AC000C69580E2C89FE001112454C0C11599E584
:100AD000D907A8F4C11528E5D20708F06CC0C115E4
:100AE00036E5D30708F0A9CF8C2F0E948506C82FC2
:100AF000D0E0DC2FCC27CC27DF71D0621FC0C1151E
:100B00004AE5D40708F45CC0CE01905681159042A6
:100B100008F093CF8D2F8F710E94850690E0982F5B
:100B2000882788279F719C012C2BE901E6CFC55AA5
:100B3000D0E0C85BDE4FC881D0E0D064CE01DF9149
:100B4000CF910895E4E096958795EA95E1F7837053
:100B50002C2F26952695237040E2249F9001112486
:100B6000382B8C2F8370C1E0D0E002C0CC0FDD1F8A
:100B70008A95E2F7C22BD32BDC68E0CFDC2FCC27A1
:100B8000C16FD06ADBCF8370992721E030E002C0CB
:100B9000220F331F8A95E2F7C695C69590E2C99F4A
:100BA000E0011124C22BD32BDA68C8CFD82FCC2771
:100BB000C46FD06AC3CFDC2FCC27C06FD06ABECF42
:100BC0008C2F8F700E94850634E0D695C7953A9594
:100BD000E1F7CF709C2FEC01D069B0CF823891053E
:100BE000B1F1B0F48133910509F475C048F489324C
:100BF000910509F469C08A32910509F473C008951A
:100C00008533910509F459C08933910501F108959F
:100C1000833E9105A9F138F4803E9105F9F0823EBA
:100C2000910549F10895863E9105A9F1873E910508
:100C3000C9F1843E910519F520912F0221FF1FC0B3
:100C400080912E0284FD14C087EE90E008952091DB
:100C50002E022370A1F080EE90E0089520912E02E4
:100C600020FD47C030912F0230FF09C024FF44C04F
:100C700090E080E004C020912E0222FDF7CF08957D
:100C800020912E0222FD3BC030912F0230FDE3CF98
:100C900024FFF5CFEDCF20912E0223FFF0CF24FDCE
:100CA000E7CFD2CF20912E0223FD2CC030912F020E
:100CB00031FFEECF84EE90E0089520912E0225FFC3
:100CC000DECF89E290E0089520912E0225FFD7CF54
:100CD00085E390E0089520912E0226FFD0CF8AE28E
:100CE00090E0089520912E0226FFC9CF81E390E085
:100CF000089589E390E0089583EE90E0089582EEF0
:100D000090E0089586EE90E0089590912E0292FF73
:100D100006C0282F28712830F9F4877F846093FF5C
:100D200006C0282F28712831F1F4877E8461209134
:100D30002F0220FF06C0382F38713830D9F4877F52
:100D4000816021FF06C0282F28712831D1F4877EC9
:100D5000816194FD877E0895282F24712430F9F64F
:100D60008B7F8860DCCF282F2471243101F78B7EA4
:100D70008861DDCF382F3171313019F78E7F88606F
:100D8000E0CF282F2171213121F78E7E8861E1CFBC
:100D90000C94EA0E0E9461078FE39CE90197F1F73A
:100DA00000C000000E94610780E00E940A0780FFE7
:100DB00004C00E94C8060C949A2008950C94CA0698
:100DC0000E94CE1E811102C00E94731F0E94D91E74
:100DD000809322020E94E11E90932F0280932E02A4
:100DE0000E94DE060E94DD1E682F70E090E080E029
:100DF0000E94F81B60910D0270910E0280910F020B
:100E0000909110020C94301C08950C9404070895DE
:100E10000C940707E82FF0E0EC5CFD4F808108950B
:100E2000089580EA8A95F1F7089500C008950C941A
:100E30001107F894E82FE295EF70F0E031A1282F28
:100E40002F7081E090E001C0880F2A95EAF7982F73
:100E50009095932391A392A1892B82A378940895CE
:100E600085E30E94190784E30E94190786EC0E941B
:100E7000190787E90E94190786E30E94190782E390
:100E80000E94190783E30E94190781E30E94190752
:100E900087EF0E941907A0E3B2E01C92E4E3F2E0BE
:100EA000108211961C921197118212961C92129721
:100EB000128213961C92138284E00E94D8070C942D
:100EC0009F03CF92DF92EF92FF920F931F93CF93E6
:100ED000DF93C0E5D1E000E312E0D12CEE24E394EF
:100EE000F12C8991F894E82FE295EF70F0E021A1C0
:100EF0008F70A70102C0440F551F8A95E2F7CA01FF
:100F0000922F982B91A392A18095892382A3789404
:100F10000E941507EBE4F1E030E020E0C12C4191A4
:100F2000A42FA295AF70B0E090968C9190E04F7096
:100F300002C0959587954A95E2F780FD35C08E2DC4
:100F4000022E01C0880F0A94EAF7C82A2F5F3F4F8C
:100F50002530310521F7FE01319780810E94190764
:100F60000E941707F8018081C81601F1C08281E054
:100F7000D82A0F5F1F4FF1E0C435DF0709F0B1CF6A
:100F80002D2D44E064E372E080E392E00E94D907F3
:100F90000E94A3038D2DDF91CF911F910F91FF90A0
:100FA000EF90DF90CF90089580E0CFCF80E0E0CF4A
:100FB0000895FF920F931F93CF93DF93F82E092F7D
:100FC000162FD72FC42F222349F081E080939A0156
:100FD0000E944F20909399018093980180919A01EB
:100FE0008823A1F080919801909199010E94672037
:100FF000069760F0EF2DF02FA12FBD2FCE0FDF2F22
:10100000D11DEC17FD0741F410929A01DF91CF91A9
:101010001F910F91FF90089581918D93F2CF809150
:10102000A10180FF12C06091050185E0689FB001B9
:101030001124759567957595679560387105A8F5C4
:1010400061157105A1F1862F089581FF09C0609196
:10105000050185E0689FB001112475956795EDCF76
:101060006091050182FD0AC08091A0018823D1F022
:101070009091040160910501891728F085E0689F2F
:10108000B0011124DACF869FB001112485E0869F3C
:101090009001879F300D1124692F70E0C9010E94D3
:1010A0002028CBCF65E070E0CECF8FE7089581E0B8
:1010B00008958091A10180FF0CC06091010170E052
:1010C00075956795759567956115710549F1862F39
:1010D000089581FF06C06091010170E075956795E4
:1010E000F3CF6091010182FD0BC090919F01992384
:1010F000A1F06091000180910101961738F0682FEE
:1011000070E06038710500F38FE70895899FC00192
:10111000112470E00E942028F4CF61E070E0D7CF66
:1011200081E00895803F31F40E940F0881958093FB
:10113000A5010895813F19F40E940F08F8CF823F5E
:1011400031F40E940F0881958093A4010895833F94
:1011500019F40E940F08F8CF893F29F40E9459081A
:101160008093A60108958A3F21F40E945908819531
:10117000F7CF8B3F31F40E94590881958093A701E6
:1011800008958C3F19F40E945908F8CF9CE0980FFD
:10119000953070F4845F990B21E030E001C0220F9C
:1011A0008A95EAF78091A301822B8093A301089589
:1011B0008D3F31F48091A10181608093A101089558
:1011C0008E3F21F48091A1018260F7CF8F3FB9F764
:1011D0008091A1018460F1CF4091A401803F59F436
:1011E0008091A50187FF0DC01092A50141110BC090
:1011F0001092A00108C0813F81F48091A5011816CA
:101200009CF3442381F08091A6019091A701892B42
:1012100009F05AC010929F010895823F49F447FF98
:10122000F0CF1092A4018091A5018111ECCFE0CF05
:10123000833F19F41416ACF3E4CF9091A601893FD3
:1012400029F41916F4F61092A601DBCF8A3F19F49F
:1012500097FFD7CFF8CF9091A7018B3F29F497FF45
:10126000D0CF1092A701CDCF8C3F19F41916CCF333
:10127000C8CF9CE0980F953090F4845F990B21E0E3
:1012800030E0B90102C0660F771F8A95E2F7CB0103
:1012900080959091A30189238093A301B2CF8D3FC4
:1012A00031F48091A1018E7F8093A101AACF8E3F5E
:1012B00021F48091A1018D7FF7CF8F3F09F0A1CF5D
:1012C0008091A1018B7FF0CF08950E944F209C0157
:1012D0009091A4018091A501982B21F030939E015B
:1012E00020939D019091A6018091A701982B21F058
:1012F00030939C0120939B0182EA91E00C94191495
:10130000EF92FF920F931F93CF93DF9300D000D003
:1013100000D0CDB7DEB786E0E2EAF1E0DE0111965B
:1013200001900D928A95E1F7E090A401F090A5015B
:101330000091A6011091A7011092A4011092A5019D
:101340001092A6011092A7018E2D8F2991F0809105
:101350009D0190919E010E946720AC019091A00197
:10136000992309F43FC0809106018417150608F4FB
:1013700047C0802F812B91F080919B0190919C011F
:101380000E946720AC0190919F01992309F477C0D6
:10139000809102018417150608F47FC08091A40192
:1013A0009091A501892B9091A601892B9091A7017D
:1013B000892B11F00E94650986E0FE013196A2EAB0
:1013C000B1E001900D928A95E1F726960FB6F89458
:1013D000DEBF0FBECDBFDF91CF911F910F91FF9068
:1013E000EF900895209107018AE0289F9001112431
:1013F0002417350708F0BDCF9F5F9093A00102C06E
:101400009F3FD1F7EE2059F00E940F089FEF1E1466
:101410000CF491E0899F802D11248093A401FF207A
:1014200059F00E940F089FEF1F140CF491E0899F60
:10143000802D11248093A5013091A401332309F458
:1014400098CF2091A501222309F493CF45EB3403D3
:10145000C0011124992359F09093A40145EB240372
:1014600090011124332339F03093A50182CF81E01C
:101470008093A401F3CF81E08093A5017ACF2091DE
:1014800003018AE0289F900111242417350708F0F2
:1014900085CF9F5F90939F0102C09F3FD1F70023AC
:1014A00059F00E9459089FEF10160CF491E0899FA3
:1014B000802D11248093A601112359F00E94590810
:1014C0009FEF11160CF491E0899F802D11248093D9
:1014D000A7013091A601332309F460CF2091A70121
:1014E000222309F45BCF45EB3403C0011124992377
:1014F00059F09093A60145EB240390011124332366
:1015000039F03093A7014ACF81E08093A601F3CF51
:1015100081E08093A70142CF86E0E2EAF1E0DF01BB
:101520001D928A95E9F71092A00110929F011092E6
:10153000A1010895EF92FF920F931F93CF93DF9332
:10154000EB01E82FD11110C0442321F0F0E0E25D5F
:10155000FD4FE4916E2F7E2F8E2FDF91CF911F9143
:101560000F91FF90EF9008950D2F10E0282F30E09D
:10157000442329F0225D3D4FF901249130E0F6E04B
:10158000CF9FC0011124EFEFF0E0BF010E940C28B3
:10159000AB018C2F90E0880F991FA5E5A49FB001A7
:1015A000A59F700D1124861B970B982F990F980FEC
:1015B000BF01601B710B629FD001639FB00D729FD2
:1015C000B00D11248B2F9D9FB0011124672F772719
:1015D000EF01C61BD70BBE01629FE001639FD00DD8
:1015E000729FD00D11247F01E91AF108E09EB0012D
:1015F000E19E700DF09E700D1124672F7727E61B7A
:10160000F70BE29F8001E39F100DF29F100D112454
:10161000E12F722F4230510599F048F441155105E0
:1016200069F04130510581F0EB2F8D2F07C0443018
:10163000510569F080F046305105B1F76E2F8DCF1E
:10164000E22F7B2F812FFACFE22F7D2FF7CFEB2FC9
:10165000822F712FF3CF7B2F822FED2FEFCF41E021
:101660000C949A0A0C942F0BCF93DF93762FE901F9
:10167000682F842F0E94320B798368838A83DF91DD
:10168000CF9108954D3308F04CE30C94340B8091C6
:101690003802982F9E7F71F48091380281708260A9
:1016A0008093380280913B028D3318F08CE3809355
:1016B0003B020895843080F7F5CF88E090E00C94E9
:1016C0005228CF92DF92EF92FF926B017C010E9431
:1016D000470BB701A60188E090E0FF90EF90DF9004
:1016E000CF900C94702860913802709139028091EB
:1016F0003A0290913B020C94610BE8E3F2E083E044
:10170000808311828FEF82838CE3838314826081D4
:101710007181828193810C94610B8091380280FFEA
:1017200002C08695089580E0089590913C02933020
:1017300018F49F5F90933C02882351F06091380227
:101740007091390280913A0290913B020C94610BA6
:10175000089581E00C94950B90913C02992319F027
:10176000915090933C02882351F06091380270911F
:10177000390280913A0290913B020C94610B0895DA
:1017800081E00C94AC0B80913C02089580933C0264
:10179000662351F0609138027091390280913A02CB
:1017A00090913B020C94610B089560E00C94C60B81
:1017B00080913902089580913A02089580913B0208
:1017C000089521E030E001C0220F8A95EAF7909158
:1017D000AD01922381E009F480E0089570E00C945B
:1017E0008D0E6F927F928F929F92AF92BF92CF9207
:1017F000DF92EF92FF920F931F93CF93DF9300D06E
:1018000000D00F92CDB7DEB7709009012091380259
:1018100020FF26C0C090A801D090A901C114D10416
:1018200091F58091080133E0839FC0011124672D59
:10183000835C9D4F0E94EE0B0F900F900F900F90C6
:101840000F90DF91CF911F910F91FF90EF90DF905C
:10185000CF90BF90AF909F908F907F906F900895A2
:10186000E0910A0180910B01E817A0F68E2F90E01D
:10187000FC01EE0FFF1FE80FF91FE35CFD4F118223
:1018800010821282C7CF20FFCCCFF12CE12C43E095
:10189000642E8E2D0E94E10B882309F43CC0F701D1
:1018A000EE0FFF1FEC0DFD1DA590B490A114B10427
:1018B00009F4B7CF45E050E0B501CE0101960E9492
:1018C000412809810F3F39F18A81800F9927991F9B
:1018D0001816190614F481E090E04C01880C991C4C
:1018E000880D991D9C01235C3D4F4901069D800197
:1018F0001124035C1D4F0815190520F035E0A30ED7
:10190000B11CD8CF98014D816C818B810E94420B14
:101910000D5F1F4FF0CF8FEFE81AF80A28E0E216AC
:10192000F10409F0B6CF7DCFE8E3F2E080818E7F4D
:10193000808360817181828193810E94610B2FEF8E
:1019400080E792E0215080409040E1F700C0000025
:101950000C94F10BE8E3F2E080818E7F80832FEF1F
:1019600080E792E0215080409040E1F700C0000005
:101970000C94F10B9091380290FF14C0E0910A0191
:1019800090910B01E91760F42E2F30E0F901EE0F72
:10199000FF1FE20FF31FE35CFD4F818360834283EF
:1019A0000C94F10B0895EF92FF920F931F93CF9336
:1019B000DF9300D00F92CDB7DEB7F82E062F142F8D
:1019C000E22E8091380280FF28C0E82FE695F0E0F3
:1019D000EC5AFE4F90819093AB018E7F823059F488
:1019E0009E012F5F3F4F8F2D0E94420B4B816981DB
:1019F0008A810E94BA0CF092390200933A02109345
:101A00003B02EE2051F060913802709139028091D2
:101A10003A0290913B020E94610B0F900F900F9041
:101A2000DF91CF911F910F91FF90EF900895E8E320
:101A3000F2E09181282F4381628188E0890F0C9424
:101A4000D30C81E00C94170DE8E3F2E09181282F8C
:101A50004381628188EF890F0C94D30C81E00C9450
:101A6000240DE8E3F2E0628121E1620F08F46FEFF8
:101A7000282F438181810C94D30C81E00C94310D8B
:101A8000E8E3F2E0628121E1621B08F460E0282FC4
:101A9000438181810C94D30C81E00C94400DE8E3E8
:101AA000F2E0438121E1420F08F44FEF282F6281D9
:101AB00081810C94D30C81E00C944F0DE8E3F2E0AB
:101AC000438121E1421B08F440E0282F628181819B
:101AD0000C94D30C81E00C945E0D20E00C94D30C9C
:101AE0008091380280FF18C0817082608093380234
:101AF000662351F0609138027091390280913A0268
:101B000090913B020E94610B40913B0260913A022E
:101B1000809139020C946D0D0895682F81E00C942A
:101B2000700D81E00C948D0D682F90913802969580
:101B30008FEF890F09F481E00C94700D81E00C9413
:101B4000940D61E00C94700DE8E3F2E08081816017
:101B5000808386950C94A10D8091380280FD0C94B1
:101B6000940C0C94A40D60E00C94700D8091AA016B
:101B700081112CC00E94CE1E811104C00E94731FCF
:101B80000E947D0B0E945D0B6093380270933902B6
:101B900080933A0290933B026E7F61F40E947D0B2A
:101BA0000E945D0B609338027093390280933A0271
:101BB00090933B020E94470B8091380280FF03C044
:101BC00086950E94B30D81E08093AA010895E8E311
:101BD000F2E080818160808386950C94B30D21E0D2
:101BE00030E0A90102C0440F551F8A95E2F7CA01EF
:101BF0002091AD01662361F0822B8093AD0180912D
:101C0000AC01811108C08091380286950C94B30D07
:101C100080958223F2CF0895FA01811101C0FB0162
:101C200009940F931F93CF938C01FB01C281CC23A6
:101C300009F471C00E94161E8272093CFCE51F0760
:101C400009F460C048F5053CECE51E0709F455C0F1
:101C500078F4033C9CE5190709F443C008F048C038
:101C6000023C1C45D9F18C2FCF911F910F91089503
:101C70004CE45DE06DE37DE0073C9CE51907A9F1CC
:101C800041E25DE06EE27DE0083C1C4570F14DE311
:101C90005DE06CE47DE029C00D3CFCE51F07B9F177
:101CA000A0F440EC5BE069EA7BE00B3CECE51E074E
:101CB000E1F04BE55DE06AE67DE00C3C1C45A8F0F8
:101CC00049EA5BE060EC7BE010C0063D8CE518075C
:101CD00018F00D351D4539F6C0E0C5CF0E94AC0D9A
:101CE000FBCF4EE95DE061E97DE00E940C0EF4CF90
:101CF00041E95DE06EE97DE0F8CF4EE25DE061E252
:101D00007DE0F3CF4AE65DE06BE57DE0EECF81E07C
:101D10000E94A10DE1CFC1E0A6CF539A4BB1477FFE
:101D20005BB15860EFB7F8949B01220F331F260F69
:101D3000371F280F391F2817390741F4EFBF8FE5E8
:101D400094E00197F1F700C000000895DC016D9167
:101D5000CD0178E05BB9000000C067FF4BB9660FAA
:101D6000000000C000C000C04BB900C07A9591F7D8
:101D7000E2CF83E290E00E944A28813289F484E233
:101D800090E00E944A28873059F485E290E00E9452
:101D90004A2891E0833209F090E0892F81700895FC
:101DA00080E0FCCFCF93C82F6FEF811161E283E217
:101DB00090E00E945E286FEFC11167E084E290E03E
:101DC0000E945E286FEFC11163E285E290E0CF913F
:101DD0000C945E2880E00E94D20E0C94C81E0895D8
:101DE00086E290E00E944A28682F70E090E080E050
:101DF000089586E290E00C945E280E94EF0E0E9407
:101E0000B90E81110CC060E070E0CB010E94F90EA8
:101E10000E94A1100E948B1181E00C94D20E0895B3
:101E2000CF93FB01C281CC2309F19C0122513F4594
:101E30002031310520F582510E949B11C0E08C2F8A
:101E4000CF91089581E00E946D1C43E062E081E043
:101E50000E948D03F3CF81E00E948E1C43E062E07C
:101E600081E00E948D03EBCF82E0F6CF8031FFE569
:101E70009F0789F381319F45B9F3C1E0E0CF8031FD
:101E8000EFE59E07F9F281319F45C9F682E0DBCF8D
:101E90002FEFFC0120830895CF93DF93EC0188811D
:101EA0008138A9F028F4803871F0DF91CF9108953E
:101EB000823881F08338C9F70E94D80B89830E9449
:101EC000DB0B8A83F2CF0E94DE0B8983EECF0E9468
:101ED0008D0BFBCF0E94C30BF8CFCF93DF93EC01A8
:101EE00088818138E1F028F4803869F0DF91CF9162
:101EF0000895823811F18338C9F70E94DE0B482F0C
:101F00006A81898108C0D9810E94DB0BC82F0E9499
:101F1000D80B4D2F6C2FDF91CF910C946D0D8981D3
:101F20000E94B30D8981811104C0DF91CF910C947F
:101F3000AA0CDF91CF910C94E70D8981DF91CF91AD
:101F40000C94D50BEF92FF920F931F93CF93DF93D7
:101F5000EC01062FDC01ED91CD01E150E33108F0F9
:101F6000ADC0F0E0EC56F74D0C943428198289E0AE
:101F70008A83602FCE01DF91CF911F910F91FF9047
:101F8000EF900C943B218981823069F0833071F0AD
:101F90008130D9F40E945B200E943A286A837B83B7
:101FA0008C839D83E6CF0E94F00EF6CF7E01B2E0D7
:101FB000EB0EF11C10E0812F0E940A07F7018193BC
:101FC0007F011F5F1430B9F7D4CF602FCE010E947C
:101FD000480FCFCF89818230C1F76A817B818C81A4
:101FE0009D810E943A280E94F90EC3CF4B816A81DD
:101FF00089810E9473109827892798279D838C8355
:10200000B8CF2C813D813227232732274B816A812B
:1020100089810E948C10ADCF0E94A110AACF0E948E
:102020006D0FA7CF0E944C0FA4CF0E94730BA1CFBE
:102030000E94341189839DCF0E94361198278927E9
:1020400098279A83898395CF6B8170E089819A81E3
:10205000AE014C5F5F4F9827892798270E9439115E
:1020600088CF6B8170E089819A81AE014C5F5F4FB0
:102070009827892798270E9460117BCF0E948B1197
:1020800078CF0E946110D6CF6B8170E089819A81F0
:10209000AE014C5F5F4F9827892798270E94D9107F
:1020A00068CF6B8170E089819A81AE014C5F5F4F90
:1020B0009827892798270E94FE105BCF8FEF88838F
:1020C00058CF84E0089550E0440F551F9AE0699F6F
:1020D000400D511D112498E2899F400D511D11247E
:1020E000CA01879608950F931F93CF93DF930E94A1
:1020F00063108C010E944A28C82FD0E0DC2FCC2727
:10210000C80101960E944A289E01282BC901DF912F
:10211000CF911F910F9108950F931F93CF93DF934A
:10212000122F032F0E946310EC01602F0E945E2883
:10213000612FCE010196DF91CF911F910F910C94E9
:102140005E28AF92BF92CF92DF92EF92FF921F93E1
:10215000CF93DF938EEDC82E80E0D82ED0E07601AD
:10216000C0E014C0F50125913491412F6C2F8D2FC3
:102170000E948C1082E0A80EB11C1F5F153091F7F1
:102180008AE0E80EF11CCF5FC43019F0570110E06F
:10219000E9CFDF5F88E2C80ED11CD43001F7DF91B0
:1021A000CF911F91FF90EF90DF90CF90BF90AF90B5
:1021B0000895EF92FF920F931F93CF93DF93EC015B
:1021C0008A017C01E60EF71ECE018796CE15DF054B
:1021D00039F4DF91CF911F910F91FF90EF90089507
:1021E000C03AD10540F40E944A28F80180830F5F6D
:1021F0001F4F2196E9CFF8011082F9CFCF92DF92DD
:10220000EF92FF920F931F93CF93DF937C016A01AC
:102210008C01060F171FEC01CE018796C017D1075E
:1022200049F4DF91CF911F910F91FF90EF90DF90D4
:10223000CF900895C03AD10540F4FE01EE19FF0990
:10224000EC0DFD1D60810E945E282196E5CF462F92
:10225000843038F4743028F4653018F4672F0C9407
:10226000731090E080E0089580E1089589E393E0A1
:102270000895EF92FF920F931F93CF93DF93EC019A
:102280008A017C01E60EF71ECE0189539F4FCE15C1
:10229000DF0539F4DF91CF911F910F91FF90EF90FF
:1022A0000895C93323E0D20740F40E944A28F80178
:1022B00080830F5F1F4F2196E7CFF8011082F9CF7F
:1022C000CF92DF92EF92FF920F931F93CF93DF9302
:1022D0007C016A018C01060F171FEC01CE018953A6
:1022E0009F4FC017D10749F4DF91CF911F910F91F4
:1022F000FF90EF90DF90CF900895C93323E0D2078D
:1023000040F4FE01EE19FF09EC0DFD1D60810E94F5
:102310005E282196E3CFCF93DF93C7ECD0E060E057
:10232000CE010E945E282196C11584E0D807B9F736
:10233000DF91CF910895DF92EF92FF920F931F9359
:10234000CF93DF9300D000D0CDB7DEB7F82E8FE06B
:102350008F1540F08FEF93E00E944A2807EC10E0C1
:102360008823C1F00F900F900F900F90DF91CF91C5
:102370001F910F91FF90EF90DF900895011584E079
:10238000180781F3C8010E944A28811101C0FA94FC
:102390000F5F1F4FF110F2CF19821A821B821C822D
:1023A000DD24D39478018FEFE81AF80AC8010E945F
:1023B0004A2889831A828823A9F29FEF980F9330C5
:1023C00078F48A83D9820E5F1F4FC7010E944A2882
:1023D0008B83882339F2CE0101960E94E204E2CF7A
:1023E0008701F9CF0F931F93CF93DF93C42FD22F81
:1023F000FC0182818823C9F04093B0010E944F20E4
:102400009093AF018093AE0180E28C0F883008F08A
:1024100050C0C77081E001C0880FCA95EAF7DF910C
:10242000CF911F910F910C946C161091B001141361
:1024300035C08091AE019091AF010E946720883C29
:10244000910560F5C0E2CD0F1D17B9F080E2810F54
:10245000883040F4177081E001C0880F1A95EAF7C0
:102460000E947316C83048F481E09D2F977001C018
:10247000880F9A95EAF70E946C16802F0E946416C6
:10248000C830B8F4D77081E001C0880FDA95EAF758
:10249000DF91CF911F910F910C94731680E28C0FF6
:1024A000883038F4C77081E001C0880FCA95EAF718
:1024B000EFCFDF91CF911F910F9108950F939C0162
:1024C000CB01233F4CE5340759F1A8F4283DFCE546
:1024D0003F0701F1293D4CE53407D1F1273D3C454B
:1024E00091F406E221EE41EE67ED7CE50E94F211E7
:1024F00080E00F910895253FFCE53F07E9F0B0F03B
:10250000263F3C45F9F0FC018281882339F1109285
:10251000B001EFCF07E225EE45EE68ED7CE5E6CFB2
:1025200006E221EE40EE63EF7CE5E0CF07E225EE28
:1025300044EE64EF7CE5DACF06E221EE42EE65EF91
:102540007CE5D4CF07E225EE46EE66EF7CE5CECF04
:1025500008E221E045EE69ED7CE5C8CF81E0C9CF16
:10256000CF93DF93EC01FB018281882309F419C129
:10257000C230FCE5DF07C0F1C6319CE5D90730F079
:102580009E012A5F3C452930310570F50E94E11E0D
:1025900090932F0280932E02C031ECE5DE0709F400
:1025A000CFC008F05BC0C8308CE5D80709F4B6C0CE
:1025B00088F5C430ECE5DE0709F4A8C0C0F4C230E9
:1025C0008CE5D80709F49CC080912E028260C3304C
:1025D000DC4509F498C080912E0290912F020E9450
:1025E000EF1E0E94D81880E0DF91CF91089580916E
:1025F0002E028061C630ECE5DE0709F484C08091CC
:102600002E028860C730DC4508F47DC080912E0220
:10261000806279C0CC308CE5D80709F489C070F4A9
:1026200080912E028C60CA30ECE5DE0709F46BC0A5
:1026300008F478C080912E028E7F65C0CE308CE584
:10264000D80709F479C080912E028B7FCF30DC450A
:1026500008F459C080912E028F7E55C0CB3FECE527
:10266000DE0709F457C030F5C3318CE5D80709F40B
:102670006FC078F4C131ECE5DE0709F465C0C23102
:10268000DC4509F0A8CF0E94D81880912E028F77E0
:102690003AC0C5318CE5D80709F462C008F476C0A9
:1026A00080912F028160CA3FDC4509F094CF80936E
:1026B0002F0291CFCF3FFCE5DF0709F44DC088F42E
:1026C00080912F028D7FCD3F9CE5D90781F38091CA
:1026D0002F028E7FCE3FDC4550F380912F02836026
:1026E000E6CFC130FDE5DF0709F459C008F444C066
:1026F00080E0C230DD4509F06ECF0E94751F6BCFC0
:1027000080912E02816080932E0265CF80912E02EF
:102710008460F9CF80912F028260C9CF80912E0210
:102720008064F1CF0E94D81880912E028068EBCF90
:1027300080912E028D7FE7CF80912E02877FE3CF9D
:1027400080912E028F7DDFCF80912E028F7BDBCF99
:1027500080912E02837FD7CF80912F028C7FA7CFCD
:1027600080912E0282FB992790F921E0922790FB1D
:1027700082F990FB83F9C7CF80912F02982F909513
:1027800091708E7F892B90FB81F991CF0E94D81890
:1027900090912E02892F97FB87F98058B4CF81E062
:1027A000ACCF81E021CFCF93DF93EB0186319C4505
:1027B00011F50E94161E9A81992399F08A7A91E068
:1027C00009F490E09093B101811109C089E20E945F
:1027D000D01D0E94591E80E0DF91CF91089585E3BE
:1027E000F6CF8091B101811104C089E20E94D71D0A
:1027F000F0CF85E3FBCF81E0EFCF9093B7018093DB
:10280000B6010895E091B601F091B701309721F03B
:102810000190F081E02D099480E00895E091B601E7
:10282000F091B701309721F00280F381E02D0994F7
:102830000895E091B601F091B701309739F022E0A8
:10284000DC012C930480F581E02D099408952091FA
:10285000B4013091B5012817390771F09093B50193
:102860008093B401E091B601F091B701309721F067
:102870000680F781E02D099408952091B2013091EE
:10288000B3012817390771F09093B3018093B20117
:10289000E091B601F091B701309721F00084F18505
:1028A000E02D099408950E945B206093C10170930C
:1028B000C2018093C3019093C4016093BD017093E2
:1028C000BE018093BF019093C001089585B78068D1
:1028D00085BF85B7806885BF0895089508950C94D5
:1028E0006D140C94E2020E94661486EC9EE10E9434
:1028F000AB200E946E140C946F1481E008950C9428
:102900007D14089508950E9481140C9482140E94ED
:1029100046200E9430070E94FD0E0E94B60D0C94C6
:102920007114AF92BF92CF92DF92EF92FF920F930A
:102930001F93CF93DF93CDB7DEB72A970FB6F894E6
:10294000DEBF0FBECDBF0E94610781110E945314EC
:1029500089EBA82E81E0B82E10E000E0C02E802F79
:102960000E940A07E82EF501F1905F01F81609F4BC
:102970004DC08091220281FD0E9410078F2D8E256F
:10298000D12CFF24F394982F9F21D9F10E947F141A
:10299000882399F0DE82CF82EF2081E009F480E085
:1029A00088870E944F208160782F9A8789874E817F
:1029B0005F8168858A850E942E15F801E754FE4FD5
:1029C0008081F826F0820E9480090E940214909172
:1029D000B801891791F10E9402148093B8012A96D8
:1029E0000FB6F894DEBF0FBECDBFDF91CF911F9120
:1029F0000F91FF90EF90DF90CF90BF90AF900C942D
:102A0000EC04D394FF0CF5E0DF12BDCF0F5F1F4F36
:102A10000430110509F0A2CF8FEF89838A831B82CE
:102A20000E944F208160782F9D838C8349815A8139
:102A30006B818D810E942E15C6CF2A960FB6F89411
:102A4000DEBF0FBECDBFDF91CF911F910F91FF90E1
:102A5000EF90DF90CF90BF90AF900895DF92EF920C
:102A6000FF920F931F93CF93DF93CDB7DEB72B97D2
:102A70000FB6F894DEBF0FBECDBF7A878B87F42EDA
:102A8000052F162FE72ED82E61110E94361E1E82AA
:102A90001D827E2DEC82DD824F2D502F612F8D2DDA
:102AA0009E812B960FB6F894DEBF0FBECDBFDF918F
:102AB000CF911F910F91FF90EF90DF900C944E1BE0
:102AC000FC01808191810C94A21DCF93C82F882393
:102AD00009F48BC08238C1F40E94021481FD85C0C4
:102AE00089E30E94D01D0E94591E2FEF81EE94E0D1
:102AF000215080409040E1F700C0000089E30E942F
:102B0000D71DCF910C94591E8338A1F40E94021452
:102B100080FD6BC083E50E94D01D0E94591E2FEFDF
:102B200081EE94E0215080409040E1F700C0000029
:102B300083E5E5CF8438A1F40E94021482FD55C0DC
:102B400087E40E94D01D0E94591E2FEF81EE94E071
:102B5000215080409040E1F700C0000087E4CFCFD3
:102B60008CEF8C0F813A90F46C2F80910D01909135
:102B70000E010E948C1F882329F08C2F0E94D71DE4
:102B80000E94591E8C2F0E94D01DBBCF80E28C0F5B
:102B9000883048F4C77081E001C0880FCA95EAF711
:102BA0000E94191EAECFEBE5EC0FE33040F4F0E0ED
:102BB000EC57FE4F808190E0CF910C942714E8E50C
:102BC000EC0FE73150F4F0E0EE0FFF1FEA5AFE4F32
:102BD00080819181CF910C943D14C03F30F08C2FB7
:102BE0000E949208CF910C946509CF910895882393
:102BF00009F452C0823871F40E94021481FF4CC063
:102C000089E30E94D01D0E94591E89E30E94D71DAE
:102C10000C94591E833859F40E94021480FF3CC062
:102C200083E50E94D01D0E94591E83E5EFCF8438B2
:102C300059F40E94021482FF2FC087E40E94D01D25
:102C40000E94591E87E4E2CF9CEF980F913AF0F270
:102C500090E2980F983050F4877091E001C0990F7E
:102C60008A95EAF7892F0E941F1ED2CF9BE5980F05
:102C7000933020F490E080E00C94271498E5980FAE
:102C8000973120F490E080E00C943D14803F20F0D8
:102C90000E94EC080C94650908951F93CF93DF936D
:102CA000182FEB010E946515209731F4812FDF91D9
:102CB000CF911F910C94F7158FE99FE00197F1F7E1
:102CC00000C000002197F0CF70E060E0893311F47C
:102CD00060E570E00C944D16882321F00E94191EC7
:102CE0000C94591E0895882321F00E941F1E0C94F5
:102CF000591E0895BF92CF92DF92EF92FF920F93E9
:102D00001F93CF93DF936C01D62FC72FFC01128145
:102D1000058102950F700E94EE1DE82E8823A1F018
:102D2000E12E112389F08C2F807F803429F080E2FE
:102D30008D0FE12C883040F082E00E94AA1E0E9494
:102D4000EE1D91E0E82EE926BC2EB2949FE0B92258
:102D5000FBE0FB1598F1EB2DF0E0E955F74D0C94F5
:102D600034280C2F0F70C07F11F00295007F1123C3
:102D7000A9F0002359F080E28D0F883010F0D111B6
:102D800009C0802F0E94191E0E94591E8D2F0E947B
:102D9000651514C0802F0E94291EF6CF8D2F0E942A
:102DA000F715002359F080E28D0F883010F0D11113
:102DB0002CC0802F0E941F1E0E94591E2B2D2850B0
:102DC000330B2430310520F40E9402140E94EC04DD
:102DD000EE2009F48EC10E94EA1D80FD8AC1F60131
:102DE00012820E94E41D0E946D1CC6010E949A1866
:102DF0000E94E41DDF91CF911F910F91FF90EF9002
:102E0000DF90CF90BF900C948E1C802F0E942F1EBD
:102E1000D3CF2C2F2F70F22EC07FC03219F0F29436
:102E200080EFF822DD2369F0D13049F1112391F1CF
:102E3000002351F1F601858180FFA8CF8F70858333
:102E400023C0112381F0011106C00E943C1E8F296E
:102E50000E946C16B3CF0130C1F70E943C1E8F292F
:102E60000E94421EABCF011106C00E944F1E8F2D43
:102E70000E947316A3CF013009F4A0CFF6CF11231F
:102E800029F0063008F09ACF8F2DE2CF053008F0F8
:102E900095CFEDCF002359F3D93349F4FFEF27EE57
:102EA00033E0F15020403040E1F700C000008D2FAA
:102EB0000E94F71583CF8C2F86958695837069F0D5
:102EC000813009F07BCF8D2F9C2F9370111102C0A0
:102ED00090E080E00E943D1471CF8D2F9C2F937065
:102EE000111102C090E080E00E94271467CF8D2F5F
:102EF000112329F00E9492080E9465095FCF0E9469
:102F0000EC08FACF8C2F837009F041C0111156CF15
:102F10004D2F429546954770440F440F0D2F0F706B
:102F200010E030E020E0042E04C0000F111F221F2B
:102F3000331F0A94D2F760E070E0CB01D4FF0FC0DA
:102F40006FE070E080E090E004C0660F771F881F9C
:102F5000991F4A95D2F76095709580959095C69582
:102F6000C695C370602B712B822B932BC23049F016
:102F700058F4C13019F00E940C1C20CF0E94FA1B9B
:102F80001DCF0E941E1C1ACF0E94F81B17CF8695DA
:102F9000112311F08C2F8170882309F40FCF4D2F4E
:102FA000429546954770440F440F0D2F0F7010E067
:102FB00030E020E0042E04C0000F111F221F331F39
:102FC0000A94D2F760E070E0CB01D4FF0FC06FE04D
:102FD00070E080E090E004C0660F771F881F991FA3
:102FE0004A95D2F76095709580959095C695C6954F
:102FF000C370602B712B822B932BC23049F058F495
:10300000C13019F00E94E41CD9CE0E94D21CD6CE49
:103010000E94F61CD3CE0E94321CD0CECF7011235A
:1030200029F08C2F0E946D1C8D2F12CF8D2F0E94A6
:1030300073168C2F0E948E1CC1CED23F89F160F492
:10304000D03FC9F0D13F29F1112309F442C0011149
:103050009DCE8C2F8F7121C0D33F39F1D43FA1F782
:10306000112369F1CF718C2F0E946D1C63E08C2FAE
:103070000E948F1EA3CE112341F0053008F09ECE92
:103080008C2F8F710E94B11C99CE063008F096CE1D
:10309000F7CF8C2F8F71112369F20E946D1C8ECE99
:1030A0008C2F8F711123C9F3C5CF112329F08C2FD9
:1030B0008F710E94581C82CE0E943E1C7FCE81E000
:1030C0000E94AA1E023008F479CE82E00E94AA1E55
:1030D00075CE002359F0D93309F0E9CE8FEF97EE82
:1030E000E3E081509040E040E1F7DFCE8C2F8F711C
:1030F000A1CFDF91CF911F910F91FF90EF90DF90C3
:10310000CF90BF9008950F931F93CF93DF93EC015F
:10311000688179818A810E94AC1D8C010E94081D02
:103120000E94F71BB801CE01DF91CF911F910F9143
:103130000C947A16CF93DF93EC018B819C81892BC1
:1031400029F08881998189238F3F59F4DF91CF91AC
:103150000895CE010E948318CE01DF91CF910C9487
:103160002E03CE010E94B5038111F3CF0E94EE1D04
:10317000882361F38A81882349F382E0DF91CF912C
:103180000C94AA1E90E080E00E94271490E080E05A
:103190000E943D140E94361E0E94391E0E94591E34
:1031A0000E948C0A0C9465090E94DE1D0C94C218C2
:1031B0000E94261E0C94D418E92FE295EF70E2507D
:1031C000EE3070F4F0E0ED54F74D0C943428803F6D
:1031D00019F020F4883E20F481E00895843FE1F363
:1031E00080E00895883EC0F3813FD1F7F5CF93FB8F
:1031F000882780F908950E94A21D0C94DC18CF93B3
:10320000DF9300D000D00F92CDB7DEB70F900F90B4
:103210000F900F900F90DF91CF910895CF93DF9390
:1032200000D000D000D0CDB7DEB726960FB6F89408
:10323000DEBF0FBECDBFDF91CF9108951F93CF9317
:10324000DF93C091C60116E08091C7018C1304C0C2
:10325000DF91CF911F910895D0E01C9FF0011D9F39
:10326000F00D1124E853FE4F40815181628173813A
:10327000848195810E940E192196C770E5CF4091F7
:10328000F8015091F9016091FA017091FB01809170
:10329000FC019091FD010C940E191F93CF93DF93C5
:1032A0008091FD01807FA9F48091FA01882389F043
:1032B0008091C601C091C7016091F8017091F90138
:1032C000A091FB01B091FC01D62FD72316E0C813C3
:1032D00004C0DF91CF911F91089590E0109711F0F5
:1032E000DF3F19F401968770F2CF189F9001199F64
:1032F000300D1124F901E853FE4F41814713F2CFFD
:1033000040814613EFCF42814111ECCF438154817C
:103310004A1B5B0B483C510528F78091FD018F70DB
:1033200080618093FD01F901E353FE4F80818F702E
:103330008061808388EF91E00E949A18DF91CF919D
:103340001F910C941E19AF92BF92CF92DF92EF9211
:10335000FF920F931F93CF93DF93CDB7DEB76197A3
:103360000FB6F894DEBF0FBECDBF8C0185E0F8012B
:10337000DE011D9601900D928A95E1F7F8014081DA
:103380005181E28088EFC82E81E0D82E6091FB0148
:103390007091FC016115710509F461C19091F8010A
:1033A0002091F901892F82238F3F09F458C1A3800E
:1033B000B480F090FA01F501E61BF70BFF2009F449
:1033C000FCC08091FD01382F307FE83CF10508F00A
:1033D000B2C0311179C0FE2C251323C0941321C033
:1033E000E1101FC08F7080618093FD010E943F1922
:1033F000C6010E949A188091FD01F80185838F2DE6
:1034000061960FB6F894DEBF0FBECDBFDF91CF91AE
:103410001F910F91FF90EF90DF90CF90BF90AF90F2
:103420000895AB2829F0842F85238F3F09F033C1FD
:1034300080E0F82FF170DF2E80FF3CC08091C60144
:103440002091C70136E0821315C04D875E878D85B8
:103450009E850E94A21D292F22952F702230F0F008
:10346000243018F59F70F1F0F8019581907FD1F428
:10347000D12C1EC090E0389FF001399FF00D11242F
:10348000E853FE4F6181651306C06081641303C079
:1034900062816E110FC001968770D5CF9F7011F0B9
:1034A000882331F3805E883018F3C8010E949A188F
:1034B000FD2CA5CFEE2009F4A2CF8091FD01816003
:1034C0008093FD01F12C9BCF251306C0941304C0FB
:1034D000F801EE2009F48DC04D875E878D859E85AD
:1034E0000E94FB18882319F1EE2009F18091FD015B
:1034F000803270F02091F8013091F90138872F83E4
:103500001986BB86AA868C87CE0107960E949A18D8
:1035100086E0F801A8EFB1E001900D928A95E1F7FD
:103520000E944D190E943F19FF24F39468CFC801EF
:103530000E949A18F9CF311113C07A2DB98AA88A3E
:103540006E2D89890E94FF1888EF91E00E949A18D9
:1035500086E0F60111928A95E9F70E943F19B2CFF1
:1035600025130FC094130DC0E1100BC0F801858323
:10357000C8010E949A1886E0F60111928A95E9F72F
:103580003ECF4D875E878D859E850E94FB188823E0
:1035900071F2EE2061F28091FD01803208F4B8CF23
:1035A0002091F8013091F9013A8329831B82BD8271
:1035B000AC828E83CE010196A9CFE83CF10508F0DC
:1035C00041C0FE2CEE2009F4B2CF25132AC094137B
:1035D00028C08091FD0180FD1BC0982F907FC1F015
:1035E000F8018583903F31F0982F907F905F8F7026
:1035F000892B8583C8010E949A1886E0F801A8EFFC
:10360000B1E001900D928A95E1F70E943F19F7CE43
:1036100086E0F801A8EFB1E001900D928A95E1F7FC
:10362000EECE4D875E878D859E850E94FB188111A9
:103630006FCF8091FD0181608093FD01C8010E94E0
:103640009A18DDCE7A2DB98AA88A6E2D89890E94B2
:10365000FF1886E0F60111928A95E9F7D6CFEE20A1
:1036600009F465CF4D875E878D859E850E94FB1886
:10367000F82E882309F45BCF86E0F801A8EFB1E0CB
:1036800001900D928A95E1F788EF91E00E94601514
:103690000E944D19BACF81E08E25CBCE1F93CF93D8
:1036A000DF93CDB7DEB72C970FB6F894DEBF0FBE11
:1036B000CDBF4F83588769877A878B879C87CE01D8
:1036C00007960E94A319882369F08A859B85892B18
:1036D00039F04F815885842F85238F3F09F071C0C1
:1036E00016E05FC086E0FE013796DE01119601907C
:1036F0000D928A95E1F78A859B85892B89F38F81C5
:10370000988589238F3F61F32091C70130E0C9017B
:103710000196877099274091C6014817190671F4E0
:103720000E94D8181092C7011092C60186E0E8EFF7
:10373000F1E0DF011D928A95E9F7D2CF96E0929FE2
:10374000D001939FB00D1124A853BE4FFE013196B6
:1037500001900D929A95E1F78093C7010E941E197E
:10376000BFCF819FC001112488539E4F0E94A3198F
:103770008823E9F0E091C6011E9FF0011124E8536F
:10378000FE4F4081518162817381848195810E94C5
:103790000E198091C60190E0019687709927809359
:1037A000C6018091C6019091C7018913DACF2C968A
:1037B0000FB6F894DEBF0FBECDBFDF91CF911F9142
:1037C000089569857A858B859C850E940E1988CF1E
:1037D00008950C94E81B0E94E91B609311027093FA
:1037E000120280931302909314020C94C21808954D
:1037F0000C94EB1B0F931F93009111021091120276
:103800002091130230911402602B712B822B932B89
:103810001F910F910C94EB1B0F931F9300911102BA
:10382000109112022091130230911402602371232F
:10383000822393231F910F910C94EB1B0F931F93E3
:103840000091110210911202209113023091140282
:1038500060277127822793271F910F910C94EB1BF0
:103860000C94B3020E94301C60930D0270930E0200
:1038700080930F02909310020C94C21860E070E0E5
:10388000CB010C94321C611571058105910529F459
:1038900081E0442361F080E00895DC01CB0104C0A5
:1038A000B695A795979587954A95D2F78170089513
:1038B0000F931F9341E050E060E070E08A019B01AC
:1038C00004C0000F111F221F331F8A95D2F7C901B0
:1038D000B8011F910F910C94321C0F931F9341E07C
:1038E00050E060E070E004C0440F551F661F771F72
:1038F0008A95D2F780910D0290910E02A0910F024D
:10390000B09110028A019B01082B192B2A2B3B2B0B
:10391000C901B8011F910F910C94321C0F931F9392
:1039200041E050E060E070E004C0440F551F661FA6
:10393000771F8A95D2F7CB01BA0160957095809573
:10394000909500910D0210910E0220910F0230917E
:10395000100260237123822393231F910F910C94F3
:10396000321C0F931F9341E050E060E070E004C010
:10397000440F551F661F771F8A95D2F780910D025D
:1039800090910E02A0910F02B09110028A019B014A
:10399000082719272A273B27C901B8011F910F9132
:1039A0000C94321C0F931F9300910D0210910E0284
:1039B00020910F0230911002602B712B822B932BE0
:1039C0001F910F910C94321C0F931F9300910D02C5
:1039D00010910E0220910F0230911002602371238A
:1039E000822393231F910F910C94321C0F931F93EA
:1039F00000910D0210910E0220910F0230911002E1
:103A000060277127822793271F910F910C94321CF6
:103A10000895E92FEE0FEE0F9E0F890F982F9770E4
:103A200041E001C0440F9A95EAF786958695869500
:103A300095E0899FF0011124E250FE4F30E020E034
:103A400070E05191DF011197CB01022E02C09695D3
:103A500087950A94E2F781708195852784238527CD
:103A60008C932F5F3F4F2530310559F70895E92F8B
:103A7000EE0FEE0F9E0F890F982F97708695869503
:103A8000869525E0829FF0011124E250FE4F50E020
:103A900040E080E0219130E0092E02C03695279564
:103AA0000A94E2F721703327042E01C0220F0A94F2
:103AB000EAF7822B4F5F5F4F4530510559F7089564
:103AC000BF92CF92DF92EF92FF920F931F93CF930B
:103AD000DF938C01C0900D02D0900E02E0900F0297
:103AE000F09010028091110290911202A0911302A5
:103AF000B0911402C82AD92AEA2AFB2ACFE1D0E0E1
:103B0000BC2ED701C6010C2E04C0B695A79597957B
:103B100087950A94D2F780FD0EC0219788F7B12CC3
:103B20008B2DDF91CF911F910F91FF90EF90DF9040
:103B3000CF90BF900895B8018C2F0E94F404019794
:103B400061F3EECFCF93DF93EC010E94601DBE01C5
:103B5000DF91CF910C94F4041F93CF93DF93EB018B
:103B60009091C501992331F0CB01DF91CF911F9145
:103B70000C94A21D882379F0CB010E94601D182FA0
:103B8000682FCE010E94091DBE01812FDF91CF91C8
:103B90001F910C94F404CB010E94371D182FF4CF11
:103BA000682F80910D0190910E010C94C21F682F17
:103BB00080910D0190910E010C94C41F80910D0114
:103BC00090910E010C94C61F8091150285958595E4
:103BD000859508958091150287700895909115023A
:103BE000977081E009F480E0089590912F0292FB94
:103BF000222720F9281751F080FB92F990932F0289
:103C000080912E0290912F020C94EF1E08958091C6
:103C10002F0282FB882780F991E089270C94F51DFB
:103C200081E00C94F51D80E00C94F51D809121023B
:103C3000089590912102892B809321020895809507
:103C400090912102982390932102089510922102CD
:103C5000089590912002892B8093200208958095E9
:103C600090912002982390932002089510922002B0
:103C7000089510921F0208958091160208950895E4
:103C80000C943F1E90912F0292FD08C09091160255
:103C9000981721F0809316020C94401E089580918D
:103CA0001602882329F01092160280E00C94401E20
:103CB0000895E0910D01F0910E0180912102808321
:103CC000E0910D01F0910E01808190912002892BED
:103CD0008083E0910D01F0910E01808190911F028F
:103CE000892B808390911602992381F0E0910D0138
:103CF000F0910E018081892B808380910D0190913C
:103D00000E010E947A1F81110E944F1E80910D01A9
:103D100090910E010C940E1408950C948C1E9091A9
:103D20002F0292FD10C098E0899F90011124622B10
:103D3000609315020E946D1C8091150285958595F2
:103D400085950C948D1E0C946D1C1092150280E0CC
:103D50000C948D1E909115028095892380931502F5
:103D6000282F277039F4282F082E000C330B9217B8
:103D7000130621F490912F0292FF07C08595859537
:103D800085950E948E1C0C94A51E089580E00895D0
:103D90006FEF7FEF90E080E00C947C2890E080E073
:103DA0000E94582821E08A3E9E4F09F020E0822F91
:103DB000089582E090E00C944A2883E090E00C940F
:103DC0004A28CF9384E090E00E944A28C82F82E2DC
:103DD00090E00E944A28982F8C2FCF910895CF937E
:103DE000C92F682F84E090E00E945E286C2F82E249
:103DF00090E0CF910C945E28AB01BC018FE090E085
:103E00000C947028AB01BC0183E190E00C94702805
:103E100060E070E0CB010C94021F60E070E0CB0129
:103E20000E94FC1E0C94081F6AEE7EEF90E080E07A
:103E30000E947C2860E082E090E00E945E2860E0C2
:103E400083E090E00E945E2810921102109212020C
:103E5000109213021092140260E084E090E00E943D
:103E60005E2860E082E290E00E945E2860E085E0EB
:103E700090E00E945E2860E086E090E00E945E286C
:103E80006FEF87E090E00E945E2840E050E0BA01CA
:103E900088E090E00E94702860E08DE090E00E9451
:103EA0005E2840E050E0BA0188E190E00E9470286E
:103EB00060E087E190E00E945E2840E050E0BA01B7
:103EC0008CE190E00E94702870E060E080E290E079
:103ED0000E947C2840E050E0BA0188E190E00E9416
:103EE00070280C940D1F0C94141F682F8EE090E026
:103EF0000C945E289C012E5F3F4FAC01485F5F4FE2
:103F000080E02417350709F40895F90191919F0184
:103F10009923B9F38F5FF5CF662349F0FC01329600
:103F200008962191261729F0E817F907D1F780E0C4
:103F3000089581E008959C01FC0132969FEF80E096
:103F40004191461751F09F3F19F4411101C0982F3C
:103F50008F5F8630A9F79F3F09F40895290F311D1F
:103F600097FD3A95F90162830895FC01329608960F
:103F70002191261303C0DF0111971C92E817F9075E
:103F8000B9F708950C949B1F0C94B51F029626E078
:103F9000FC0111922A95E9F70895089508950C946B
:103FA000CE1F80914802843049F10E94CF1F80E0EB
:103FB0000E94EC041092230288E190E020E40FB606
:103FC000F894A895809360000FBE2093600083B79B
:103FD000817F846083BF83B7816083BF7894889535
:103FE00083B78E7F83BF0FB6F894A8958091600049
:103FF000886180936000109260000FBE089508955C
:10400000CF930E94CD1F0E9461070E94FF1FC0E056
:104010008C2F0E940A07811105C0CF5FC430C1F701
:10402000CF91089581E0FCCF08950C9414200E9454
:10403000D8180E9402140E94EC040C9415201F92C0
:104040001FB61F9211248F939F93AF93BF938091BC
:104050002302811113C08091400290914102A091EE
:104060004202B09143024196A11DB11D80934002CE
:1040700090934102A0934202B0934302BF91AF914B
:104080009F918F911F901FBE1F90189582E084BD55
:1040900093E095BD9AEF97BD80936E0008952FB77A
:1040A000F8948091400290914102A0914202B09117
:1040B00043022FBF08952FB7F8946091400270918A
:1040C000410280914202909143022FBF08959C01CA
:1040D0004FB7F8948091400290914102A091420222
:1040E000B09143024FBF821B930B089578941F92A7
:1040F0001FB61F9211248F939F93AF93BF9380910C
:10410000400290914102A0914202B0914302019677
:10411000A11DB11D8093400290934102A0934202E1
:10412000B0934302BF91AF919F918F911F901FBE9B
:104130001F90189587E797E79093010880930008F0
:1041400088E19AE00FB6F894A895809360000FBEBE
:1041500090936000FFCF909397018093960108950C
:1041600080912C020895CF93DF9300D00F92CDB7AA
:10417000DEB790914802943011F589837B836A837E
:104180009093E9008FEF9091E800815095FD06C073
:1041900095ED9A95F1F700008111F5CF8091E80037
:1041A00085FF0DC050E040E063E070E0CE01019675
:1041B0000E942C238091E8008E778093E8000F9076
:1041C0000F900F90DF91CF910895BC0184E00C9483
:1041D000B320BC0183E00C94B3209C0184E0809365
:1041E000E9009FEF8091E800915085FD06C085EDC4
:1041F0008A95F1F700009111F5CF8091E80085FFD5
:104200000CC050E040E066E070E0C9010E942C2341
:104210008091E8008E778093E8000895CF93DF9334
:10422000EC0181E08093E9008FEF9091E8008150EC
:1042300095FD06C095ED9A95F1F700008111F5CF37
:104240008091E80085FF14C050E040E068E070E035
:10425000CE010E942C238091E8008E778093E800A5
:1042600088E0FE01A4E2B2E001900D928A95E1F7A8
:10427000DF91CF910895CF93FC01603221F58091B9
:104280004802843001F5C091E900CF702091EC0024
:10429000922F917020FD90E8C92B82E08093E90075
:1042A0008091E80080FF0CC050E040E060E270E0E8
:1042B000CF010E942C238091E8008E778093E80044
:1042C000CF70C093E900CF9108958091470281118A
:1042D00009C00E940B250E9468258091E20084603D
:1042E0008093E2000895109247020895089508957A
:1042F000089542E061EC81E00E94872442E261EC93
:1043000084E00E94872442E261EC82E00E948724DC
:1043100042E260EC83E00C94872480914A0283306F
:1043200009F461C030F48130D1F1823009F49DC0CC
:1043300008958A3009F489C08B3009F46FC0893040
:1043400009F050C080914902813209F04BC0809140
:104350004D0290914E02009719F0029709F042C069
:104360008091E800877F8093E8008091E80082FFD9
:1043700035C09091F3008091F200029729F480916A
:10438000F1008B7F813021F48091F10080932C0229
:104390008091E8008B778093E8000C94BB24809197
:1043A0004902813AF9F48091E800877F8093E80020
:1043B00080914D0290914E02892B61F468E084E275
:1043C00092E070E00E94CA238091E8008B7780938E
:1043D000E800089560E090E080E0F3CF809148022B
:1043E0008111C3CF089580914902813AD9F7809114
:1043F0004D0290914E02892BA9F78091E800877FAA
:104400008093E8008091E80080FFFCCF8091190143
:104410008093F1008091E8008E77BDCF80914902B2
:10442000813201F780914D0290914E02892BD1F695
:104430008091E800877F8093E8000E94BB248091F0
:104440004B02809319010C94D81880914902813253
:1044500049F68091E800877F8093E8000E94BB24A2
:1044600080914C0280932D02089580914902813AF7
:1044700009F0B8CF8091E800877F8093E8008091B1
:10448000E80080FFFCCF80912D02C2CFCDB7DEB710
:10449000A0970FB6F894DEBF0FBECDBF84B7877F5D
:1044A00084BF0FB6F894A8958091600088618093CE
:1044B0006000109260000FBE80E890E00FB6F894A4
:1044C00080936100909361000FBE0E9473140E945C
:1044D0000B250E9468258091E20084608093E200B1
:1044E00078940E94F1270E9487148FE091E00E9447
:1044F000FD1313E0809148028530B9F00E949114B9
:10450000809148028430C1F00E948314F3CF0E944E
:10451000D11F80914602882341F00E940020882309
:1045200021F00E9416230E94D818809148028530FD
:1045300071F30E941720E2CF1093E9008091E80008
:1045400082FFE2CF8091E80090E085FF09C050E053
:1045500040E060E270E0CE0101960E947B2391E092
:104560008091E8008B778093E800992369F260E2FC
:10457000CE0101960E94A20FC7CF0C94BF22292F13
:1045800033272330310521F168F42130310509F456
:1045900043C02230310509F444C090E080E030E0AF
:1045A00020E026C02132310551F122323105A9F730
:1045B0006330710590F7FB01EE0FFF1FE657FE4FCA
:1045C0002081318169577E4FFB01808190E010C0CE
:1045D00099278130910581F0009729F00297E9F63B
:1045E000EEE2F3E002C0E6E8F3E0849190E09F01A0
:1045F000FA01318320830895E2E4F3E0F6CF6330DB
:10460000710558F6660F771FFB01E057FE4F2081BA
:10461000318189E090E0ECCF82E190E025EE33E05B
:10462000E7CF8BE590E02AE833E0E2CF80E189BD77
:1046300082E189BD09B400FEFDCF8091D8008F7D55
:104640008093D8008091E00082608093E0008091A8
:10465000E00081FDFCCF0895AF92BF92CF92DF9230
:10466000FF920F931F93CF93DF936C01EB018A01AD
:104670000E94DA24F82E811123C00115110539F0AA
:10468000F80180819181C81BD90BC80ED91EB12CAD
:10469000A12C2097A9F08091E80085FD22C080918F
:1046A000E8008E778093E80001151105A1F0F8016C
:1046B00080819181A80EB91EB182A08285E0F82E7A
:1046C0008F2DDF91CF911F910F91FF90DF90CF90B1
:1046D000BF90AF9008950E94DA248823D1F2F82E7B
:1046E000EFCFF60181916F018093F1002197FFEFE9
:1046F000AF1ABF0ACECFAF92BF92CF92DF92FF9296
:104700000F931F93CF93DF936C01EB018A010E94FB
:10471000DA24F82E811123C00115110539F0F801B2
:1047200080819181C81BD90BC80ED91EB12CA12C38
:104730002097A9F08091E80085FD22C08091E800D3
:104740008B778093E80001151105A1F0F8018081B5
:104750009181A80EB91EB182A08285E0F82E8F2D1E
:10476000DF91CF911F910F91FF90DF90CF90BF907D
:10477000AF9008950E94DA248823D1F2F82EEFCF6B
:104780008091F100F60181936F012197FFEFAF1A3D
:10479000BF0ACECFFC0180914F0290915002861744
:1047A0009707A0F06115710529F49091E8009E77B4
:1047B0009093E80090E06115710551F4911108C0E3
:1047C0008091E80082FF34C080E00895BC01F2CF00
:1047D000809148028823C1F18530C1F18091E800C1
:1047E00083FD30C08091E80082FDEACF8091E8002F
:1047F00080FFE1CF8091F3002091F200382F611506
:10480000710519F02830310558F091E02830310554
:1048100009F090E02091E8002E772093E800CBCFBC
:1048200081918093F100615071092F5F3F4FE7CF75
:1048300080914802882341F0853041F08091E80062
:1048400083FFBECF81E0089582E0089583E008955C
:10485000FC0180914F029091500286179707A0F0BB
:104860006115710529F48091E8008E778093E80046
:1048700090E06115710551F4911108C08091E80034
:1048800082FF35C080E00895BC01F2CF80914802DC
:104890008823C9F18530C9F18091E80083FD31C0DA
:1048A0008091E80082FDEACF8091E80080FFE1CFAF
:1048B0008091F3002091F200382F6115710519F0F5
:1048C0002830310558F091E02830310509F090E0AA
:1048D0008091E8008E778093E800CBCF849180931D
:1048E000F1003196615071092F5F3F4FE6CF809103
:1048F0004802882341F0853041F08091E80083FF31
:10490000BDCF81E0089582E0089583E00895982F57
:10491000973028F08F708093E90081E0089590939C
:10492000E900242F762F50E0981731F07091EC00B9
:104930002091ED005091F00021FD02C09F5FE8CF73
:104940003091EB003E7F3093EB003091ED003D7FE6
:104950003093ED003091EB0031603093EB007093B9
:10496000EC002093ED005093F0002091EE0027FD25
:10497000E5CF80E008958091490287FF13C08091C0
:10498000E80082FF06C08091E8008B778093E80002
:1049900004C0809148028111F2CF089580914802AD
:1049A0008823D9F38091E80080FFF8CF8091E80058
:1049B0008E77ECCF2091E4003091E50095E6A901D7
:1049C0002091EC00822F817020FF06C08091E800CA
:1049D00080FF06C080E008952091E80022FD1AC003
:1049E00080914802882389F0853089F08091EB001E
:1049F00085FD0FC02091E4003091E5004217530778
:104A0000F9F29150E1F684E0089582E0089583E0A0
:104A1000089581E008950E9479250E948125E0EEA5
:104A2000F0E0808181608083E8EDF0E080818F7725
:104A3000808319BCA7EDB0E08C918E7F8C93808130
:104A40008F7E80831092470208950F931F93CF9318
:104A5000DF930E9479250E948125C8EDD0E08881EE
:104A60008F77888388818068888388818F7D888319
:104A700019BC109248021092440210924602109201
:104A8000450200EE10E0F80180818B7F80838881F1
:104A90008160888342E060E080E00E948724E1EE4C
:104AA000F0E080818E7F8083E2EEF0E080818160A3
:104AB0008083808188608083F80180818E7F8083FD
:104AC000888180618883DF91CF911F910F91089534
:104AD000E8EDF0E080818F7E8083E7EDF0E080817B
:104AE0008160808384E082BF81E0809347020C94E0
:104AF0002525E8EDF0E080818E7F80831092E20032
:104B000008951092DA001092E10008951F920F921A
:104B10000FB60F9211242F933F934F935F936F9390
:104B20007F938F939F93AF93BF93EF93FF93809166
:104B3000E10082FF0BC08091E20082FF07C08091FC
:104B4000E1008B7F8093E1000E94F0278091DA00E2
:104B500080FF19C08091D80080FF15C08091DA00D5
:104B60008E7F8093DA008091D90080FF96C080E12B
:104B700089BD82E189BD09B400FEFDCF81E080934B
:104B800048020E9465218091E10080FF19C0809158
:104B9000E20080FF15C08091E2008E7F8093E200EA
:104BA0008091E20080618093E2008091D800806271
:104BB0008093D80019BC85E0809348020E94772139
:104BC0008091E10084FF2BC08091E20084FF27C028
:104BD00080E189BD82E189BD89B5982F917080FF00
:104BE000FBCF8091D8008F7D8093D8008091E10029
:104BF0008F7E8093E1008091E2008F7E8093E200BF
:104C00008091E20081608093E200809144028823D9
:104C100009F449C084E0809348020E947821809181
:104C2000E10083FF29C08091E20083FF25C08091CD
:104C3000E100877F8093E10082E080934802109238
:104C400044028091E1008E7F8093E1008091E20038
:104C50008E7F8093E2008091E20080618093E20089
:104C600042E060E080E00E9487248091F00088604C
:104C70008093F0000E947621FF91EF91BF91AF9158
:104C80009F918F917F916F915F914F913F912F9164
:104C90000F900FBE0F901F90189519BC10924802EC
:104CA0000E94732170CF8091E30087FD93E0909381
:104CB0004802B3CF1F920F920FB60F9211242F9379
:104CC0003F934F935F936F937F938F939F93AF9394
:104CD000BF93CF93DF93EF93FF93D091E900DF7001
:104CE0008091EC00C82FC17080FDC0E81092E900EF
:104CF0008091F000877F8093F00078940E949E2638
:104D00001092E9008091F00088608093F000CD2B34
:104D1000CF70C093E900FF91EF91DF91CF91BF91E8
:104D2000AF919F918F917F916F915F914F913F9143
:104D30002F910F900FBE0F901F9018951F93CF9338
:104D4000DF93CDB7DEB7AA970FB6F894DEBF0FBEDC
:104D5000CDBF89E492E02091F100FC012193CF01C5
:104D6000F2E081359F07B9F70E948D218091E8001C
:104D700083FF1EC18091490290914A029A3008F047
:104D800017C1E92FF0E0EF53F74D0C943428803829
:104D900099F0823809F00CC180914D028F708730F4
:104DA00008F006C18093E9008091EB0085FB88271D
:104DB00080F91092E90006C0809145029091460268
:104DC000911182609091E800977F9093E800809322
:104DD000F1001092F1008091E8008E77E5C0882301
:104DE00009F4D3C0823009F0E3C080914B028111F5
:104DF000D6C080914D028F702FEF280F263008F01B
:104E0000D7C08093E9002091EB0020FFC8C0933009
:104E100031F48091EB0080628093EB00C0C09091F0
:104E2000EB0090619093EB0021E030E001C0220F95
:104E30008A95EAF72093EA001092EA008091EB004D
:104E40008860EACF8111B4C010914B021F77809126
:104E5000E3008078812B8093E3008091E800877FD6
:104E60008093E8000E94BB248091E80080FFFCCF83
:104E70008091E30080688093E30082E0111183E079
:104E80008093480295C08058823008F091C080918C
:104E90004B0290914C028C3D23E09207A1F583E0F8
:104EA0008A838AE289834FB7F894DE01139620E063
:104EB0003EE051E2E32FF0E050935700E49120FFF1
:104EC00003C0E295EF703F5FEF708E2F90E0EA3005
:104ED000C0F0C7968D939D932F5F243159F74FBF34
:104EE0008091E800877F8093E8006AE270E0CE015D
:104EF00001960E94CA238091E8008B778093E80096
:104F000057C0C096E7CF60914D0270914E02AE013E
:104F10004F5F5F4F0E94BD22BC01892B09F448C03E
:104F20009091E800977F9093E80089819A810E9490
:104F30002824E1CF8038E1F58091E800877F8093D5
:104F4000E800809144028093F10045CF811130C088
:104F500090914B02923060F58091E800877F8093BA
:104F6000E800909344020E94BB248091440288236D
:104F700011F084E005C08091E30087FDFACF81E065
:104F8000809348020E94792113C080914B028130A6
:104F900079F481E0933009F080E08093460210922A
:104FA000E9008091E800877F8093E8000E94BB249D
:104FB0008091E80083FF0AC08091E800877F80939A
:104FC000E8008091EB0080628093EB00AA960FB618
:104FD000F894DEBF0FBECDBFDF91CF911F91089532
:104FE0000895CF93809148028823A1F0C091E900F1
:104FF000CF709091EC00892F817090FD80E8C82BD4
:105000001092E9008091E80083FD0E949E26CF70F7
:10501000C093E900CF910895AA1BBB1B51E107C0C3
:10502000AA1FBB1FA617B70710F0A61BB70B881F38
:10503000991F5A95A9F780959095BC01CD010895C7
:1050400097FB072E16F4009407D077FD09D00E9435
:105050000C2807FC05D03EF4909581959F4F08954C
:10506000709561957F4F0895EE0FFF1F0590F491A5
:10507000E02D0994692796276927782787277827BD
:105080000895FB01DC0102C005900D924150504093
:10509000D8F70895F999FECF92BD81BDF89A992766
:1050A00080B50895A6E1B0E044E050E00C94842877
:1050B000A8E1B0E042E050E00C948428262FF99952
:1050C000FECF92BD81BDF89A019700B4021639F067
:1050D0001FBA20BD0FB6F894FA9AF99A0FBE089538
:1050E0000396272F0E945F280E945E28252F0E948A
:1050F0005F28242F0C945F280196272F0E945F2899
:105100000C945E28DC01CB01FC01F999FECF06C0AE
:10511000F2BDE1BDF89A319600B40D924150504075
:10512000B8F70895F894FFCFB60FC30FEA0FF60F44
:1051300001100C100F10121015105E105E101810D8
:105140001C10241031103E10411044105110B116A3
:10515000B116091709175B177717DE16DE168217C7
:105160000E181D181D18E718E718F018F018F21897
:10517000F018F018F018E718E718F718F018F018FA
:10518000F718C726EF26D827EF26D8272227432748
:06519000D8279A27A6278C
:105196002808641E140A321E00010001011702B01D
:1051A600200E21ED20E920E52001E200E900EA00D9
:1051B600B500B600B700CD008301CC008A0192018C
:1051C60094012102230224022502260227022A0232
:1051D600B300B4006F00700081828336323331F73A
:1051E6003534C6970001E200E900EA00B500B600D2
:1051F600B700CD008301CC008A01920194012102FF
:10520600230224022502260227022A02B300B40042
:105216006F00700081828340227B9404F703190497
:065226009C03B503D50353
:00000001FF
