:100000000C94D9010C9420020C9420020C94200230
:100010000C9420020C9420020C9420020C942002D8
:100020000C9420020C9420020C94721F0C94462015
:100030000C94BC1A0C9420020C9420020C94200204
:100040000C9420020C9420020C9420020C942002A8
:100050000C9420020C94131B0C9420020C9420028C
:100060000C9420020C9420020C9420020C94200288
:100070000C9420020C9420020C9420020C94200278
:100080000C9420020C9420020C9420020C94200268
:100090000C9420020C9420020C9420020C94200258
:1000A0000C9420020C9420020C9420020400050001
:1000B000060007000000080009000A000B0000000D
:1000C0001E001F0020002100220023002400250024
:1000D00026002700010001000100010000000100CE
:1000E0000100010001000000010001000100010009
:1000F00001000100010001000100010001000100F8
:1001000001000100000001000100010001000000E9
:1001100001000100010001000100010001000100D7
:1001200001000100010001000100010000000100C8
:1001300001000100010000000100010001000100B8
:1001400001000100010001000100010000040001A4
:100150000101010101010101020202020202020287
:100160000203030303030303030404040404040459
:10017000050505050506060606060707070707081D
:10018000080808090909090A0A0A0B0B0B0C0C0CD0
:100190000D0D0D0E0E0E0F0F0F101011111112126A
:1001A00013131414151516161717181819191A1AE7
:1001B0001B1B1C1D1D1E1E1F202021222223242448
:1001C000252626272829292A2B2C2D2D2E2F303184
:1001D0003232333435363738393A3B3C3D3E3F4096
:1001E0004142434445464748494A4C4D4E4F505181
:1001F0005354555658595A5B5D5E5F61626465663B
:1002000068696B6C6D6F7072737577787A7B7D7EC1
:100210008082838587888A8C8E8F91939596989A11
:100220009C9EA0A2A3A5A7A9ABADAFB1B3B5B7BA29
:10023000BCBEC0C2C4C6C9CBCDCFD1D4D6D8DBDDFD
:10024000DFE2E4E7E9EBEEF0F3F5F8FAFDFF120385
:10025000430043002000500072006F0074006F00E4
:10026000000042034300680069006E0061007400F2
:10027000730075002000430068006900620061009F
:100280002000280061007A0075006C0065006500A0
:100290002F006D006F006B00650073007500720029
:1002A0006100290000000403090409023B00020167
:1002B00000A0FA0904000001030101000921110155
:1002C00000012240000705810308000A090401001B
:1002D0000103000000092111010001227B00070534
:1002E000820320000A120110010000000809120018
:1002F000CC01000102000105010902A101850209EA
:1003000001A10005091901290815002501950875A5
:100310000181020501093009311581257F9502759A
:1003200008810609381581257F9501750881060524
:100330000C0A38021581257F950175088106C0C019
:1003400005010980A101850319012AB700150126BD
:10035000B700950175108100C0050C0901A1018548
:100360000419012AA002150126A002950175108129
:1003700000C005010906A101050719E029E71500DC
:100380002501950875018102950175088101050710
:10039000190029FF150026FF009506750881000544
:1003A00008190129059505750191029501750391BB
:1003B00001C011241FBECFEFDAE0DEBFCDBF04B60F
:1003C00003FE27C08091490290914A02A0914B02FE
:1003D000B0914C028730904BA740B04BD1F41092B3
:1003E000490210924A0210924B0210924C0214BE23
:1003F00084B7877F84BF0FB6F894A895809160007A
:10040000886180936000109260000FBEE0E0F8E326
:10041000099511E0A0E0B1E0E2E4F5E402C0059046
:100420000D92AA38B107D9F722E0AAE8B1E001C0DD
:100430001D92A934B207E1F70E94AE1C0C947B22F6
:100440000C9400000E949F0B82E00C94690B81E0E9
:10045000089581E008950C94290208950C942D02CA
:100460001F93CF93DF9300D000D00F92CDB7DEB7AC
:1004700049835A836B833091BD0189819A813111FF
:100480001DC06623B9F02223A9F00E94FD17182F82
:10049000682F89819A810E94A61769817A81812FAC
:1004A0000F900F900F900F900F90DF91CF911F91B1
:1004B0000C94F4020E94D417182FEFCF0E94FD175E
:1004C00069817A81EDCFFC01262F408151816281C3
:1004D000738184810C943002CF93DF93EC0160E050
:1004E0000E946302BE01DF91CF910C942E020E9404
:1004F000F4040C9419050C941C0508950E948813AB
:100500000E947D022FEF84E39CE0215080409040C8
:10051000E1F700C000000C94371B0F931F93CF939B
:10052000DF938C0161E00E946302EC01B8010E943C
:100530002B028823D9F1B801CE010E940E0D882329
:10054000A9F1B801CE010E94600D882379F1B801AC
:10055000CE010E94830E882349F1B801CE010E948A
:10056000F70B882319F1F8018281882361F0CB35DC
:10057000FDE5DF0721F170F4C115ECE5DE07A1F020
:10058000CF3DDC45C9F0C801DF91CF911F910F919C
:100590000C942702CC358DE5D807A1F0CD35DD458B
:1005A00091F70E94A418EFCF0E947E0280E0DF91B5
:1005B000CF911F910F9108950E94101AF7CF0E94BA
:1005C000AD18E1CF0E94B018DECF08950C94E5027B
:1005D00081E008950C94E802CF93C82F0E94E602B0
:1005E0008C2FCF910C94EA02972F70E025E0929F18
:1005F000600D711D1124FB0194E1899FE00DF11D37
:100600001124EE0FFF1FE455FF4F8591949108953B
:10061000CF93DF930E94F4020E940204EC01811543
:1006200021E5920708F042C0811530E5930708F0F4
:100630009DC0883E910530F5803E910508F092C03E
:10064000883A910588F4853A910508F084C0813094
:10065000910509F487C0009709F484C0049708F055
:1006600081C0D0E0C0E07EC08F3B9105D0F7C85A72
:10067000D0E0CC0FDD1FC55EDE4F0990D881C02DC4
:10068000D46470C08115904250F4C11581E0D80740
:1006900008F068C0CD3ED10520F3D06563C0C11518
:1006A00090E4D907F0F2DF70D06A5CC0811525E5CF
:1006B000920700F5811534E5930708F08BC081158A
:1006C00043E5940708F073C0C11582E5D80708F424
:1006D00069C0CE018370992721E030E002C0220F6B
:1006E000331F8A95E2F7C695C69580E2C89FE00160
:1006F000112454C0C11599E5D907A8F4C11528E5FE
:10070000D20708F06CC0C11536E5D30708F0A9CFB1
:100710008C2F0E949904C82FD0E0DC2FCC27CC2747
:10072000DF71D0621FC0C1154AE5D40708F45CC070
:10073000CE0190568115904208F093CF8D2F8F7186
:100740000E94990490E0982F882788279F719C0128
:100750002C2BE901E6CFC55AD0E0C75BDE4FC8813C
:10076000D0E0D064CE01DF91CF910895E4E096957A
:100770008795EA95E1F783702C2F269526952370AF
:1007800040E2249F90011124382B8C2F8370C1E00C
:10079000D0E002C0CC0FDD1F8A95E2F7C22BD32B2D
:1007A000DC68E0CFDC2FCC27C16FD06ADBCF837051
:1007B000992721E030E002C0220F331F8A95E2F72B
:1007C000C695C69590E2C99FE0011124C22BD32B98
:1007D000DA68C8CFD82FCC27C46FD06AC3CFDC2F3C
:1007E000CC27C06FD06ABECF8C2F8F700E94990427
:1007F00034E0D695C7953A95E1F7CF709C2FEC0180
:10080000D069B0CF82389105B1F1B0F48133910550
:1008100009F475C048F48932910509F469C08A3237
:10082000910509F473C008958533910509F459C001
:100830008933910501F10895833E9105A9F138F4BA
:10084000803E9105F9F0823E910549F10895863E7A
:100850009105A9F1873E9105C9F1843E910519F5ED
:100860002091270221FF1FC08091260284FD14C021
:1008700087EE90E00895209126022370A1F080EE8B
:1008800090E008952091260220FD47C03091270274
:1008900030FF09C024FF44C090E080E004C02091F4
:1008A000260222FDF7CF08952091260222FD3BC0AB
:1008B0003091270230FDE3CF24FFF5CFEDCF20911B
:1008C000260223FFF0CF24FDE7CFD2CF20912602CE
:1008D00023FD2CC03091270231FFEECF84EE90E053
:1008E00008952091260225FFDECF89E290E0089549
:1008F0002091260225FFD7CF85E390E0089520912F
:10090000260226FFD0CF8AE290E0089520912602A9
:1009100026FFC9CF81E390E0089589E390E0089530
:1009200083EE90E0089582EE90E0089586EE90E0E8
:1009300008959091260292FF06C0282F2871283032
:10094000F9F4877F846093FF06C0282F287128312F
:10095000F1F4877E84612091270220FF06C0382FA2
:1009600038713830D9F4877F816021FF06C0282F85
:1009700028712831D1F4877E816194FD877E0895A6
:10098000282F24712430F9F68B7F8860DCCF282F44
:100990002471243101F78B7E8861DDCF382F3171CE
:1009A000313019F78E7F8860E0CF282F21712131F7
:1009B00021F78E7E8861E1CF0C9465190E94750540
:1009C0008FE39CE90197F1F700C000000E947505D4
:1009D00080E00E941E0580FF04C00E94DC040C948D
:1009E000371B08950C94DE040E946B19811102C01C
:1009F0000E94101A0E94761980931A020E947E1992
:100A000090932702809326020E94F2040E947A1992
:100A1000682F70E090E080E00E94A81660910502C7
:100A20007091060280910702909108020C94E216E0
:100A300008950C94180508950C941B05E82FF0E018
:100A4000E45DFD4F80810895089580EA8A95F1F76D
:100A5000089500C008950C942505F894E82FE295B8
:100A6000EF70F0E031A1282F2F7081E090E001C0FD
:100A7000880F2A95EAF7982F9095932391A392A136
:100A8000892B82A37894089585E30E942D0584E341
:100A90000E942D0586EC0E942D0587E90E942D05F8
:100AA00086E30E942D0582E30E942D0583E30E94C8
:100AB0002D0581E30E942D0587EF0E942D05A8E2F8
:100AC000B2E01C92ECE2F2E0108211961C921197B7
:100AD000118212961C921297128213961C92138204
:100AE00084E00E94EC050C947702CF92DF92EF92A3
:100AF000FF920F931F93CF93DF93C1E5D1E008E2FC
:100B000012E0D12CEE24E394F12C8991F894E82F93
:100B1000E295EF70F0E021A18F70A70102C0440FB1
:100B2000551F8A95E2F7CA01922F982B91A392A1A3
:100B30008095892382A378940E942905ECE4F1E052
:100B400030E020E0C12C4191A42FA295AF70B0E01D
:100B500090968C9190E04F7002C0959587954A953C
:100B6000E2F780FD35C08E2D022E01C0880F0A9459
:100B7000EAF7C82A2F5F3F4F2530310521F7FE01E4
:100B8000319780810E942D050E942B05F8018081FC
:100B9000C81601F1C08281E0D82A0F5F1F4FF1E033
:100BA000C535DF0709F0B1CF2D2D44E06CE272E0CE
:100BB00088E292E00E94ED050E947B028D2DDF917C
:100BC000CF911F910F91FF90EF90DF90CF900895FC
:100BD00080E0CFCF80E0E0CF0895FF920F931F9386
:100BE000CF93DF93F82E092F162FD72FC42F222350
:100BF00049F081E080938E010E94EC1A90938D0160
:100C000080938C0180918E018823A1F080918C01CA
:100C100090918D010E94041B069760F0EF2DF02F3C
:100C2000A12FBD2FCE0FDF2FD11DEC17FD0741F4F3
:100C300010928E01DF91CF911F910F91FF90089537
:100C400081918D93F2CF8091950180FF12C06091C8
:100C5000050185E0689FB00111247595679575952C
:100C6000679560387105A8F561157105A1F1862FAA
:100C7000089581FF09C06091050185E0689FB0017A
:100C8000112475956795EDCF6091050182FD0AC02D
:100C9000809194018823D1F0909104016091050125
:100CA000891728F085E0689FB0011124DACF869F6C
:100CB000B001112485E0869F9001879F300D11249B
:100CC000692F70E0C9010E940C22CBCF65E070E073
:100CD000CECF8FE7089581E008958091950180FF40
:100CE0000CC06091010170E07595679575956795E9
:100CF0006115710549F1862F089581FF06C0609145
:100D0000010170E075956795F3CF6091010182FD57
:100D10000BC0909193019923A1F060910001809103
:100D20000101961738F0682F70E06038710500F304
:100D30008FE70895899FC001112470E00E940C2262
:100D4000F4CF61E070E0D7CF81E008958D3E31F4BB
:100D50000E94230681958093990108958E3E19F48F
:100D60000E942306F8CF8F3E31F40E94230681951E
:100D7000809398010895803F19F40E942306F8CFCC
:100D8000893F29F40E946D0680939A0108958A3F55
:100D900021F40E946D068195F7CF8B3F31F40E94BC
:100DA0006D06819580939B0108958C3F19F40E94F4
:100DB0006D06F8CF9FE0980F983070F4815F990B23
:100DC00021E030E001C0220F8A95EAF78091970177
:100DD000822B8093970108958D3F31F48091950186
:100DE00081608093950108958E3F21F48091950153
:100DF0008260F7CF8F3FB9F7809195018460F1CF82
:100E0000409198018D3E59F48091990187FF0DC062
:100E10001092990141110BC01092940108C08E3EAE
:100E200081F48091990118169CF3442381F08091FC
:100E30009A0190919B01892B09F05AC0109293015D
:100E400008958F3E49F447FFF0CF109298018091AA
:100E500099018111ECCFE0CF803F19F41416ACF367
:100E6000E4CF90919A01893F29F41916F4F6109273
:100E70009A01DBCF8A3F19F497FFD7CFF8CF909133
:100E80009B018B3F29F497FFD0CF10929B01CDCFD0
:100E90008C3F19F41916CCF3C8CF9FE0980F983007
:100EA00090F4815F990B21E030E0B90102C0660F38
:100EB000771F8A95E2F7CB0180959091970189235E
:100EC00080939701B2CF8D3F31F4809195018E7F51
:100ED00080939501AACF8E3F21F4809195018D7F5B
:100EE000F7CF8F3F09F0A1CF809195018B7FF0CF95
:100EF00008950E94EC1A9C019091980180919901AB
:100F0000982B21F0309392012093910190919A01B6
:100F100080919B01982B21F03093900120938F01B9
:100F200086E991E00C94C90EEF92FF920F931F9304
:100F3000CF93DF9300D000D000D0CDB7DEB786E0EE
:100F4000E6E9F1E0DE01119601900D928A95E1F754
:100F5000E0909801F090990100919A0110919B0105
:100F6000109298011092990110929A0110929B018F
:100F70008E2D8F2991F080919101909192010E9484
:100F8000041BAC0190919401992309F43FC0809116
:100F900006018417150608F447C0802F812B91F0B5
:100FA00080918F01909190010E94041BAC0190915F
:100FB0009301992309F477C08091020184171506E3
:100FC00008F47FC08091980190919901892B9091AC
:100FD0009A01892B90919B01892B11F00E9479072E
:100FE00086E0FE013196A6E9B1E001900D928A9566
:100FF000E1F726960FB6F894DEBF0FBECDBFDF91A6
:10100000CF911F910F91FF90EF90089520910701CC
:101010008AE0289F900111242417350708F0BDCFDE
:101020009F5F9093940102C09F3FD1F7EE2059F04B
:101030000E9423069FEF1E140CF491E0899F802DDF
:10104000112480939801FF2059F00E9423069FEFFE
:101050001F140CF491E0899F802D11248093990135
:1010600030919801332309F498CF209199012223DC
:1010700009F493CF45EB3403C0011124992359F0AF
:101080009093980145EB240390011124332339F008
:101090003093990182CF81E080939801F3CF81E072
:1010A000809399017ACF209103018AE0289F9001D3
:1010B00011242417350708F085CF9F5F9093930183
:1010C00002C09F3FD1F7002359F00E946D069FEFA9
:1010D00010160CF491E0899F802D112480939A01C1
:1010E000112359F00E946D069FEF11160CF491E048
:1010F000899F802D112480939B0130919A01332385
:1011000009F460CF20919B01222309F45BCF45EBCA
:101110003403C0011124992359F090939A0145EBAF
:10112000240390011124332339F030939B014ACFDB
:1011300081E080939A01F3CF81E080939B0142CFBD
:1011400086E0E6E9F1E0DF011D928A95E9F7109269
:10115000940110929301109295010895EF92FF92DD
:101160000F931F93CF93DF93EB01E82FD11110C0A2
:10117000442321F0F0E0E25BFE4FE4916E2F7E2FDE
:101180008E2FDF91CF911F910F91FF90EF900895D7
:101190000D2F10E0282F30E0442329F0225B3E4F32
:1011A000F901249130E0F6E0CF9FC0011124EFEF68
:1011B000F0E0BF010E94F821AB018C2F90E0880F76
:1011C000991FA5E5A49FB001A59F700D1124861B52
:1011D000970B982F990F980FBF01601B710B629F9F
:1011E000D001639FB00D729FB00D11248B2F9D9F76
:1011F000B0011124672F7727EF01C61BD70BBE0163
:10120000629FE001639FD00D729FD00D11247F017A
:10121000E91AF108E09EB001E19E700DF09E700D9C
:101220001124672F7727E61BF70BE29F8001E39FCE
:10123000100DF29F100D1124E12F722F4230510535
:1012400099F048F44115510569F04130510581F09C
:10125000EB2F8D2F07C04430510569F080F04630E8
:101260005105B1F76E2F8DCFE22F7B2F812FFACF53
:10127000E22F7D2FF7CFEB2F822F712FF3CF7B2F14
:10128000822FED2FEFCF41E00C94AE0808950C941F
:101290004309CF93DF93762FE901682F842F0E94B3
:1012A0004709798368838A83DF91CF91089580917C
:1012B0003002982F9E7F29F48170826080933002E3
:1012C00008958630E8F381708460F8CF88E090E07C
:1012D0000C943B22CF92DF92EF92FF926B017C0144
:1012E0000E945709B701A60188E090E0FF90EF90B7
:1012F000DF90CF900C945922E0E3F2E083E080830A
:1013000011828FEF82838383148260817181828155
:1013100093810C946A0990913402933018F49F5F82
:1013200090933402882351F0609130027091310221
:1013300080913202909133020C946A09089581E001
:101340000C948B0990913402992319F09150909349
:101350003402882351F06091300270913102809103
:101360003202909133020C946A09089581E00C9442
:10137000A20970E00C94760C609109018091300212
:1013800080FF0AC08091080123E0829FC0011124E0
:101390008B5C9D4F0C94B909E0910A0180910B017F
:1013A000E81780F78E2F90E0FC01EE0FFF1FE80F8B
:1013B000F91FEB5CFD4F118210821282E3CF9091F6
:1013C000300290FF14C0E0910A0190910B01E917DF
:1013D00060F42E2F30E0F901EE0FFF1FE20FF31F34
:1013E000EB5CFD4F8183608342830C94BC090895BC
:1013F000EF92FF920F931F93CF93DF9300D00F9242
:10140000CDB7DEB7F82E062F142FE22E80913002D2
:1014100080FF28C0E82FE695F0E0EB5AFE4F908160
:101420009093A4018E7F823059F49E012F5F3F4F2D
:101430008F2D0E9449094B8169818A810E94DF09B1
:10144000F09231020093320210933302EE2051F0F9
:10145000609130027091310280913202909133029A
:101460000E946A090F900F900F90DF91CF911F910A
:101470000F91FF90EF900895E0E3F2E09181282F23
:101480004381628188E0890F0C94F80981E00C9413
:101490003C0AE0E3F2E09181282F4381628188EFEA
:1014A000890F0C94F80981E00C94490AE0E3F2E01A
:1014B000628121E1620F08F46FEF282F438181815F
:1014C0000C94F80981E00C94560AE0E3F2E06281A2
:1014D00021E1621B08F460E0282F438181810C9494
:1014E000F80981E00C94650AE0E3F2E0438121E130
:1014F000420F08F44FEF282F628181810C94F80984
:1015000081E00C94740AE0E3F2E0438121E1421BA4
:1015100008F440E0282F628181810C94F80981E071
:101520000C94830A20E00C94F8090F931F93CF9337
:10153000DF9300D00F92CDB7DEB78C0180919C0174
:1015400081110AC09E012F5F3F4F4FEF6FEF0E9446
:1015500049098A8180939C01F8016481613069F0B6
:1015600080919C0140E0662361F040E0623011F41C
:1015700040919C0180E060E004C060919C0140E0EB
:1015800080E00E94DF09F801848190E0019663E029
:1015900070E00E940C2284830F900F900F90DF91D7
:1015A000CF911F910F910895E0E3F2E080818E7F4B
:1015B000808360817181828193810E946A09109287
:1015C000A5012FEF80E792E0215080409040E1F7A5
:1015D00000C000000C94BC0960913002669570E078
:1015E00041E050E08DE091E00E942622892B19F421
:1015F00081E08093A5010E94EC1A90939E01809354
:101600009D0108959091300290FF35C09170811135
:1016100028C0926090933002662351F060913002AE
:101620007091310280913202909133020E946A09D6
:1016300060913002669570E041E050E08DE091E00D
:101640000E942622892BA1F01092A50181E08093AF
:10165000A0014091330260913202809131020C94DA
:10166000920A833010F09460D5CF880F982BD2CF98
:101670000E94EC0AEBCF0895682F90913002969566
:1016800081E0890F833008F081E00C94020B81E047
:101690000C943C0B682F9091300296958FEF890F38
:1016A00009F482E00C94020B81E00C944A0B61E097
:1016B0000C94020BE0E3F2E08081816080838695E8
:1016C0000C94570B8091300280FD0C94D40A0C943A
:1016D0005A0B60E00C94020B8091A30181112EC083
:1016E0000E946B19811104C00E94101A0E947C098B
:1016F0000E94660960933002709331028093320237
:10170000909333026E7F61F40E947C090E94660907
:1017100060933002709331028093320290933302CF
:101720000E9457091092A5018091300280FF03C0EA
:1017300086950E94690B81E08093A3010895E0E300
:10174000F2E080818160808386950C94690B0F9311
:101750001F93CF93DF938091A501882309F43DC0A7
:101760009091A401809130028695891B80939F01FE
:10177000C0EDD7E006E419E0923031F4ECE4F1E09A
:10178000C591D49105E91AE08091A001882361F008
:101790001092A0010E94EC1A90939E0180939D01EB
:1017A0001092A2011092A1010E94EC1A20919D01B9
:1017B00030919E01821B930B8F3F9F4770F42C0F3B
:1017C0003D1F30939E0120939D018DE991E0F8012A
:1017D000DF91CF911F910F910994DF91CF911F91CC
:1017E0000F910895FA01811101C0FB0109940F9333
:1017F0001F93CF938C01FB01C281CC2309F474C0E9
:101800000E94B31882720A3CFCE51F0709F461C00C
:1018100048F5063CECE51E0709F456C078F4043C94
:101820009CE5190709F444C008F049C0033C1C4575
:10183000E1F18C2FCF911F910F91089541E75AE06C
:1018400062E67AE0083C9CE51907B1F146E45AE00B
:1018500063E57AE0093C1C4578F142E65AE061E72D
:101860007AE02AC00E3CFCE51F07C1F1A0F446EB6C
:1018700059E06FE979E00C3CECE51E07E9F040E83F
:101880005AE06FE87AE00D3C1C45B0F04FE959E0B2
:1018900066EB79E011C0063D8CE5180719F118F0E8
:1018A0000E351D4531F6C0E0C4CF0E94620BFBCF60
:1018B00044E55BE067E47BE00E94F20BF4CF47E491
:1018C0005BE064E57BE0F8CF43E55AE066E47AE06C
:1018D000F3CF4FE85AE060E87AE0EECF81E00E9473
:1018E000570BE1CF82E0FBCFC1E0A3CF539A4BB1BE
:1018F000477F5BB15860EFB7F8949B01220F331F0D
:10190000260F371F280F391F2817390741F4EFBF5B
:101910008FE594E00197F1F700C000000895DC0125
:101920006D91CD0178E05BB9000000C067FF4BB955
:10193000660F000000C000C000C04BB900C07A951F
:1019400091F7E2CF0F931F93CF93DF93C42FD22F42
:10195000FC0182818823C9F04093A8010E94EC1AFF
:101960009093A7018093A60180E28C0F883008F045
:1019700050C0C77081E001C0880FCA95EAF7DF91B7
:10198000CF911F910F910C941C111091A801141369
:1019900035C08091A6019091A7010E94041B883C4C
:1019A000910560F5C0E2CD0F1D17B9F080E2810FFF
:1019B000883040F4177081E001C0880F1A95EAF76B
:1019C0000E942311C83048F481E09D2F977001C018
:1019D000880F9A95EAF70E941C11802F0E9414111B
:1019E000C830B8F4D77081E001C0880FDA95EAF703
:1019F000DF91CF911F910F910C94231180E28C0FF6
:101A0000883038F4C77081E001C0880FCA95EAF7C2
:101A1000EFCFDF91CF911F910F9108950F939C010C
:101A2000CB01243F4CE5340759F1A8F4293DFCE5EE
:101A30003F0701F12A3D4CE53407D1F1283D3C45F3
:101A400091F406E221EE41EE68ED7CE50E94A20CE5
:101A500080E00F910895263FFCE53F07E9F0B0F0E4
:101A6000273F3C45F9F0FC018281882339F110922F
:101A7000A801EFCF07E225EE45EE69ED7CE5E6CF64
:101A800006E221EE40EE64EF7CE5E0CF07E225EED2
:101A900044EE65EF7CE5DACF06E221EE42EE66EF3A
:101AA0007CE5D4CF07E225EE46EE67EF7CE5CECFAE
:101AB00008E221E045EE6AED7CE5C8CF81E0C9CFC0
:101AC000CF93DF93EC01FB018281882309F419C1D4
:101AD000C230FCE5DF07C0F1C6319CE5D90730F024
:101AE0009E012B5F3C452930310570F50E947E191F
:101AF0009093270280932602C031ECE5DE0709F4BB
:101B0000CFC008F05BC0C8308CE5D80709F4B6C078
:101B100088F5C430ECE5DE0709F4A8C0C0F4C23093
:101B20008CE5D80709F49CC0809126028260C330FE
:101B3000DC4509F498C080912602909127020E940A
:101B40008C190E94881380E0DF91CF9108958091D5
:101B500026028061C630ECE5DE0709F484C080917E
:101B600026028860C730DC4508F47DC080912602DB
:101B7000806279C0CC308CE5D80709F489C070F454
:101B8000809126028C60CA30ECE5DE0709F46BC058
:101B900008F478C0809126028E7F65C0CE308CE537
:101BA000D80709F479C0809126028B7FCF30DC45BD
:101BB00008F459C0809126028F7E55C0CC3FECE5D9
:101BC000DE0709F457C030F5C3318CE5D80709F4B6
:101BD0006FC078F4C131ECE5DE0709F465C0C231AD
:101BE000DC4509F0A8CF0E948813809126028F77E8
:101BF0003AC0C5318CE5D80709F462C008F476C054
:101C0000809127028160CB3FDC4509F094CF80931F
:101C1000270291CFC115FDE5DF0709F44DC088F417
:101C2000809127028D7FCE3F9CE5D90781F380917B
:101C300027028E7FCF3FDC4550F3809127028360DF
:101C4000E6CFC230FDE5DF0709F459C008F444C00F
:101C500080E0C330DD4509F06ECF0E94121A6BCFD1
:101C60008091260281608093260265CF80912602B2
:101C70008460F9CF809127028260C9CF80912602CB
:101C80008064F1CF0E948813809126028068EBCF98
:101C9000809126028D7FE7CF80912602877FE3CF58
:101CA000809126028F7DDFCF809126028F7BDBCF54
:101CB00080912602837FD7CF809127028C7FA7CF88
:101CC0008091260282FB992790F921E0922790FBD0
:101CD00082F990FB83F9C7CF80912702982F9095C6
:101CE00091708E7F892B90FB81F991CF0E94881390
:101CF00090912602892F97FB87F98058B4CF81E015
:101D0000ACCF81E021CFCF93DF93EB0186319C45AF
:101D100011F50E94B3189A81992399F08A7A91E07B
:101D200009F490E09093A901811109C089E20E9411
:101D30006D180E94F61880E0DF91CF91089585E339
:101D4000F6CF8091A901811104C089E20E94741824
:101D5000F0CF85E3FBCF81E0EFCF9093AF0180938D
:101D6000AE010895E091AE01F091AF01309721F0FE
:101D70000190F081E02D099480E00895E091AE019A
:101D8000F091AF01309721F00280F381E02D0994AA
:101D90000895E091AE01F091AF01309739F022E063
:101DA000DC012C930480F581E02D099408952091A5
:101DB000AC013091AD012817390771F09093AD0156
:101DC0008093AC01E091AE01F091AF01309721F02A
:101DD0000680F781E02D099408952091AA013091A1
:101DE000AB012817390771F09093AB018093AA01DA
:101DF000E091AE01F091AF01309721F00084F185C0
:101E0000E02D099408950E94F81A6093B901709327
:101E1000BA018093BB019093BC016093B5017093AC
:101E2000B6018093B7019093B801089585B7806893
:101E300085BF85B7806885BF0895089508950C947F
:101E40001D0F0C9422020E94160F83E699E10E9456
:101E5000481B0E941E0F0C941F0F81E008950C94E4
:101E60002D0F089508950E94310F0C94320F0E9497
:101E7000E31A0E9444050E946C0B0C94210FAF9250
:101E8000BF92CF92DF92EF92FF920F931F93CF9367
:101E9000DF93CDB7DEB72A970FB6F894DEBF0FBE3B
:101EA000CDBF0E94750581110E94030F81EBA82E02
:101EB00081E0B82E10E000E0C02E802F0E941E05A9
:101EC000E82EF501F1905F01F81609F44FC08091FA
:101ED0001A0281FD0E9424058F2D8E25D12CFF240E
:101EE000F394982F9F21E9F10E942F0F882399F0F6
:101EF000DE82CF82EF2081E009F480E088870E94B3
:101F0000EC1A8160782F9A8789874E815F81688576
:101F10008A850E94DE0FF801EF54FE4F8081F8267B
:101F2000F0820E94A70B0E9494070E94B20E90912B
:101F3000B001891791F10E94B20E8093B0012A96E8
:101F40000FB6F894DEBF0FBECDBFDF91CF911F91CA
:101F50000F91FF90EF90DF90CF90BF90AF900C94D7
:101F6000EC02D394FF0CF5E0DF12BBCF0F5F1F4FE5
:101F70000430110509F0A0CF8FEF89838A831B827B
:101F80000E94EC1A8160782F9D838C8349815A814D
:101F90006B818D810E94DE0FC4CF2A960FB6F89414
:101FA000DEBF0FBECDBFDF91CF911F910F91FF908C
:101FB000EF90DF90CF90BF90AF900895DF92EF92B7
:101FC000FF920F931F93CF93DF93CDB7DEB72B977D
:101FD0000FB6F894DEBF0FBECDBF7A878B87F42E85
:101FE000052F162FE72ED82E61110E94D3181E82BE
:101FF0001D827E2DEC82DD824F2D502F612F8D2D85
:102000009E812B960FB6F894DEBF0FBECDBFDF9139
:10201000CF911F910F91FF90EF90DF900C94FE15E0
:10202000FC01808191810C943F18CF93C82F8823A5
:1020300009F48BC08238C1F40E94B20E81FD85C0C4
:1020400089E30E946D180E94F6182FEF81EE94E04C
:10205000215080409040E1F700C0000089E30E94D9
:102060007418CF910C94F6188338A1F40E94B20E24
:1020700080FD6BC083E50E946D180E94F6182FEF5B
:1020800081EE94E0215080409040E1F700C00000D4
:1020900083E5E5CF8438A1F40E94B20E82FD55C0DD
:1020A00087E40E946D180E94F6182FEF81EE94E0ED
:1020B000215080409040E1F700C0000087E4CFCF7E
:1020C0008CEF8C0F813A90F46C2F80910E019091DF
:1020D0000F010E94291A882329F08C2F0E9474185E
:1020E0000E94F6188C2F0E946D18BBCF80E28C0FD7
:1020F000883048F4C77081E001C0880FCA95EAF7BC
:102100000E94B618AECFEBE5EC0FE33040F4F0E000
:10211000EA57FE4F808190E0CF910C94D70EE8E50E
:10212000EC0FE73150F4F0E0EE0FFF1FE85AFE4FDE
:1021300080819181CF910C94ED0ECD3E30F08C2FAB
:102140000E94A606CF910C947907CF910895882319
:1021500009F452C0823871F40E94B20E81FF4CC063
:1021600089E30E946D180E94F61889E30E94741892
:102170000C94F618833859F40E94B20E80FF3CC0CC
:1021800083E50E946D180E94F61883E5EFCF84382E
:1021900059F40E94B20E82FF2FC087E40E946D188E
:1021A0000E94F61887E4E2CF9CEF980F913AF0F284
:1021B00090E2980F983050F4877091E001C0990F29
:1021C0008A95EAF7892F0E94BC18D2CF9BE5980F19
:1021D000933020F490E080E00C94D70E98E5980FAF
:1021E000973120F490E080E00C94ED0E8D3E20F0CD
:1021F0000E9400070C94790708951F93CF93DF93F3
:10220000182FEB010E941510209731F4812FDF91D8
:10221000CF911F910C94A7108FE99FE00197F1F7E0
:1022200000C000002197F0CF70E060E0893311F426
:1022300060E570E00C94FD10882321F00E94B61830
:102240000C94F6180895882321F00E94BC180C9471
:10225000F6180895BF92CF92DF92EF92FF920F93FC
:102260001F93CF93DF936C01D62FC72FFC011281F0
:10227000058102950F700E948B18E82E8823A1F02B
:10228000E12E112389F08C2F807F803429F080E2A9
:102290008D0FE12C883040F082E00E9447190E94A7
:1022A0008B1891E0E82EE926BC2EB2949FE0B9226B
:1022B000FBE0FB1598F1EB2DF0E0E358FD4D0C949D
:1022C00020220C2F0F70C07F11F00295007F112388
:1022D000A9F0002359F080E28D0F883010F0D11161
:1022E00009C0802F0E94B6180E94F6188D2F0E94F8
:1022F000151014C0802F0E94C618F6CF8D2F0E9493
:10230000A710002359F080E28D0F883010F0D11112
:102310002CC0802F0E94BC180E94F6182B2D28502C
:10232000330B2430310520F40E94B20E0E94EC02DF
:10233000EE2009F48EC10E94871880FD8AC1F60143
:1023400012820E9481180E940A17C6010E944A1335
:102350000E948118DF91CF911F910F91FF90EF9014
:10236000DF90CF90BF900C942B17802F0E94CC1839
:10237000D3CF2C2F2F70F22EC07FC03219F0F294E1
:1023800080EFF822DD2369F0D13049F1112391F17A
:10239000002351F1F601858180FFA8CF8F708583DE
:1023A00023C0112381F0011106C00E94D9188F2982
:1023B0000E941C11B3CF0130C1F70E94D9188F2998
:1023C0000E94DF18ABCF011106C00E94EC188F2DC0
:1023D0000E942311A3CF013009F4A0CFF6CF11231F
:1023E00029F0063008F09ACF8F2DE2CF053008F0A3
:1023F00095CFEDCF002359F3D93349F4FFEF27EE02
:1024000033E0F15020403040E1F700C000008D2F54
:102410000E94A71083CF8C2F86958695837069F0D4
:10242000813009F07BCF8D2F9C2F9370111102C04A
:1024300090E080E00E94ED0E71CF8D2F9C2F937065
:10244000111102C090E080E00E94D70E67CF8D2F5F
:10245000112329F00E94A6060E9479075FCF0E94EF
:102460000007FACF8C2F837009F041C0111156CFAD
:102470004D2F429546954770440F440F0D2F0F7016
:1024800010E030E020E0042E04C0000F111F221FD6
:10249000331F0A94D2F760E070E0CB01D4FF0FC085
:1024A0006FE070E080E090E004C0660F771F881F47
:1024B000991F4A95D2F76095709580959095C6952D
:1024C000C695C370602B712B822B932BC23049F0C1
:1024D00058F4C13019F00E94BC1620CF0E94AA16F1
:1024E0001DCF0E94CE161ACF0E94A81617CF869530
:1024F000112311F08C2F8170882309F40FCF4D2FF9
:10250000429546954770440F440F0D2F0F7010E011
:1025100030E020E0042E04C0000F111F221F331FE3
:102520000A94D2F760E070E0CB01D4FF0FC06FE0F7
:1025300070E080E090E004C0660F771F881F991F4D
:102540004A95D2F76095709580959095C695C695F9
:10255000C370602B712B822B932BC23049F058F43F
:10256000C13019F00E948117D9CE0E946F17D6CEC4
:102570000E949317D3CE0E94E416D0CECF701123C1
:1025800029F08C2F0E940A178D2F12CF8D2F0E94B9
:1025900023118C2F0E942B17C1CED23F89F160F4FA
:1025A000D03FC9F0D13F29F1112309F442C00111F4
:1025B0009DCE8C2F8F7121C0D33F39F1D43FA1F72D
:1025C000112369F1CF718C2F0E940A1763E08C2FC1
:1025D0000E942C19A3CE112341F0053008F09ECEA5
:1025E0008C2F8F710E944E1799CE063008F096CE30
:1025F000F7CF8C2F8F71112369F20E940A178ECEAC
:102600008C2F8F711123C9F3C5CF112329F08C2F83
:102610008F710E94F51682CE0E94F0167FCE81E067
:102620000E944719023008F479CE82E00E944719CF
:1026300075CE002359F0D93309F0E9CE8FEF97EE2C
:10264000E3E081509040E040E1F7DFCE8C2F8F71C6
:10265000A1CFDF91CF911F910F91FF90EF90DF906D
:10266000CF90BF9008950F931F93CF93DF93EC010A
:10267000688179818A810E9449188C010E94A5177E
:102680000E94A716B801CE01DF91CF911F910F9143
:102690000C942A11CF93DF93EC018B819C81892BC1
:1026A00029F08881998189238F3F59F4DF91CF9157
:1026B0000895CE010E943313CE01DF91CF910C9487
:1026C0006C02CE010E948D028111F3CF0E948B1803
:1026D000882361F38A81882349F382E0DF91CF91D7
:1026E0000C94471990E080E00E94D70E90E080E0C3
:1026F0000E94ED0E0E94D3180E94D6180E94F61870
:102700000E94A0080C9479070E947B180C94721305
:102710000E94C3180C948413E92FE295EF70E250E5
:10272000EE3070F4F0E0E757FD4D0C942022803F2E
:1027300019F020F4883E20F481E00895843FE1F30D
:1027400080E00895883EC0F3813FD1F7F5CF93FB39
:10275000882780F908950E943F180C948C13CF931A
:10276000DF9300D000D00F92CDB7DEB70F900F905F
:102770000F900F900F90DF91CF910895CF93DF933B
:1027800000D000D000D0CDB7DEB726960FB6F894B3
:10279000DEBF0FBECDBFDF91CF9108951F93CF93C2
:1027A000DF93C091BE0116E08091BF018C1304C07D
:1027B000DF91CF911F910895D0E01C9FF0011D9FE4
:1027C000F00D1124E054FE4F4081518162817381EC
:1027D000848195810E94BE132196C770E5CF4091F8
:1027E000F0015091F1016091F2017091F30180913B
:1027F000F4019091F5010C94BE131F93CF93DF93D6
:102800008091F501807FA9F48091F201882389F0FD
:102810008091BE01C091BF016091F0017091F10102
:10282000A091F301B091F401D62FD72316E0C8137D
:1028300004C0DF91CF911F91089590E0109711F09F
:10284000DF3F19F401968770F2CF189F9001199F0E
:10285000300D1124F901E054FE4F41814713F2CFAE
:1028600040814613EFCF42814111ECCF4381548127
:102870004A1B5B0B483C510528F78091F5018F708E
:1028800080618093F501F901EB53FE4F80818F70D9
:102890008061808380EF91E00E944A13DF91CF91A5
:1028A0001F910C94CE13AF92BF92CF92DF92EF9212
:1028B000FF920F931F93CF93DF93CDB7DEB761974E
:1028C0000FB6F894DEBF0FBECDBF8C0185E0F801D6
:1028D000DE011D9601900D928A95E1F7F801408185
:1028E0005181E28080EFC82E81E0D82E6091F30103
:1028F0007091F4016115710509F461C19091F001C5
:102900002091F101892F82238F3F09F458C1A380C0
:10291000B480F090F201F501E61BF70BFF2009F4FB
:10292000FCC08091F501382F307FE83CF10508F0BC
:10293000B2C0311179C0FE2C251323C0941321C0DD
:10294000E1101FC08F7080618093F5010E94EF132A
:10295000C6010E944A138091F501F80185838F2DED
:1029600061960FB6F894DEBF0FBECDBFDF91CF9159
:102970001F910F91FF90EF90DF90CF90BF90AF909D
:102980000895AB2829F0842F85238F3F09F033C1A8
:1029900080E0F82FF170DF2E80FF3CC08091BE01F7
:1029A0002091BF0136E0821315C04D875E878D856B
:1029B0009E850E943F18292F22952F702230F0F01B
:1029C000243018F59F70F1F0F8019581907FD1F4D3
:1029D000D12C1EC090E0389FF001399FF00D1124DA
:1029E000E054FE4F6181651306C06081641303C02B
:1029F00062816E110FC001968770D5CF9F7011F064
:102A0000882331F3805E883018F3C8010E944A138E
:102A1000FD2CA5CFEE2009F4A2CF8091F5018160B5
:102A20008093F501F12C9BCF251306C0941304C0AD
:102A3000F801EE2009F48DC04D875E878D859E8557
:102A40000E94AB13882319F1EE2009F18091F50162
:102A5000803270F02091F0013091F10138872F839E
:102A60001986BB86AA868C87CE0107960E944A13D8
:102A700086E0F801A0EFB1E001900D928A95E1F7B0
:102A80000E94FD130E94EF13FF24F39468CFC80146
:102A90000E944A13F9CF311113C07A2DB98AA88A3E
:102AA0006E2D89890E94AF1380EF91E00E944A1336
:102AB00086E0F60111928A95E9F70E94EF13B2CFF2
:102AC00025130FC094130DC0E1100BC0F8018583CE
:102AD000C8010E944A1386E0F60111928A95E9F72F
:102AE0003ECF4D875E878D859E850E94AB138823E0
:102AF00071F2EE2061F28091F501803208F4B8CFD6
:102B00002091F0013091F1013A8329831B82BD822B
:102B1000AC828E83CE010196A9CFE83CF10508F086
:102B200041C0FE2CEE2009F4B2CF25132AC0941325
:102B300028C08091F50180FD1BC0982F907FC1F0C7
:102B4000F8018583903F31F0982F907F905F8F70D0
:102B5000892B8583C8010E944A1386E0F801A0EF03
:102B6000B1E001900D928A95E1F70E94EF13F7CE44
:102B700086E0F801A0EFB1E001900D928A95E1F7AF
:102B8000EECE4D875E878D859E850E94AB138111A9
:102B90006FCF8091F50181608093F501C8010E949B
:102BA0004A13DDCE7A2DB98AA88A6E2D89890E94B2
:102BB000AF1386E0F60111928A95E9F7D6CFEE20A1
:102BC00009F465CF4D875E878D859E850E94AB1386
:102BD000F82E882309F45BCF86E0F801A0EFB1E07E
:102BE00001900D928A95E1F780EF91E00E9410101C
:102BF0000E94FD13BACF81E08E25CBCE1F93CF93D9
:102C0000DF93CDB7DEB72C970FB6F894DEBF0FBEBB
:102C1000CDBF4F83588769877A878B879C87CE0182
:102C200007960E945314882369F08A859B85892B17
:102C300039F04F815885842F85238F3F09F071C06B
:102C400016E05FC086E0FE013796DE011196019026
:102C50000D928A95E1F78A859B85892B89F38F816F
:102C6000988589238F3F61F32091BF0130E0C9012E
:102C70000196877099274091BE014817190671F493
:102C80000E9488131092BF011092BE0186E0E0EF0F
:102C9000F1E0DF011D928A95E9F7D2CF96E0929F8D
:102CA000D001939FB00D1124A054BE4FFE01319668
:102CB00001900D929A95E1F78093BF010E94CE1387
:102CC000BFCF819FC001112480549E4F0E94531496
:102CD0008823E9F0E091BE011E9FF0011124E05429
:102CE000FE4F4081518162817381848195810E9470
:102CF000BE138091BE0190E0019687709927809362
:102D0000BE018091BE019091BF018913DACF2C964C
:102D10000FB6F894DEBF0FBECDBFDF91CF911F91EC
:102D2000089569857A858B859C850E94BE1388CF1E
:102D300008950C9498160E94991660930902709356
:102D40000A0280930B0290930C020C947213089564
:102D50000C949B160F931F930091090210910A0285
:102D600020910B0230910C02602B712B822B932B44
:102D70001F910F910C949B160F931F9300910902C2
:102D800010910A0220910B0230910C0260237123F2
:102D9000822393231F910F910C949B160F931F93E3
:102DA0000091090210910A0220910B0230910C024D
:102DB00060277127822793271F910F910C949B16F0
:102DC0000C9498160C94E0160E94E216609305028B
:102DD0007093060280930702909308020C9472137A
:102DE00060E070E0CB010C94E4160F931F9341E078
:102DF00050E060E070E08A019B0104C0000F111FE9
:102E0000221F331F8A95D2F7C901B8011F910F9174
:102E10000C94E4160F931F9341E050E060E070E0E3
:102E200004C0440F551F661F771F8A95D2F7809103
:102E3000050290910602A0910702B09108028A0152
:102E40009B01082B192B2A2B3B2BC901B8011F9181
:102E50000F910C94E4160F931F9341E050E060E053
:102E600070E004C0440F551F661F771F8A95D2F784
:102E7000CB01BA01609570958095909500910502FF
:102E800010910602209107023091080260237123FD
:102E9000822393231F910F910C94E4160F931F9399
:102EA00041E050E060E070E004C0440F551F661F31
:102EB000771F8A95D2F78091050290910602A09122
:102EC0000702B09108028A019B01082719272A27C7
:102ED0003B27C901B8011F910F910C94E4160F9381
:102EE0001F93009105021091060220910702309174
:102EF0000802602B712B822B932B1F910F910C9446
:102F0000E4160F931F930091050210910602209181
:102F100007023091080260237123822393231F91BB
:102F20000F910C94E4160F931F93009105021091DA
:102F3000060220910702309108026027712782273C
:102F400093271F910F910C94E4160895E92FEE0F2B
:102F5000EE0F9E0F890F982F977041E001C0440F2C
:102F60009A95EAF786958695869595E0899FF00172
:102F70001124EA50FE4F30E020E070E05191DF0173
:102F80001197CB01022E02C0969587950A94E2F71D
:102F9000817081958527842385278C932F5F3F4FF0
:102FA0002530310559F70895E92FEE0FEE0F9E0FEA
:102FB000890F982F977086958695869525E0829F34
:102FC000F0011124EA50FE4F50E040E080E02191F2
:102FD00030E0092E02C0369527950A94E2F7217059
:102FE0003327042E01C0220F0A94EAF7822B4F5F89
:102FF0005F4F4530510559F70895BF92CF92DF9248
:10300000EF92FF920F931F93CF93DF938C01C090A9
:103010000502D0900602E0900702F090080280912D
:10302000090290910A02A0910B02B0910C02C82AE9
:10303000D92AEA2AFB2ACFE1D0E0BC2ED701C6016B
:103040000C2E04C0B695A795979587950A94D2F74C
:1030500080FD0EC0219788F7B12C8B2DDF91CF9189
:103060001F910F91FF90EF90DF90CF90BF90089548
:10307000B8018C2F0E940803019761F3EECFCF9324
:10308000DF93EC010E94FD17BE01DF91CF910C94FC
:1030900008031F93CF93DF93EB019091BD01992318
:1030A00031F0CB01DF91CF911F910C943F18882311
:1030B00079F0CB010E94FD17182F682FCE010E94D6
:1030C000A617BE01812FDF91CF911F910C940803A9
:1030D000CB010E94D417182FF4CF682F80910E01D6
:1030E00090910F010C945F1A682F80910E019091BE
:1030F0000F010C94611A80910E0190910F010C94B4
:10310000631A80910D028595859585950895809126
:103110000D028770089590910D02977081E009F477
:1031200080E008959091270292FB222720F928172A
:1031300051F080FB92F990932702809126029091A2
:1031400027020C948C1908958091270282FB88270E
:1031500080F991E089270C94921881E00C949218E0
:1031600080E00C94921880911902089590911902B0
:10317000892B8093190208958095909119029823C4
:1031800090931902089510921902089590911802CF
:10319000892B8093180208958095909118029823A6
:1031A0009093180208951092180208951092170231
:1031B000089580910E02089508950C94DC18909162
:1031C000270292FD08C090910E02981721F080937B
:1031D0000E020C94DD18089580910E02882329F0C8
:1031E00010920E0280E00C94DD180895E0910E011B
:1031F000F0910F01809119028083E0910E01F0910E
:103200000F01808190911802892B8083E0910E013B
:10321000F0910F01808190911702892B808390910A
:103220000E02992381F0E0910E01F0910F0180814F
:10323000892B808380910E0190910F010E94171AB3
:1032400081110E94EC1880910E0190910F010C9455
:10325000BE0E08950C9429199091270292FD10C07A
:1032600098E0899F90011124622B60930D020E94C7
:103270000A1780910D028595859585950C942A19DC
:103280000C940A1710920D0280E00C942A19909168
:103290000D028095892380930D02282F277039F421
:1032A000282F082E000C330B9217130621F490914F
:1032B000270292FF07C08595859585950E942B175B
:1032C0000C944219089580E008956FEF7FEF90E02D
:1032D00080E00C94652290E080E00E94412221E091
:1032E0008A3E9E4F09F020E0822F089582E090E010
:1032F0000C94332283E090E00C943322CF9384E04B
:1033000090E00E943322C82F82E290E00E94332294
:10331000982F8C2FCF910895CF93C92F682F84E0D9
:1033200090E00E9447226C2F82E290E0CF910C94B3
:103330004722AB01BC018FE090E00C945922AB0115
:10334000BC0183E190E00C94592260E070E0CB0175
:103350000C949F1960E070E0CB010E9499190C94C5
:10336000A5196AEE7EEF90E080E00E94652260E0A1
:1033700082E090E00E94472260E083E090E00E94BB
:1033800047221092090210920A0210920B02109228
:103390000C0260E084E090E00E94472260E082E25C
:1033A00090E00E94472260E085E090E00E94472282
:1033B00060E086E090E00E9447226FEF87E090E0B7
:1033C0000E94472240E050E0BA0188E090E00E946D
:1033D000592260E08DE090E00E94472240E050E0FA
:1033E000BA0188E190E00E94592260E087E190E014
:1033F0000E94472240E050E0BA018CE190E00E9438
:10340000592270E060E080E290E00E94652240E096
:1034100050E0BA0188E190E00E9459220C94AA1968
:103420000C94B119682F8EE090E00C9447229C0117
:103430002E5F3F4FAC01485F5F4F80E02417350798
:1034400009F40895F90191919F019923B9F38F5FD0
:10345000F5CF662349F0FC01329608962191261794
:1034600029F0E817F907D1F780E0089581E0089581
:103470009C01FC0132969FEF80E04191461751F08C
:103480009F3F19F4411101C0982F8F5F8630A9F733
:103490009F3F09F40895290F311D97FD3A95F901D1
:1034A00062830895FC01329608962191261303C089
:1034B000DF0111971C92E817F907B9F708950C94EA
:1034C000381A0C94521A029626E0FC0111922A95A1
:1034D000E9F70895089508950C946B1A80914002BD
:1034E000843049F10E946C1A80E00E94EC02109234
:1034F0001B0288E190E020E40FB6F894A895809331
:1035000060000FBE2093600083B7817F846083BF1B
:1035100083B7816083BF7894889583B78E7F83BF9C
:103520000FB6F894A8958091600088618093600040
:10353000109260000FBE08950895CF930E946A1AFA
:103540000E9475050E949C1AC0E08C2F0E941E05E7
:10355000811105C0CF5FC430C1F7CF91089581E0DC
:10356000FCCF08950C94B11A0E9488130E94B20EE9
:103570000E94EC020C94B21A1F921FB61F921124E3
:103580008F939F93AF93BF9380911B02811113C0C0
:103590008091380290913902A0913A02B0913B0299
:1035A0004196A11DB11D8093380290933902A093DA
:1035B0003A02B0933B02BF91AF919F918F911F90C0
:1035C0001FBE1F90189582E084BD93E095BD9AEFD1
:1035D00097BD80936E0008952FB7F89480913802BC
:1035E00090913902A0913A02B0913B022FBF089509
:1035F0002FB7F894609138027091390280913A02A5
:1036000090913B022FBF08959C014FB7F894809191
:10361000380290913902A0913A02B0913B024FBF1B
:10362000821B930B089578941F921FB61F9211244A
:103630008F939F93AF93BF938091380290913902FB
:10364000A0913A02B0913B020196A11DB11D809359
:10365000380290933902A0933A02B0933B02BF9193
:10366000AF919F918F911F901FBE1F90189587E774
:1036700097E7909301088093000888E19AE00FB6DD
:10368000F894A895809360000FBE90936000FFCFE0
:1036900090938B0180938A0108958091240208956C
:1036A000CF93DF9300D00F92CDB7DEB79091400259
:1036B000943019F589837B836A8382E08093E900E3
:1036C0008FEF9091E800815095FD06C095ED9A9599
:1036D000F1F700008111F5CF8091E80085FF0DC062
:1036E00050E040E063E070E0CE0101960E94671D6B
:1036F0008091E8008E778093E8000F900F900F90F4
:10370000DF91CF910895BC0184E00C94501BBC0163
:1037100083E00C94501B9C0182E08093E9009FEFB2
:103720008091E800915085FD06C085ED8A95F1F7FE
:1037300000009111F5CF8091E80085FF0CC050E0AA
:1037400040E066E070E0C9010E94671D8091E800DA
:103750008E778093E8000895CF93DF93EC0181E0AA
:103760008093E9008FEF9091E800815095FD06C0AD
:1037700095ED9A95F1F700008111F5CF8091E80061
:1037800085FF14C050E040E068E070E0CE010E9488
:10379000671D8091E8008E778093E80088E0FE0145
:1037A000ACE1B2E001900D928A95E1F7DF91CF9103
:1037B000089580913F02811109C00E94F71E0E9466
:1037C000541F8091E20084608093E200089510927B
:1037D0003F02089508950895089542E061EC81E064
:1037E0000E94731E42E261EC82E00C94731E809191
:1037F0004202833009F45FC030F48130C1F182307D
:1038000009F49BC008958A3009F487C08B3009F40D
:103810006DC0893009F04EC080914102813209F0BB
:1038200049C08091450290914602029708F042C03B
:103830008091E800877F8093E8008091E80082FF14
:1038400035C09091F3008091F200029729F48091A5
:10385000F1008B7F813021F48091F100809324026C
:103860008091E8008B778093E8000C94A71E8091EC
:103870004102813AF9F48091E800877F8093E80063
:103880008091450290914602892B61F468E08CE1B9
:1038900092E070E00E94B61D8091E8008B778093E3
:1038A000E800089560E090E080E0F3CF809140026E
:1038B0008111C3CF089580914102813AD9F7809157
:1038C000450290914602892BA9F78091E800877FF5
:1038D0008093E8008091E80080FFFCCF80911A017E
:1038E0008093F1008091E8008E77BDCF80914102F6
:1038F000813201F78091450290914602892BD1F6E1
:103900008091E800877F8093E8000E94A71E809145
:10391000430280931A010C948813809141028132F2
:1039200049F68091E800877F8093E8000E94A71EF7
:103930008091440280932502089580914102813A4A
:1039400009F0B8CF8091E800877F8093E8008091EC
:10395000E80080FFFCCF80912502C2CF84B7877F2B
:1039600084BF0FB6F894A895809160008861809319
:103970006000109260000FBE80E890E00FB6F894EF
:1039800080936100909361000FBE0E94230F0E94FC
:10399000F71E0E94541F8091E20084608093E20031
:1039A00078940E94DD210E94370F80E191E00E940F
:1039B000AD0E80914002853099F00E943F0F0E9429
:1039C000330FF7CF0E946E1A80913E02882341F098
:1039D0000E949D1A882321F00E94511D0E94881385
:1039E00080914002853071F30E94B41AE6CF0C94A6
:1039F000F91C292F33272330310519F168F42130C0
:103A0000310509F444C02230310509F445C090E085
:103A100080E030E020E025C02132310549F122323A
:103A20003105A9F780E490E022E733E061157105E4
:103A3000C1F08BE790E027EF32E06130710589F04B
:103A4000E6CF99278130910581F0009729F0029700
:103A5000F1F6EEE4F2E002C0E6EAF2E0849190E0F2
:103A60009F01FA01318320830895E2E6F2E0F6CF68
:103A700089E090E02CEB32E06115710591F389E06B
:103A800090E025ED32E06130710559F3C0CF82E15D
:103A900090E025EE32E0E5CF8BE390E02AEA32E0D9
:103AA000E0CF80E189BD82E189BD09B400FEFDCF90
:103AB0008091D8008F7D8093D8008091E000826053
:103AC0008093E0008091E00081FDFCCF0895AF92EB
:103AD000BF92CF92DF92FF920F931F93CF93DF930A
:103AE0006C01EB018A010E94C61EF82E811123C0D1
:103AF0000115110539F0F80180819181C81BD90B9E
:103B0000C80ED91EB12CA12C2097A9F08091E800F5
:103B100085FD22C08091E8008E778093E800011532
:103B20001105A1F0F80180819181A80EB91EB18222
:103B3000A08285E0F82E8F2DDF91CF911F910F91FC
:103B4000FF90DF90CF90BF90AF9008950E94C61E67
:103B50008823D1F2F82EEFCFF60181916F01809387
:103B6000F1002197FFEFAF1ABF0ACECFFC01809181
:103B700047029091480286179707A0F061157105DA
:103B800029F49091E8009E779093E80090E0611509
:103B9000710551F4911108C08091E80082FF34C092
:103BA00080E00895BC01F2CF809140028823C1F1EA
:103BB0008530C1F18091E80083FD30C08091E8003C
:103BC00082FDEACF8091E80080FFE1CF8091F30091
:103BD0002091F200382F6115710519F02830310558
:103BE00058F091E02830310509F090E02091E8008C
:103BF0002E772093E800CBCF81918093F100615024
:103C000071092F5F3F4FE7CF80914002882341F039
:103C1000853041F08091E80083FFBECF81E00895B8
:103C200082E0089583E00895FC018091470290911D
:103C3000480286179707A0F06115710529F4809155
:103C4000E8008E778093E80090E06115710551F4EB
:103C5000911108C08091E80082FF35C080E008958E
:103C6000BC01F2CF809140028823C9F18530C9F1AF
:103C70008091E80083FD31C08091E80082FDEACFA9
:103C80008091E80080FFE1CF8091F3002091F20065
:103C9000382F6115710519F02830310558F091E081
:103CA0002830310509F090E08091E8008E7780930C
:103CB000E800CBCF84918093F10031966150710977
:103CC0002F5F3F4FE6CF80914002882341F085303F
:103CD00041F08091E80083FFBDCF81E0089582E04C
:103CE000089583E00895982F973028F08F7080937F
:103CF000E90081E008959093E900242F762F50E0A9
:103D0000981731F07091EC002091ED005091F00087
:103D100021FD02C09F5FE8CF3091EB003E7F3093E2
:103D2000EB003091ED003D7F3093ED003091EB00E2
:103D300031603093EB007093EC002093ED005093D2
:103D4000F0002091EE0027FDE5CF80E008958091FE
:103D5000410287FF13C08091E80082FF06C0809176
:103D6000E8008B778093E80004C0809140028111C5
:103D7000F2CF0895809140028823D9F38091E80022
:103D800080FFF8CF8091E8008E77ECCF2091E4009F
:103D90003091E50095E6A9012091EC00822F817019
:103DA00020FF06C08091E80080FF06C080E00895F3
:103DB0002091E80022FD1AC080914002882389F0FA
:103DC000853089F08091EB0085FD0FC02091E400E3
:103DD0003091E50042175307F9F29150E1F684E083
:103DE000089582E0089583E0089581E008950E9497
:103DF000651F0E946D1FE0EEF0E08081816080838E
:103E0000E8EDF0E080818F77808319BCA7EDB0E00A
:103E10008C918E7F8C9380818F7E808310923F0265
:103E200008950F931F93CF93DF930E94651F0E9405
:103E30006D1FC8EDD0E088818F7788838881806886
:103E4000888388818F7D888319BC109240021092EC
:103E50003C0210923E0210923D0200EE10E0F8018A
:103E600080818B7F808388818160888342E060E0ED
:103E700080E00E94731EE1EEF0E080818E7F8083FF
:103E8000E2EEF0E0808181608083808188608083C1
:103E9000F80180818E7F8083888180618883DF91B3
:103EA000CF911F910F910895E8EDF0E080818F7E12
:103EB0008083E7EDF0E080818160808384E082BFD1
:103EC00081E080933F020C94111FE8EDF0E08081C7
:103ED0008E7F80831092E20008951092DA00109293
:103EE000E10008951F920F920FB60F9211242F93A5
:103EF0003F934F935F936F937F938F939F93AF9372
:103F0000BF93EF93FF938091E10082FF0BC08091FC
:103F1000E20082FF07C08091E1008B7F8093E10087
:103F20000E94DC218091DA0080FF19C08091D800C6
:103F300080FF15C08091DA008E7F8093DA00809137
:103F4000D90080FF96C080E189BD82E189BD09B4B6
:103F500000FEFDCF81E0809340020E94D91B80913A
:103F6000E10080FF19C08091E20080FF15C08091C0
:103F7000E2008E7F8093E2008091E2008061809376
:103F8000E2008091D80080628093D80019BC85E05F
:103F9000809340020E94EB1B8091E10084FF2BC0C4
:103FA0008091E20084FF27C080E189BD82E189BD64
:103FB00089B5982F917080FFFBCF8091D8008F7DBD
:103FC0008093D8008091E1008F7E8093E100809102
:103FD000E2008F7E8093E2008091E2008160809316
:103FE000E20080913C02882309F449C084E0809378
:103FF00040020E94EC1B8091E10083FF29C0809168
:10400000E20083FF25C08091E100877F8093E1007B
:1040100082E08093400210923C028091E1008E7F0A
:104020008093E1008091E2008E7F8093E200809196
:10403000E20080618093E20042E060E080E00E9464
:10404000731E8091F00088608093F0000E94EA1B4C
:10405000FF91EF91BF91AF919F918F917F916F9160
:104060005F914F913F912F910F900FBE0F901F9036
:10407000189519BC109240020E94E71B70CF8091E6
:10408000E30087FD93E090934002B3CF1F920F921D
:104090000FB60F9211242F933F934F935F936F931B
:1040A0007F938F939F93AF93BF93CF93DF93EF93C0
:1040B000FF93D091E900DF708091EC00C82FC170B0
:1040C00080FDC0E81092E9008091F000877F809326
:1040D000F00078940E948A201092E9008091F0000C
:1040E00088608093F000CD2BCF70C093E900FF91E2
:1040F000EF91DF91CF91BF91AF919F918F917F9180
:104100006F915F914F913F912F910F900FBE0F9044
:104110001F9018951F93CF93DF93CDB7DEB7AA9763
:104120000FB6F894DEBF0FBECDBF81E492E02091C0
:10413000F100FC012193CF01F2E089349F07B9F728
:104140000E94F71B8091E80083FF1EC1809141020D
:10415000909142029A3008F017C1E92FF0E0E95639
:10416000FD4D0C942022803899F0823809F00CC162
:10417000809145028F70873008F006C18093E90076
:104180008091EB0085FB882780F91092E90006C03A
:1041900080913D0290913E02911182609091E800E1
:1041A000977F9093E8008093F1001092F100809146
:1041B000E8008E77E5C0882309F4D3C0823009F087
:1041C000E3C0809143028111D6C0809145028F7077
:1041D0002FEF280F263008F0D7C08093E9002091F8
:1041E000EB0020FFC8C0933031F48091EB00806277
:1041F0008093EB00C0C09091EB0090619093EB0036
:1042000021E030E001C0220F8A95EAF72093EA000E
:104210001092EA008091EB008860EACF8111B4C06F
:10422000109143021F778091E3008078812B809367
:10423000E3008091E800877F8093E8000E94A71E3A
:104240008091E80080FFFCCF8091E300806880933C
:10425000E30082E0111183E08093400295C0805812
:10426000823008F091C080914302909144028C3DCD
:1042700023E09207A1F583E08A838AE289834FB71E
:10428000F894DE01139620E03EE051E2E32FF0E0E7
:1042900050935700E49120FF03C0E295EF703F5F19
:1042A000EF708E2F90E0EA30C0F0C7968D939D930B
:1042B0002F5F243159F74FBF8091E800877F8093AB
:1042C000E8006AE270E0CE0101960E94B61D80917E
:1042D000E8008B778093E80057C0C096E7CF6091E5
:1042E000450270914602AE014F5F5F4F0E94F71C7E
:1042F000BC01892B09F448C09091E800977F909306
:10430000E80089819A810E94141EE1CF8038E1F58E
:104310008091E800877F8093E80080913C02809341
:10432000F10045CF811130C090914302923060F589
:104330008091E800877F8093E80090933C020E9480
:10434000A71E80913C02882311F084E005C0809173
:10435000E30087FDFACF81E0809340020E94ED1BCD
:1043600013C080914302813079F481E0933009F0E9
:1043700080E080933E021092E9008091E800877F00
:104380008093E8000E94A71E8091E80083FF0AC086
:104390008091E800877F8093E8008091EB00806245
:1043A0008093EB00AA960FB6F894DEBF0FBECDBF88
:1043B000DF91CF911F9108950895CF93809140028E
:1043C0008823A1F0C091E900CF709091EC00892F73
:1043D000817090FD80E8C82B1092E9008091E80080
:1043E00083FD0E948A20CF70C093E900CF91089589
:1043F000AA1BBB1B51E107C0AA1FBB1FA617B7070B
:1044000010F0A61BB70B881F991F5A95A9F7809526
:104410009095BC01CD01089597FB072E16F40094EA
:1044200007D077FD09D00E94F82107FC05D03EF4A3
:10443000909581959F4F0895709561957F4F089550
:10444000EE0FFF1F0590F491E02D0994FC014150FF
:10445000504030F001900616D1F73197CF01089502
:10446000882799270895F999FECF92BD81BDF89AC2
:10447000992780B50895A6E1B0E044E050E00C949F
:104480006D22A8E1B0E042E050E00C946D22262FAE
:10449000F999FECF92BD81BDF89A019700B402163A
:1044A00039F01FBA20BD0FB6F894FA9AF99A0FBEE8
:1044B00008950396272F0E9448220E944722252F05
:1044C0000E944822242F0C9448220196272F0E94F4
:1044D00048220C944722DC01CB01FC01F999FECF64
:1044E00006C0F2BDE1BDF89A319600B40D9241507C
:1044F0005040B8F70895F894FFCF61116111B911D8
:10450000B9110B1227128E118E113212BE12CD125A
:10451000CD1297139713A013A013A213A013A013E7
:10452000A01397139713A713A013A013A713B320D7
:10453000DB20C421DB20C4210E212F21C4218621B0
:024540009221C6
:104542002808641E140A321E0001000101010F0234
:104552004D1BAC1B8B1B871B831B01E200E900EA8E
:1045620000B500B600B700CD008301CC008A0192ED
:104572000194012102230224022502260227022A93
:1045820002B300B4006F007000818283363233318F
:10459200F73534C697000102E200E900EA00B500EF
:1045A200B600B700CD008301CC008A0192019401CC
:1045B2002102230224022502260227022A02B30034
:0A45C200B4006F00700081828300D6
:00000001FF
