:100000000C94D1010C9418020C9418020C94180250
:100010000C9418020C9418020C9418020C941802F8
:100020000C9418020C9418020C941C200C94F020D0
:100030000C94B51A0C9418020C9418020C94180223
:100040000C9418020C9418020C9418020C941802C8
:100050000C9418020C940C1B0C9418020C941802AB
:100060000C9418020C9418020C9418020C941802A8
:100070000C9418020C9418020C9418020C94180298
:100080000C9418020C9418020C9418020C94180288
:100090000C9418020C9418020C9418020C94180278
:1000A0000C9418020C9418020C9418020400050019
:1000B000060007000000080009000A000B0000000D
:1000C0001E001F00200021001150230024002500E5
:1000D00026002700010001000100010000000100CE
:1000E0000100010001000000010001000100010009
:1000F0001250010001000100010001000100010097
:1001000001000100000001000100010001000000E9
:100110000100010001000100135001000100010075
:1001200001000100010001000100010000000100C8
:1001300001000100010000000100010001000100B8
:10014000105001000100010001000100000000004A
:10015000000000002A2B2800000000000000000022
:100160000000000000000029000000002C1E3420C8
:10017000212224342627252E362D3738271E1F20EE
:100180002122232425263333362E37381F04050633
:100190000708090A0B0C0D0E0F1011121314151677
:1001A0001718191A1B1C1D2F3130232D3504050675
:1001B0000708090A0B0C0D0E0F1011121314151657
:1001C0001718191A1B1C1D2F3130354C0000000068
:1001D000000000000000000000000000000000001F
:1001E000000000000000000000000000000000000F
:1001F0007E0F00D4FFFFFFC700000078120343000A
:1002000043002000500072006F0074006F00000077
:1002100042034300680069006E00610074007300CF
:100220007500200043006800690062006100200042
:10023000280061007A0075006C00650065002F00E1
:100240006D006F006B006500730075007200610047
:10025000290000000403090409025B00030100A057
:10026000FA09040000010301010009211101000144
:100270002240000705810308000A09040100020367
:10028000000000092111010001222200070582035C
:1002900020000107050303200001090402000103F7
:1002A000000000092111010001227B0007058403E1
:1002B00020000A1201100100000008091200CC0100
:1002C00000010200010660FF0961A1010962150039
:1002D00026FF009520750881020963150026FF009E
:1002E000952075089102C005010902A10185020946
:1002F00001A10005091901290815002501950875B6
:100300000181020501093009311581257F950275AA
:1003100008810609381581257F9501750881060534
:100320000C0A38021581257F950175088106C0C029
:1003300005010980A101850319012AB700150126CD
:10034000B700950175108100C0050C0901A1018558
:100350000419012AA002150126A002950175108139
:1003600000C005010906A101050719E029E71500EC
:100370002501950875018102950175088101050720
:10038000190029FF150026FF009506750881000554
:1003900008190129059505750191029501750391CB
:1003A00001C011241FBECFEFDAE0DEBFCDBF04B61F
:1003B00003FE27C080913D0290913E02A0913F0232
:1003C000B09140028730904BA740B04BD1F41092CF
:1003D0003D0210923E0210923F021092400214BE63
:1003E00084B7877F84BF0FB6F894A895809160008A
:1003F000886180936000109260000FBEE0E0F8E337
:10040000099511E0A0E0B1E0E4EAF6E402C005904D
:100410000D92A039B107D9F722E0A0E9B1E001C0FF
:100420001D92AD33B207E1F70E94DC1C0C94192336
:100430000C94000081E0089581E008950C941C0262
:1004400008950C9420021F93CF93DF9300D000D027
:100450000F92CDB7DEB749835A836B833091B901D0
:1004600089819A8131111DC06623B9F02223A9F038
:100470000E94F617182F682F89819A810E949F1772
:1004800069817A81812F0F900F900F900F900F90BC
:10049000DF91CF911F910C94D10B0E94CD17182F93
:1004A000EFCF0E94F61769817A81EDCFFC01262FEC
:1004B000408151816281738184810C942302CF93A6
:1004C000DF93EC0160E00E945602BE01DF91CF9104
:1004D0000C9421028F929F92AF92BF92CF92DF92A3
:1004E000EF92FF920F931F936B017C0181E090E0EC
:1004F000A0E0B0E04C015D0104C0880C991CAA1C6E
:10050000BB1C4A95D2F7B501A4014C015D0104C0A2
:10051000880C991CAA1CBB1C2A95D2F7482959297A
:100520006A297B2904C0880F991FAA1FBB1F0A953F
:10053000D2F78A019B010C211D212E213F21041796
:1005400015072607370789F48C299D29AE29BF296D
:10055000BC01CD011F910F91FF90EF90DF90CF90E4
:10056000BF90AF909F908F90089580959095A095A3
:10057000B0958C219D21AE21BF21EACF0F93382F5A
:10058000262F6091010270910202809103029091E6
:100590000402042F432F0E946A020F910C94DD166F
:1005A0000E940A060C942F060C94320608950E94AD
:1005B00081130E94D6022FEF84E39CE021508040FB
:1005C0009040E1F700C000000C94301B0F931F9384
:1005D000CF93DF938C0161E00E945602EC01B801D9
:1005E0000E941B0A8823D9F1B801CE010E941E0285
:1005F0008823A9F1B801CE010E94080D882379F162
:10060000B801CE010E945A0D882349F1B801CE01EC
:100610000E947D0E882319F1F8018281882361F000
:10062000CA35FDE5DF0721F170F4C115ECE5DE0701
:10063000A1F0CE3DDC45C9F0C801DF91CF911F91FB
:100640000F910C941A02CB358DE5D807A1F0CC356B
:10065000DD4591F70E949D18EFCF0E94D70280E000
:10066000DF91CF911F910F9108950E94091AF7CF42
:100670000E94A618E1CF0E94A918DECFDF92EF9268
:10068000FF920F931F93CF93DF93E82FF0E0E45B8B
:10069000FE4FD490282F26952695269530E0F90117
:1006A000E451FE4F0491877010E0082E02C01595AA
:1006B00007950A94E2F701701127F901E452FE4F01
:1006C000E490F12C082E02C0F594E7940A94E2F726
:1006D00091E0E922FF24F901E453FE4FC491D0E0F8
:1006E00002C0D595C7958A95E2F7C170DD2701153F
:1006F000110519F081EE0E940E10E114F10419F0B9
:1007000086EE0E940E108D2D0E940D11EF2819F01B
:1007100086EE0E94A010012B19F081EE0E94A0101D
:10072000CD2B51F08CE2DF91CF911F910F91FF9073
:10073000EF90DF900C940D11DF91CF911F910F91ED
:10074000FF90EF90DF900895EF92FF920F931F9329
:10075000CF93DF93EC01162F0AE08881882309F4F8
:1007600054C0813009F04EC08981813099F47E01F6
:1007700022E0E20EF11C8A810E940D11E701219610
:10078000812F815050F3EFE9FFE03197F1F700C07E
:100790000000F7CF823041F47E0182E0E80EF11CC8
:1007A0008A810E940E10EACF833041F47E01E2E09C
:1007B000EE0EF11C8A810E94A010E0CF843011F06F
:1007C0002196DDCF2A81229690E080E0AE014F5F36
:1007D0005F4F2053330B2A30310548F0019778F2F0
:1007E000EFE9FFE03197F1F700C00000F7CF089F75
:1007F000B001099F700D1124C901860F971F29812F
:10080000EA01E4CF0E943E03BACFDF91CF911F915E
:100810000F91FF90EF90089560E00C94A403089569
:100820000C940F0481E008950C941204CF93C82F08
:100830000E9410048C2FCF910C941404CF93DF935B
:100840000E94D10B0E941805EC01811521E5920749
:1008500008F042C0811530E5930708F09DC0883E3E
:10086000910530F5803E910508F092C0883A9105D7
:1008700088F4853A910508F084C08130910509F427
:1008800087C0009709F484C0049708F081C0D0E0C5
:10089000C0E07EC08F3B9105D0F7C85AD0E0CC0FA6
:1008A000DD1FCB5EDE4F0990D881C02DD46470C0AF
:1008B0008115904250F4C11581E0D80708F068C056
:1008C000C03FD10520F3D06563C0C11590E4D907BE
:1008D000F0F2DF70D06A5CC0811525E5920700F563
:1008E000811534E5930708F08BC0811543E5940723
:1008F00008F073C0C11582E5D80708F469C0CE01BD
:100900008370992721E030E002C0220F331F8A95BF
:10091000E2F7C695C69580E2C89FE001112454C055
:10092000C11599E5D907A8F4C11528E5D20708F043
:100930006CC0C11536E5D30708F0A9CF8C2F0E94F3
:10094000AF05C82FD0E0DC2FCC27CC27DF71D062D9
:100950001FC0C1154AE5D40708F45CC0CE0190560B
:100960008115904208F093CF8D2F8F710E94AF05B3
:1009700090E0982F882788279F719C012C2BE901F4
:10098000E6CFC55AD0E0CD5BDE4FC881D0E0D06461
:10099000CE01DF91CF910895E4E096958795EA9591
:1009A000E1F783702C2F26952695237040E2249F33
:1009B00090011124382B8C2F8370C1E0D0E002C04D
:1009C000CC0FDD1F8A95E2F7C22BD32BDC68E0CF7A
:1009D000DC2FCC27C16FD06ADBCF8370992721E051
:1009E00030E002C0220F331F8A95E2F7C695C69504
:1009F00090E2C99FE0011124C22BD32BDA68C8CF43
:100A0000D82FCC27C46FD06AC3CFDC2FCC27C06FC0
:100A1000D06ABECF8C2F8F700E94AF0534E0D69580
:100A2000C7953A95E1F7CF709C2FEC01D069B0CF14
:100A300082389105B1F1B0F48133910509F475C0A4
:100A400048F48932910509F469C08A32910509F4A4
:100A500073C008958533910509F459C08933910510
:100A600001F10895833E9105A9F138F4803E910586
:100A7000F9F0823E910549F10895863E9105A9F16C
:100A8000873E9105C9F1843E910519F52091230215
:100A900021FF1FC08091220284FD14C087EE90E0E8
:100AA0000895209122022370A1F080EE90E0089535
:100AB0002091220220FD47C03091230230FF09C05F
:100AC00024FF44C090E080E004C02091220222FD77
:100AD000F7CF08952091220222FD3BC030912302DE
:100AE00030FDE3CF24FFF5CFEDCF2091220223FF8D
:100AF000F0CF24FDE7CFD2CF2091220223FD2CC0DE
:100B00003091230231FFEECF84EE90E008952091E2
:100B1000220225FFDECF89E290E008952091220293
:100B200025FFD7CF85E390E008952091220226FF8C
:100B3000D0CF8AE290E008952091220226FFC9CF0B
:100B400081E390E0089589E390E0089583EE90E0DA
:100B5000089582EE90E0089586EE90E008959091D9
:100B6000220292FF06C0282F28712830F9F4877FCF
:100B7000846093FF06C0282F28712831F1F4877E06
:100B800084612091230220FF06C0382F387138304D
:100B9000D9F4877F816021FF06C0282F2871283172
:100BA000D1F4877E816194FD877E0895282F24717A
:100BB0002430F9F68B7F8860DCCF282F2471243114
:100BC00001F78B7E8861DDCF382F3171313019F715
:100BD0008E7F8860E0CF282F2171213121F78E7E12
:100BE0008861E1CF0C94F5090E948B068FE39CE9A4
:100BF0000197F1F700C000000E948B0680E00E9480
:100C0000340680FF04C00E94F2050C94301B089546
:100C10000C94F4050E946419811102C00E94091A03
:100C20000E946F19809316020E94771990932302F5
:100C3000809322020E9408060E947319682F70E0B8
:100C400090E080E00E94A116609101027091020282
:100C500080910302909104020C94DB1608950C9489
:100C60002E0608950C943106E82FF0E0E85DFD4F64
:100C700080810895089580EA8A95F1F7089500C06B
:100C800008950C943B06F894E82FE295EF70F0E09D
:100C900031A1282F2F7081E090E001C0880F2A95A4
:100CA000EAF7982F9095932391A392A1892B82A381
:100CB0007894089585E30E94430684E30E944306E6
:100CC00086EC0E94430687E90E94430686E30E9461
:100CD000430682E30E94430683E30E94430681E3C6
:100CE0000E94430687EF0E944306A4E2B2E01C92F2
:100CF000E8E2F2E0108211961C921197118212968E
:100D00001C921297128213961C92138284E00E9406
:100D100002070C94D002CF92DF92EF92FF920F93D2
:100D20001F93CF93DF93CBE4D1E004E212E0D12C08
:100D3000EE24E394F12C8991F894E82FE295EF707A
:100D4000F0E021A18F70A70102C0440F551F8A95C2
:100D5000E2F7CA01922F982B91A392A18095892343
:100D600082A378940E943F06E6E4F1E030E020E0C0
:100D7000C12C4191A42FA295AF70B0E090968C91B8
:100D800090E04F7002C0959587954A95E2F780FDF7
:100D900035C08E2D022E01C0880F0A94EAF7C82AAA
:100DA0002F5F3F4F2530310521F7FE0131978081BC
:100DB0000E9443060E944106F8018081C81601F195
:100DC000C08281E0D82A0F5F1F4FF1E0CF34DF07E8
:100DD00009F0B1CF2D2D44E068E272E084E292E0A8
:100DE0000E9403070E94D4028D2DDF91CF911F91A5
:100DF0000F91FF90EF90DF90CF90089580E0CFCFDC
:100E000080E0E0CF0895FF920F931F93CF93DF937D
:100E1000F82E092F162FD72FC42F222349F081E057
:100E2000809394010E94E51A90939301809392011C
:100E3000809194018823A1F0809192019091930177
:100E40000E94FD1A069760F0EF2DF02FA12FBD2F05
:100E5000CE0FDF2FD11DEC17FD0741F41092940146
:100E6000DF91CF911F910F91FF90089581918D9304
:100E7000F2CF80919B0180FF12C06091050185E057
:100E8000689FB001112475956795759567956038D1
:100E90007105A8F561157105A1F1862F089581FFEF
:100EA00009C06091050185E0689FB0011124759526
:100EB0006795EDCF6091050182FD0AC080919A018E
:100EC0008823D1F09091040160910501891728F0E1
:100ED00085E0689FB0011124DACF869FB00111240C
:100EE00085E0869F9001879F300D1124692F70E067
:100EF000C9010E94A222CBCF65E070E0CECF8FE780
:100F0000089581E0089580919B0180FF0CC060915D
:100F1000010170E075956795759567956115710587
:100F200049F1862F089581FF06C06091010170E0AC
:100F300075956795F3CF6091010182FD0BC090918B
:100F400099019923A1F06091000180910101961708
:100F500038F0682F70E06038710500F38FE708956E
:100F6000899FC001112470E00E94A222F4CF61E0A9
:100F700070E0D7CF81E00895803F31F40E943907B7
:100F8000819580939F010895813F19F40E9439074C
:100F9000F8CF823F31F40E943907819580939E01FA
:100FA0000895833F19F40E943907F8CF893F29F447
:100FB0000E9483078093A00108958A3F21F40E9434
:100FC00083078195F7CF8B3F31F40E94830781958A
:100FD0008093A10108958C3F19F40E948307F8CFF4
:100FE0009CE0980F953070F4845F990B21E030E01D
:100FF00001C0220F8A95EAF780919D01822B809390
:101000009D0108958D3F31F480919B018160809313
:101010009B0108958E3F21F480919B018260F7CF60
:101020008F3FB9F780919B018460F1CF40919E0181
:10103000803F59F480919F0187FF0DC010929F015E
:1010400041110BC010929A0108C0813F81F4809138
:101050009F0118169CF3442381F08091A001909188
:10106000A101892B09F05AC0109299010895823F7D
:1010700049F447FFF0CF10929E0180919F018111AA
:10108000ECCFE0CF833F19F41416ACF3E4CF90918A
:10109000A001893F29F41916F4F61092A001DBCFC4
:1010A0008A3F19F497FFD7CFF8CF9091A1018B3FDA
:1010B00029F497FFD0CF1092A101CDCF8C3F19F426
:1010C0001916CCF3C8CF9CE0980F953090F4845F4C
:1010D000990B21E030E0B90102C0660F771F8A95B5
:1010E000E2F7CB01809590919D01892380939D012A
:1010F000B2CF8D3F31F480919B018E7F80939B0115
:10110000AACF8E3F21F480919B018D7FF7CF8F3F37
:1011100009F0A1CF80919B018B7FF0CF08950E94B1
:10112000E51A9C0190919E0180919F01982B21F0DE
:1011300030939801209397019091A0018091A10193
:10114000982B21F030939601209395018CE991E042
:101150000C94C30EEF92FF920F931F93CF93DF93E4
:1011600000D000D000D0CDB7DEB786E0ECE9F1E0EA
:10117000DE01119601900D928A95E1F7E0909E01B3
:10118000F0909F010091A0011091A10110929E0189
:1011900010929F011092A0011092A1018E2D8F2913
:1011A00091F080919701909198010E94FD1AAC01F5
:1011B00090919A01992309F43FC080910601841708
:1011C000150608F447C0802F812B91F0809195017E
:1011D000909196010E94FD1AAC019091990199237A
:1011E00009F477C0809102018417150608F47FC0C6
:1011F00080919E0190919F01892B9091A001892B54
:101200009091A101892B11F00E948F0886E0FE01C8
:101210003196ACE9B1E001900D928A95E1F72696FE
:101220000FB6F894DEBF0FBECDBFDF91CF911F91F7
:101230000F91FF90EF900895209107018AE0289F79
:10124000900111242417350708F0BDCF9F5F9093BC
:101250009A0102C09F3FD1F7EE2059F00E94390752
:101260009FEF1E140CF491E0899F802D1124809330
:101270009E01FF2059F00E9439079FEF1F140CF4C4
:1012800091E0899F802D112480939F0130919E01D0
:10129000332309F498CF20919F01222309F493CF9F
:1012A00045EB3403C0011124992359F090939E011A
:1012B00045EB240390011124332339F030939F012F
:1012C00082CF81E080939E01F3CF81E080939F01E4
:1012D0007ACF209103018AE0289F900111242417DE
:1012E000350708F085CF9F5F9093990102C09F3F1B
:1012F000D1F7002359F00E9483079FEF10160CF4DA
:1013000091E0899F802D11248093A001112359F031
:101310000E9483079FEF11160CF491E0899F802DA6
:1013200011248093A1013091A001332309F460CFEF
:101330002091A101222309F45BCF45EB3403C001C6
:101340001124992359F09093A00145EB24039001B7
:101350001124332339F03093A1014ACF81E08093E7
:10136000A001F3CF81E08093A10142CF86E0ECE9B8
:10137000F1E0DF011D928A95E9F710929A0110922F
:10138000990110929B01089583E290E00E94D72278
:10139000813289F484E290E00E94D722883059F4A7
:1013A00085E290E00E94D72291E0893109F090E037
:1013B000892F8170089580E0FCCFCF93C82F6FEF05
:1013C000811161E283E290E00E94E5226FEFC1119A
:1013D00068E084E290E00E94E5226FEFC11169E1CC
:1013E00085E290E0CF910C94E52280E00E94DD0937
:1013F0000C945E19089586E290E00E94D722682F2F
:1014000070E090E080E0089586E290E00C94E522A0
:101410000E94FA090E94C40981110CC060E070E0CA
:10142000CB010E94040A0E944B0B0E94350C81E004
:101430000C94DD090895CF93FB01C281CC2309F1FF
:101440009C0122513F452031310520F582510E94F7
:10145000450CC0E08C2FCF91089581E00E940317C6
:1014600043E062E081E00E94BE02F3CF81E00E948F
:10147000241743E062E081E00E94BE02EBCF82E0ED
:10148000F6CF8031FFE59F0789F381319F45B9F39E
:10149000C1E0E0CF8031EFE59E07F9F281319F4551
:1014A000C9F682E0DBCF2FEFFC0120830895EF9295
:1014B000FF920F931F93CF93DF93EC01062FE881E8
:1014C000E150E33108F05EC0F0E0E55EFC4D0C94C5
:1014D000B622198289E08A83602FCE01DF91CF91F5
:1014E0001F910F91FF90EF900C94D11B8981823056
:1014F00069F0833071F08130D9F40E94F11A0E94B2
:10150000BC226A837B838C839D83E6CF0E94FB0988
:10151000F6CF7E0182E0E80EF11C10E0812F0E94E0
:101520003406F70181937F011F5F1430B9F7D4CFE0
:10153000602FCE010E94530ACFCF89818230C1F73C
:101540006A817B818C819D810E94BC220E94040A59
:10155000C3CF4B816A8189810E941D0B98278927FF
:1015600098279D838C83B8CF2C813D8132272327F8
:1015700032274B816A8189810E94360BADCF0E9450
:101580004B0BAACF8FEF8883A7CF0E94DE0B8983F6
:10159000A3CF0E94E00B9827892798279A838983F5
:1015A0009BCF6B8170E089819A81AE014C5F5F4F68
:1015B0009827892798270E94E30B8ECF6B8170E0D4
:1015C00089819A81AE014C5F5F4F982789279827C0
:1015D0000E940A0C81CF0E94350C7ECF0E940B0B1B
:1015E000D6CF6B8170E089819A81AE014C5F5F4FED
:1015F0009827892798270E94830B6ECF6B8170E014
:1016000089819A81AE014C5F5F4F9827892798277F
:101610000E94A80B61CF84E0089550E0440F551F4D
:101620009AE0699F400D511D112498E2899F400D59
:10163000511D1124CA01879608950F931F93CF93CC
:10164000DF930E940D0B8C010E94D722C82FD0E09F
:10165000DC2FCC27C80101960E94D7229E01282B9F
:10166000C901DF91CF911F910F9108950F931F939F
:10167000CF93DF93122F032F0E940D0BEC01602FED
:101680000E94E522612FCE010196DF91CF911F913B
:101690000F910C94E522AF92BF92CF92DF92EF921E
:1016A000FF921F93CF93DF938CEAC82E80E0D82E51
:1016B000D0E07601C0E014C0F50125913491412FAE
:1016C0006C2F8D2F0E94360B82E0A80EB11C1F5F7D
:1016D000153091F78AE0E80EF11CCF5FC43019F0A5
:1016E000570110E0E9CFDF5F88E2C80ED11CD4308B
:1016F00001F7DF91CF911F91FF90EF90DF90CF9096
:10170000BF90AF900895EF92FF920F931F93CF93E6
:10171000DF93EC018A017C01E60EF71ECE0187966D
:10172000CE15DF0539F4DF91CF911F910F91FF9016
:10173000EF900895C03AD10540F40E94D722F801F5
:1017400080830F5F1F4F2196E9CFF8011082F9CFF8
:10175000CF92DF92EF92FF920F931F93CF93DF937D
:101760007C016A018C01060F171FEC01CE018796E0
:10177000C017D10749F4DF91CF911F910F91FF90CE
:10178000EF90DF90CF900895C03AD10540F4FE016C
:10179000EE19FF09EC0DFD1D60810E94E5222196E6
:1017A000E5CF462F843038F4743028F4653018F4CF
:1017B000672F0C941D0B90E080E0089580E1089560
:1017C00089E393E00895EF92FF920F931F93CF93D5
:1017D000DF93EC018A017C01E60EF71ECE018953EE
:1017E0009F4FCE15DF0539F4DF91CF911F910F91F7
:1017F000FF90EF900895C93323E0D20740F40E9490
:10180000D722F80180830F5F1F4F2196E7CFF801A1
:101810001082F9CFCF92DF92EF92FF920F931F9336
:10182000CF93DF937C016A018C01060F171FEC0137
:10183000CE0189539F4FC017D10749F4DF91CF9153
:101840001F910F91FF90EF90DF90CF900895C933D3
:1018500023E0D20740F4FE01EE19FF09EC0DFD1D57
:1018600060810E94E5222196E3CFCF93DF93C7ECFE
:10187000D0E060E0CE010E94E5222196C11584E00F
:10188000D807B9F7DF91CF910895DF92EF92FF92D9
:101890000F931F93CF93DF9300D000D0CDB7DEB767
:1018A000F82E8FE08F1540F08FEF93E00E94D72243
:1018B00007EC10E08823C1F00F900F900F900F906D
:1018C000DF91CF911F910F91FF90EF90DF900895DE
:1018D000011584E0180781F3C8010E94D722811105
:1018E00001C0FA940F5F1F4FF110F2CF19821A82D4
:1018F0001B821C82DD24D39478018FEFE81AF80A4A
:10190000C8010E94D72289831A828823A9F29FEFF7
:10191000980F933078F48A83D9820E5F1F4FC701E6
:101920000E94D7228B83882339F2CE0101960E9430
:101930000C04E2CF8701F9CF0F931F93CF93DF936E
:10194000C42FD22FFC0182818823C9F04093A401C7
:101950000E94E51A9093A3018093A20180E28C0F6C
:10196000883008F050C0C77081E001C0880FCA9568
:10197000EAF7DF91CF911F910F910C9415111091FF
:10198000A401141335C08091A2019091A3010E947B
:10199000FD1A883C910560F5C0E2CD0F1D17B9F026
:1019A00080E2810F883040F4177081E001C0880F19
:1019B0001A95EAF70E941C11C83048F481E09D2F67
:1019C000977001C0880F9A95EAF70E941511802F31
:1019D0000E940D11C830B8F4D77081E001C0880FA3
:1019E000DA95EAF7DF91CF911F910F910C941C11BA
:1019F00080E28C0F883038F4C77081E001C0880F16
:101A0000CA95EAF7EFCFDF91CF911F910F9108951B
:101A10000F939C01CB01233F4CE5340759F1A8F407
:101A2000283DFCE53F0701F1293D4CE53407D1F1A4
:101A3000273D3C4591F406E221EE41EE67ED7CE561
:101A40000E949C0C80E00F910895253FFCE53F0724
:101A5000E9F0B0F0263F3C45F9F0FC018281882393
:101A600039F11092A401EFCF07E225EE45EE68EDC3
:101A70007CE5E6CF06E221EE40EE63EF7CE5E0CFC9
:101A800007E225EE44EE64EF7CE5DACF06E221EED4
:101A900042EE65EF7CE5D4CF07E225EE46EE66EF39
:101AA0007CE5CECF08E221E045EE69ED7CE5C8CFCC
:101AB00081E0C9CFCF93DF93EC01FB0182818823C2
:101AC00009F419C1C230FCE5DF07C0F1C6319CE55D
:101AD000D90730F09E012A5F3C452930310570F569
:101AE0000E9477199093230280932202C031ECE583
:101AF000DE0709F4CFC008F05BC0C8308CE5D8071A
:101B000009F4B6C088F5C430ECE5DE0709F4A8C0D6
:101B1000C0F4C2308CE5D80709F49CC08091220241
:101B20008260C330DC4509F498C080912202909114
:101B300023020E9485190E94811380E0DF91CF91DA
:101B40000895809122028061C630ECE5DE0709F439
:101B500084C0809122028860C730DC4508F47DC0D3
:101B600080912202806279C0CC308CE5D80709F4DC
:101B700089C070F4809122028C60CA30ECE5DE07E7
:101B800009F46BC008F478C0809122028E7F65C092
:101B9000CE308CE5D80709F479C0809122028B7F82
:101BA000CF30DC4508F459C0809122028F7E55C0A9
:101BB000CB3FECE5DE0709F457C030F5C3318CE5C7
:101BC000D80709F46FC078F4C131ECE5DE0709F4F9
:101BD00065C0C231DC4509F0A8CF0E948113809115
:101BE00022028F773AC0C5318CE5D80709F462C06C
:101BF00008F476C0809123028160CA3FDC4509F079
:101C000094CF8093230291CFCF3FFCE5DF0709F407
:101C10004DC088F4809123028D7FCD3F9CE5D9078C
:101C200081F3809123028E7FCE3FDC4550F380917B
:101C300023028360E6CFC130FDE5DF0709F459C018
:101C400008F444C080E0C230DD4509F06ECF0E9448
:101C50000B1A6BCF8091220281608093220265CFA4
:101C6000809122028460F9CF809123028260C9CFE3
:101C7000809122028064F1CF0E9481138091220220
:101C80008068EBCF809122028D7FE7CF8091220286
:101C9000877FE3CF809122028F7DDFCF8091220268
:101CA0008F7BDBCF80912202837FD7CF809123026D
:101CB0008C7FA7CF8091220282FB992790F921E0A7
:101CC000922790FB82F990FB83F9C7CF8091230282
:101CD000982F909591708E7F892B90FB81F991CFF1
:101CE0000E94811390912202892F97FB87F98058D7
:101CF000B4CF81E0ACCF81E021CFCF93DF93EB0174
:101D000086319C4511F50E94AC189A81992399F06F
:101D10008A7A91E009F490E09093A501811109C0BD
:101D200089E20E9466180E94EF1880E0DF91CF914F
:101D3000089585E3F6CF8091A501811104C089E261
:101D40000E946D18F0CF85E3FBCF81E0EFCF909339
:101D5000AB018093AA010895E091AA01F091AB0133
:101D6000309721F00190F081E02D099480E00895F2
:101D7000E091AA01F091AB01309721F00280F3814C
:101D8000E02D09940895E091AA01F091AB013097FC
:101D900039F022E0DC012C930480F581E02D0994D8
:101DA00008952091A8013091A9012817390771F0F1
:101DB0009093A9018093A801E091AA01F091AB0151
:101DC000309721F00680F781E02D09940895209145
:101DD000A6013091A7012817390771F09093A70148
:101DE0008093A601E091AA01F091AB01309721F018
:101DF0000084F185E02D099408950E94F11A609302
:101E0000B5017093B6018093B7019093B8016093C8
:101E1000B1017093B2018093B3019093B40108951E
:101E200085B7806885BF85B7806885BF08950895A8
:101E300008950C94170F08950C941B0F0E94100F17
:101E40008CE599E10E94411B0E94180F0C94190F18
:101E500081E008950C94280F089508950E942C0F96
:101E60000C942D0F0E94DC1A0E945A060E94080A48
:101E70000C941C0FAF92BF92CF92DF92EF92FF9221
:101E80000F931F93CF93DF93CDB7DEB72A970FB68B
:101E9000F894DEBF0FBECDBF0E948B0681110E9459
:101EA000FD0E8DEAA82E81E0B82E10E000E0C02ED5
:101EB000802F0E943406E82EF501F1905F01F8169C
:101EC00009F44DC08091160281FD0E943A068F2DC3
:101ED0008E25D12CFF24F394982F9F21D9F10E94B5
:101EE0002A0F882399F0DE82CF82EF2081E009F467
:101EF00080E088870E94E51A8160782F9A87898719
:101F00004E815F8168858A850E94D70FF801E3556D
:101F1000FE4F8081F826F0820E94AA080E94AC0E33
:101F20009091AC01891791F10E94AC0E8093AC01A5
:101F30002A960FB6F894DEBF0FBECDBFDF91CF91CA
:101F40001F910F91FF90EF90DF90CF90BF90AF90D7
:101F50000C941604D394FF0CF5E0DF12BDCF0F5F95
:101F60001F4F0430110509F0A2CF8FEF89838A83B8
:101F70001B820E94E51A8160782F9D838C834981A2
:101F80005A816B818D810E94D70FC6CF2A960FB6DA
:101F9000F894DEBF0FBECDBFDF91CF911F910F919F
:101FA000FF90EF90DF90CF90BF90AF900895DF92B9
:101FB000EF92FF920F931F93CF93DF93CDB7DEB7CE
:101FC0002B970FB6F894DEBF0FBECDBF7A878B87F5
:101FD000F42E052F162FE72ED82E61110E94CC1853
:101FE0001E821D827E2DEC82DD824F2D502F612FAF
:101FF0008D2D9E812B960FB6F894DEBF0FBECDBF00
:10200000DF91CF911F910F91FF90EF90DF900C9493
:10201000F715FC01808191810C943818CF93C82F5B
:10202000882309F48BC08238C1F40E94AC0E81FD74
:1020300085C089E30E9466180E94EF182FEF81EE99
:1020400094E0215080409040E1F700C0000089E317
:102050000E946D18CF910C94EF188338A1F40E9460
:10206000AC0E80FD6BC083E50E9466180E94EF18DD
:102070002FEF81EE94E0215080409040E1F700C0C6
:10208000000083E5E5CF8438A1F40E94AC0E82FD08
:1020900055C087E40E9466180E94EF182FEF81EE6A
:1020A00094E0215080409040E1F700C0000087E4B8
:1020B000CFCF8CEF8C0F813A90F46C2F8091080178
:1020C000909109010E94221A882329F08C2F0E94E6
:1020D0006D180E94EF188C2F0E946618BBCF80E20B
:1020E0008C0F883048F4C77081E001C0880FCA9512
:1020F000EAF70E94AF18AECFEBE5EC0FE33040F407
:10210000F0E0E358FE4F808190E0CF910C94D10E27
:10211000E8E5EC0FE73150F4F0E0EE0FFF1FE15B74
:10212000FE4F80819181CF910C94E70EC03F30F03B
:102130008C2F0E94BC07CF910C948F08CF910895EB
:10214000882309F452C0823871F40E94AC0E81FFDA
:102150004CC089E30E9466180E94EF1889E30E9430
:102160006D180C94EF18833859F40E94AC0E80FF60
:102170003CC083E50E9466180E94EF1883E5EFCF0C
:10218000843859F40E94AC0E82FF2FC087E40E946D
:1021900066180E94EF1887E4E2CF9CEF980F913AFF
:1021A000F0F290E2980F983050F4877091E001C0FF
:1021B000990F8A95EAF7892F0E94B518D2CF9BE52F
:1021C000980F933020F490E080E00C94D10E98E5C5
:1021D000980F973120F490E080E00C94E70E803F58
:1021E00020F00E9416080C948F0808951F93CF9337
:1021F000DF93182FEB010E940E10209731F4812FEE
:10220000DF91CF911F910C94A0108FE99FE001976F
:10221000F1F700C000002197F0CF70E060E0893353
:1022200011F460E570E00C94F610882321F00E9410
:10223000AF180C94EF180895882321F00E94B51868
:102240000C94EF180895BF92CF92DF92EF92FF9215
:102250000F931F93CF93DF936C01D62FC72FFC01F1
:102260001281058102950F700E948418E82E882340
:10227000A1F0E12E112389F08C2F807F803429F08A
:1022800080E28D0FE12C883040F082E00E944019FE
:102290000E94841891E0E82EE926BC2EB2949FE0BB
:1022A000B922FBE0FB1598F1EB2DF0E0E25DFC4D6F
:1022B0000C94B6220C2F0F70C07F11F00295007F96
:1022C0001123A9F0002359F080E28D0F883010F01F
:1022D000D11109C0802F0E94AF180E94EF188D2FD6
:1022E0000E940E1014C0802F0E94BF18F6CF8D2FB1
:1022F0000E94A010002359F080E28D0F883010F06A
:10230000D1112CC0802F0E94B5180E94EF182B2DE0
:102310002850330B2430310520F40E94AC0E0E946B
:102320001604EE2009F48EC10E94801880FD8AC137
:10233000F60112820E947A180E940317C6010E94B9
:1023400043130E947A18DF91CF911F910F91FF9054
:10235000EF90DF90CF90BF900C942417802F0E94B5
:10236000C518D3CF2C2F2F70F22EC07FC03219F09A
:10237000F29480EFF822DD2369F0D13049F1112386
:1023800091F1002351F1F601858180FFA8CF8F7074
:10239000858323C0112381F0011106C00E94D21849
:1023A0008F290E941511B3CF0130C1F70E94D218B6
:1023B0008F290E94D818ABCF011106C00E94E518E2
:1023C0008F2D0E941C11A3CF013009F4A0CFF6CFAE
:1023D000112329F0063008F09ACF8F2DE2CF053077
:1023E00008F095CFEDCF002359F3D93349F4FFEF2F
:1023F00027EE33E0F15020403040E1F700C000000C
:102400008D2F0E94A01083CF8C2F86958695837088
:1024100069F0813009F07BCF8D2F9C2F93701111C3
:1024200002C090E080E00E94E70E71CF8D2F9C2FBC
:102430009370111102C090E080E00E94D10E67CF2E
:102440008D2F112329F00E94BC070E948F085FCFB7
:102450000E941608FACF8C2F837009F041C0111129
:1024600056CF4D2F429546954770440F440F0D2F80
:102470000F7010E030E020E0042E04C0000F111FA8
:10248000221F331F0A94D2F760E070E0CB01D4FF23
:102490000FC06FE070E080E090E004C0660F771F2F
:1024A000881F991F4A95D2F76095709580959095F1
:1024B000C695C695C370602B712B822B932BC230AF
:1024C00049F058F4C13019F00E94B51620CF0E948F
:1024D000A3161DCF0E94C7161ACF0E94A11617CFB0
:1024E0008695112311F08C2F8170882309F40FCF6A
:1024F0004D2F429546954770440F440F0D2F0F7096
:1025000010E030E020E0042E04C0000F111F221F55
:10251000331F0A94D2F760E070E0CB01D4FF0FC004
:102520006FE070E080E090E004C0660F771F881FC6
:10253000991F4A95D2F76095709580959095C695AC
:10254000C695C370602B712B822B932BC23049F040
:1025500058F4C13019F00E947A17D9CE0E9468173A
:10256000D6CE0E948C17D3CE0E94DD16D0CECF706F
:10257000112329F08C2F0E9403178D2F12CF8D2F3E
:102580000E941C118C2F0E942417C1CED23F89F1CA
:1025900060F4D03FC9F0D13F29F1112309F442C0C2
:1025A00001119DCE8C2F8F7121C0D33F39F1D43FC3
:1025B000A1F7112369F1CF718C2F0E94031763E0FB
:1025C0008C2F0E942519A3CE112341F0053008F06D
:1025D0009ECE8C2F8F710E94471799CE063008F03F
:1025E00096CEF7CF8C2F8F71112369F20E940317BB
:1025F0008ECE8C2F8F711123C9F3C5CF112329F0F3
:102600008C2F8F710E94EE1682CE0E94E9167FCE2B
:1026100081E00E944019023008F479CE82E00E94E5
:10262000401975CE002359F0D93309F0E9CE8FEF68
:1026300097EEE3E081509040E040E1F7DFCE8C2F51
:102640008F71A1CFDF91CF911F910F91FF90EF90EC
:10265000DF90CF90BF9008950F931F93CF93DF9398
:10266000EC01688179818A810E9442188C010E9464
:102670009E170E94A016B801CE01DF91CF911F9145
:102680000F910C942311CF93DF93EC018B819C81EC
:10269000892B29F08881998189238F3F59F4DF9113
:1026A000CF910895CE010E942C13CE01DF91CF91DE
:1026B0000C945F02CE010E94E6028111F3CF0E94CA
:1026C0008418882361F38A81882349F382E0DF91AB
:1026D000CF910C94401990E080E00E94D10E90E0E0
:1026E00080E00E94E70E0E94CC180E94CF180E9442
:1026F000EF180E94B6090C948F080E9474180C946D
:102700006B130E94BC180C947D13E92FE295EF70B7
:10271000E250EE3070F4F0E0E65CFC4D0C94B62232
:10272000803F19F020F4883E20F481E00895843F32
:10273000E1F380E00895883EC0F3813FD1F7F5CF03
:1027400093FB882780F908950E9438180C9485130C
:10275000CF93DF9300D000D00F92CDB7DEB70F90AC
:102760000F900F900F900F90DF91CF910895CF931E
:10277000DF9300D000D000D0CDB7DEB726960FB6DD
:10278000F894DEBF0FBECDBFDF91CF9108951F93A8
:10279000CF93DF93C091BA0116E08091BB018C13F7
:1027A00004C0DF91CF911F910895D0E01C9FF001EC
:1027B0001D9FF00D1124E454FE4F40815181628130
:1027C0007381848195810E94B7132196C770E5CFEC
:1027D0004091EC015091ED016091EE017091EF019B
:1027E0008091F0019091F1010C94B7131F93CF9356
:1027F000DF938091F101807FA9F48091EE0188231D
:1028000089F08091BA01C091BB016091EC01709197
:10281000ED01A091EF01B091F001D62FD72316E082
:10282000C81304C0DF91CF911F91089590E01097D5
:1028300011F0DF3F19F401968770F2CF189F9001D5
:10284000199F300D1124F901E454FE4F41814713C3
:10285000F2CF40814613EFCF42814111ECCF43814B
:1028600054814A1B5B0B483C510528F78091F101CC
:102870008F7080618093F101F901EF53FE4F8081E9
:102880008F70806180838CEE91E00E944313DF9112
:10289000CF911F910C94C713AF92BF92CF92DF924A
:1028A000EF92FF920F931F93CF93DF93CDB7DEB7D5
:1028B00061970FB6F894DEBF0FBECDBF8C0185E0E7
:1028C000F801DE011D9601900D928A95E1F7F8015D
:1028D00040815181E2808CEEC82E81E0D82E60913B
:1028E000EF017091F0016115710509F461C19091DA
:1028F000EC012091ED01892F82238F3F09F458C10B
:10290000A380B480F090EE01F501E61BF70BFF20E9
:1029100009F4FCC08091F101382F307FE83CF105CB
:1029200008F0B2C0311179C0FE2C251323C09413D6
:1029300021C0E1101FC08F7080618093F1010E945F
:10294000E813C6010E9443138091F101F8018583C9
:102950008F2D61960FB6F894DEBF0FBECDBFDF910D
:10296000CF911F910F91FF90EF90DF90CF90BF908C
:10297000AF900895AB2829F0842F85238F3F09F06D
:1029800033C180E0F82FF170DF2E80FF3CC08091D2
:10299000BA012091BB0136E0821315C04D875E87D6
:1029A0008D859E850E943818292F22952F70223000
:1029B000F0F0243018F59F70F1F0F8019581907FC8
:1029C000D1F4D12C1EC090E0389FF001399FF00D5A
:1029D0001124E454FE4F6181651306C060816413C5
:1029E00003C062816E110FC001968770D5CF9F70B2
:1029F00011F0882331F3805E883018F3C8010E94FB
:102A00004313FD2CA5CFEE2009F4A2CF8091F10154
:102A100081608093F101F12C9BCF251306C09413A4
:102A200004C0F801EE2009F48DC04D875E878D85C6
:102A30009E850E94A413882319F1EE2009F180914C
:102A4000F101803270F02091EC013091ED01388776
:102A50002F831986BB86AA868C87CE0107960E9493
:102A6000431386E0F801ACEEB1E001900D928A9537
:102A7000E1F70E94F6130E94E813FF24F39468CF55
:102A8000C8010E944313F9CF311113C07A2DB98ABE
:102A9000A88A6E2D89890E94A8138CEE91E00E946D
:102AA000431386E0F60111928A95E9F70E94E81334
:102AB000B2CF25130FC094130DC0E1100BC0F80165
:102AC0008583C8010E94431386E0F60111928A951E
:102AD000E9F73ECF4D875E878D859E850E94A413C2
:102AE000882371F2EE2061F28091F101803208F4C6
:102AF000B8CF2091EC013091ED013A8329831B82FC
:102B0000BD82AC828E83CE010196A9CFE83CF1054F
:102B100008F041C0FE2CEE2009F4B2CF25132AC0E4
:102B2000941328C08091F10180FD1BC0982F907FE5
:102B3000C1F0F8018583903F31F0982F907F905F2E
:102B40008F70892B8583C8010E94431386E0F801AA
:102B5000ACEEB1E001900D928A95E1F70E94E81386
:102B6000F7CE86E0F801ACEEB1E001900D928A95C7
:102B7000E1F7EECE4D875E878D859E850E94A4137A
:102B800081116FCF8091F10181608093F101C801C3
:102B90000E944313DDCE7A2DB98AA88A6E2D8989C9
:102BA0000E94A81386E0F60111928A95E9F7D6CF24
:102BB000EE2009F465CF4D875E878D859E850E9446
:102BC000A413F82E882309F45BCF86E0F801ACEE5D
:102BD000B1E001900D928A95E1F78CEE91E00E94B0
:102BE00009100E94F613BACF81E08E25CBCE1F9339
:102BF000CF93DF93CDB7DEB72C970FB6F894DEBF37
:102C00000FBECDBF4F83588769877A878B879C8794
:102C1000CE0107960E944C14882369F08A859B8513
:102C2000892B39F04F815885842F85238F3F09F0F8
:102C300071C016E05FC086E0FE013796DE01119696
:102C400001900D928A95E1F78A859B85892B89F3FE
:102C50008F81988589238F3F61F32091BB0130E0FC
:102C6000C9010196877099274091BA014817190642
:102C700071F40E9481131092BB011092BA0186E098
:102C8000ECEEF1E0DF011D928A95E9F7D2CF96E0F4
:102C9000929FD001939FB00D1124A454BE4FFE010A
:102CA000319601900D929A95E1F78093BB010E94B5
:102CB000C713BFCF819FC001112484549E4F0E942F
:102CC0004C148823E9F0E091BA011E9FF001112411
:102CD000E454FE4F408151816281738184819581EA
:102CE0000E94B7138091BA0190E0019687709927EE
:102CF0008093BA018091BA019091BB018913DACF18
:102D00002C960FB6F894DEBF0FBECDBFDF91CF91EA
:102D10001F91089569857A858B859C850E94B713DC
:102D200088CF08950C9491160E9492166093050224
:102D30007093060280930702909308020C946B1321
:102D400008950C9494160F931F930091050210910F
:102D500006022091070230910802602B712B822B12
:102D6000932B1F910F910C9494160F931F93009126
:102D7000050210910602209107023091080260239B
:102D80007123822393231F910F910C9494160F9318
:102D90001F930091050210910602209107023091C5
:102DA000080260277127822793271F910F910C94A7
:102DB00094160C9491160C94D9160E94DB1660930D
:102DC00001027093020280930302909304020C9418
:102DD0006B1360E070E0CB010C94DD160F931F9332
:102DE00041E050E060E070E08A019B0104C0000F08
:102DF000111F221F331F8A95D2F7C901B8011F91F5
:102E00000F910C94DD160F931F9341E050E060E0AA
:102E100070E004C0440F551F661F771F8A95D2F7D4
:102E20008091010290910202A0910302B0910402EC
:102E30008A019B01082B192B2A2B3B2BC901B801B6
:102E40001F910F910C94DD160F931F9341E050E0FA
:102E500060E070E004C0440F551F661F771F8A951D
:102E6000D2F7CB01BA01609570958095909500914D
:102E700001021091020220910302309104026023AA
:102E80007123822393231F910F910C94DD160F93CE
:102E90001F9341E050E060E070E004C0440F551F14
:102EA000661F771F8A95D2F78091010290910202E6
:102EB000A0910302B09104028A019B0108271927FF
:102EC0002A273B27C901B8011F910F910C94DD16E9
:102ED0000F931F93009101021091020220910302AF
:102EE00030910402602B712B822B932B1F910F9139
:102EF0000C94DD160F931F930091010210910202B2
:102F000020910302309104026023712382239323D2
:102F10001F910F910C94DD160F931F9300910102E6
:102F20001091020220910302309104026027712760
:102F3000822793271F910F910C94DD160895E92F96
:102F4000EE0FEE0F9E0F890F982F977041E001C092
:102F5000440F9A95EAF786958695869595E0899F20
:102F6000F0011124EE50FE4F30E020E070E051916E
:102F7000DF011197CB01022E02C0969587950A9426
:102F8000E2F7817081958527842385278C932F5FB5
:102F90003F4F2530310559F70895E92FEE0FEE0F19
:102FA0009E0F890F982F977086958695869525E0B8
:102FB000829FF0011124EE50FE4F50E040E080E08F
:102FC000219130E0092E02C0369527950A94E2F748
:102FD00021703327042E01C0220F0A94EAF7822BB6
:102FE0004F5F5F4F4530510559F70895BF92CF921B
:102FF000DF92EF92FF920F931F93CF93DF938C0199
:10300000C0900102D0900202E0900302F09004020E
:103010008091050290910602A0910702B0910802EA
:10302000C82AD92AEA2AFB2ACFE1D0E0BC2ED70150
:10303000C6010C2E04C0B695A795979587950A945E
:10304000D2F780FD0EC0219788F7B12C8B2DDF9130
:10305000CF911F910F91FF90EF90DF90CF90BF9095
:103060000895B8018C2F0E941E04019761F3EECFE2
:10307000CF93DF93EC010E94F617BE01DF91CF9151
:103080000C941E041F93CF93DF93EB019091B90131
:10309000992331F0CB01DF91CF911F910C94381817
:1030A000882379F0CB010E94F617182F682FCE01E4
:1030B0000E949F17BE01812FDF91CF911F910C9429
:1030C0001E04CB010E94CD17182FF4CF682F8091DA
:1030D0000801909109010C94581A682F80910801F9
:1030E000909109010C945A1A80910801909109015C
:1030F0000C945C1A809109028595859585950895B3
:10310000809109028770089590910902977081E07B
:1031100009F480E008959091230292FB222720F980
:10312000281751F080FB92F990932302809122029C
:10313000909123020C94851908958091230282FBBB
:10314000882780F991E089270C948B1881E00C94F2
:103150008B1880E00C948B18809115020895909143
:103160001502892B80931502089580959091150280
:103170009823909315020895109215020895909146
:103180001402892B80931402089580959091140263
:1031900098239093140208951092140208951092A7
:1031A0001302089580910A02089508950C94D51889
:1031B0009091230292FD08C090910A02981721F085
:1031C00080930A020C94D618089580910A028823ED
:1031D00029F010920A0280E00C94D6180895E0912C
:1031E0000801F0910901809115028083E0910801A6
:1031F000F0910901808190911402892B8083E091E4
:103200000801F0910901808190911302892B80833C
:1032100090910A02992381F0E0910801F09109014F
:103220008081892B808380910801909109010E94FF
:10323000101A81110E94E5188091080190910901EE
:103240000C94B80E08950C9422199091230292FDCB
:1032500010C098E0899F90011124622B60930902AD
:103260000E940317809109028595859585950C9498
:1032700023190C9403171092090280E00C9423196F
:10328000909109028095892380930902282F277045
:1032900039F4282F082E000C330B9217130621F453
:1032A0009091230292FF07C08595859585950E9490
:1032B00024170C943B19089580E008956FEF7FEF79
:1032C00090E080E00C94032390E080E00E94DF22F5
:1032D00021E08A3E9E4F09F020E0822F089582E08F
:1032E00090E00C94D72283E090E00C94D722CF9307
:1032F00084E090E00E94D722C82F82E290E00E94F2
:10330000D722982F8C2FCF910895CF93C92F682F54
:1033100084E090E00E94E5226C2F82E290E0CF9161
:103320000C94E522AB01BC018FE090E00C94F722F5
:10333000AB01BC0183E190E00C94F72260E070E007
:10334000CB010C94981960E070E0CB010E949219B7
:103350000C949E196AEE7EEF90E080E00E940323B9
:1033600060E082E090E00E94E52260E083E090E08F
:103370000E94E522109205021092060210920702A6
:103380001092080260E084E090E00E94E52260E094
:1033900082E290E00E94E52260E085E090E00E94F9
:1033A000E52260E086E090E00E94E5226FEF87E092
:1033B00090E00E94E52240E050E0BA0188E090E011
:1033C0000E94F72260E08DE090E00E94E52240E05C
:1033D00050E0BA0188E190E00E94F72260E087E1C6
:1033E00090E00E94E52240E050E0BA018CE190E0DC
:1033F0000E94F72270E060E080E290E00E940323E8
:1034000040E050E0BA0188E190E00E94F7220C947D
:10341000A3190C94AA19682F8EE090E00C94E52271
:103420009C012E5F3F4FAC01485F5F4F80E0241747
:10343000350709F40895F90191919F019923B9F392
:103440008F5FF5CF662349F0FC01329608962191F3
:10345000261729F0E817F907D1F780E0089581E0F1
:1034600008959C01FC0132969FEF80E04191461740
:1034700051F09F3F19F4411101C0982F8F5F8630A2
:10348000A9F79F3F09F40895290F311D97FD3A953B
:10349000F90162830895FC01329608962191261362
:1034A00003C0DF0111971C92E817F907B9F70895D7
:1034B0000C94311A0C944B1A029626E0FC011192DE
:1034C0002A95E9F70895089508950C94641A809157
:1034D0003402843049F10E94651A80E00E9416048B
:1034E0001092170288E190E020E40FB6F894A895B6
:1034F000809360000FBE2093600083B7817F84605B
:1035000083BF83B7816083BF7894889583B78E7FAC
:1035100083BF0FB6F894A89580916000886180936E
:103520006000109260000FBE08950895CF930E942E
:10353000631A0E948B060E94951AC0E08C2F0E948D
:103540003406811105C0CF5FC430C1F7CF91089513
:1035500081E0FCCF08950C94AA1A0E9481130E9466
:10356000AC0E0E9416040C94AB1A1F921FB61F9249
:1035700011248F939F93AF93BF9380911702811172
:1035800013C080912C0290912D02A0912E02B09137
:103590002F024196A11DB11D80932C0290932D0204
:1035A000A0932E02B0932F02BF91AF919F918F9164
:1035B0001F901FBE1F90189582E084BD93E095BDBB
:1035C0009AEF97BD80936E0008952FB7F89480917D
:1035D0002C0290912D02A0912E02B0912F022FBFAC
:1035E00008952FB7F89460912C0270912D0280916C
:1035F0002E0290912F022FBF08959C014FB7F8948F
:1036000080912C0290912D02A0912E02B0912F0258
:103610004FBF821B930B089578941F921FB61F9281
:1036200011248F939F93AF93BF9380912C0290911D
:103630002D02A0912E02B0912F020196A11DB11D65
:1036400080932C0290932D02A0932E02B0932F0210
:10365000BF91AF919F918F911F901FBE1F901895A2
:1036600087E797E7909301088093000888E19AE044
:103670000FB6F894A895809360000FBE90936000F9
:10368000FFCF909391018093900108958091200243
:103690000895CF93DF9300D00F92CDB7DEB790910E
:1036A0003402943011F589837B836A839093E90017
:1036B0008FEF9091E800815095FD06C095ED9A95A9
:1036C000F1F700008111F5CF8091E80085FF0DC072
:1036D00050E040E063E070E0CE0101960E94C21D20
:1036E0008091E8008E778093E8000F900F900F9004
:1036F000DF91CF910895BC0184E00C94491BBC017B
:1037000083E00C94491B9C0184E08093E9009FEFC7
:103710008091E800915085FD06C085ED8A95F1F70E
:1037200000009111F5CF8091E80085FF0CC050E0BA
:1037300040E066E070E0C9010E94C21D8091E8008F
:103740008E778093E8000895CF93DF93EC0181E0BA
:103750008093E9008FEF9091E800815095FD06C0BD
:1037600095ED9A95F1F700008111F5CF8091E80071
:1037700085FF14C050E040E068E070E0CE010E9498
:10378000C21D8091E8008E778093E80088E0FE01FA
:10379000A8E1B2E001900D928A95E1F7DF91CF9117
:1037A0000895CF93FC01603221F58091340284307A
:1037B00001F5C091E900CF702091EC00922F91703B
:1037C00020FD90E8C92B82E08093E9008091E80019
:1037D00080FF0CC050E040E060E270E0CF010E944A
:1037E000C21D8091E8008E778093E800CF70C0936F
:1037F000E900CF91089580913302811109C00E94A0
:10380000A11F0E94FE1F8091E20084608093E2006D
:10381000089510923302089508950895089542E09E
:1038200061EC81E00E941D1F42E261EC84E00E9495
:103830001D1F42E261EC82E00E941D1F42E260EC2B
:1038400083E00C941D1F80913602833009F461C01F
:1038500030F48130D1F1823009F49DC008958A306E
:1038600009F489C08B3009F46FC0893009F050C069
:1038700080913502813209F04BC0809139029091DC
:103880003A02009719F0029709F042C08091E800CF
:10389000877F8093E8008091E80082FF35C0909197
:1038A000F3008091F200029729F48091F1008B7F60
:1038B000813021F48091F100809320028091E80012
:1038C0008B778093E8000C94511F80913502813AE8
:1038D000F9F48091E800877F8093E80080913902B5
:1038E00090913A02892B61F468E088E192E070E0FF
:1038F0000E94601E8091E8008B778093E800089515
:1039000060E090E080E0F3CF809134028111C3CF7A
:10391000089580913502813AD9F7809139029091CA
:103920003A02892BA9F78091E800877F8093E8000D
:103930008091E80080FFFCCF809114018093F1001A
:103940008091E8008E77BDCF80913502813201F7FA
:103950008091390290913A02892BD1F68091E8004A
:10396000877F8093E8000E94511F809137028093E7
:1039700014010C94811380913502813249F68091B3
:10398000E800877F8093E8000E94511F80913802F1
:1039900080932102089580913502813A09F0B8CFD1
:1039A0008091E800877F8093E8008091E80080FFA5
:1039B000FCCF80912102C2CFCDB7DEB7A0970FB662
:1039C000F894DEBF0FBECDBF84B7877F84BF0FB62C
:1039D000F894A895809160008861809360001092AF
:1039E00060000FBE80E890E00FB6F894809361000D
:1039F000909361000FBE0E941E0F0E94A11F0E94A3
:103A0000FE1F8091E20084608093E20078940E941F
:103A100087220E94320F8AE091E00E94A70E13E0F5
:103A2000809134028530B9F00E943A0F80913402BF
:103A30008430C1F00E942E0FF3CF0E94671A80914C
:103A40003202882341F00E94961A882321F00E94B6
:103A5000AC1D0E94811380913402853071F30E9465
:103A6000AD1AE2CF1093E9008091E80082FFE2CF27
:103A70008091E80090E085FF09C050E040E060E2FE
:103A800070E0CE0101960E94111E91E08091E80045
:103A90008B778093E800992369F260E2CE0101966A
:103AA0000E94570AC7CF0C94551D292F3327233066
:103AB000310521F168F42130310509F443C0223089
:103AC000310509F444C090E080E030E020E026C0F9
:103AD0002132310551F122323105A9F763307105E8
:103AE00090F7FB01EE0FFF1FED57FE4F2081318154
:103AF00060587E4FFB01808190E010C09927813093
:103B0000910581F0009729F00297E9F6ECEFF1E0DA
:103B100002C0E4E5F2E0849190E09F01FA01318374
:103B200020830895E0E1F2E0F6CF6330710558F6A6
:103B3000660F771FFB01E757FE4F2081318189E037
:103B400090E0ECCF82E190E023EB32E0E7CF8BE531
:103B500090E028E532E0E2CF80E189BD82E189BDD5
:103B600009B400FEFDCF8091D8008F7D8093D800EE
:103B70008091E00082608093E0008091E00081FD10
:103B8000FCCF0895AF92BF92CF92DF92FF920F9336
:103B90001F93CF93DF936C01EB018A010E94701F8A
:103BA000F82E811123C00115110539F0F80180812B
:103BB0009181C81BD90BC80ED91EB12CA12C2097FE
:103BC000A9F08091E80085FD22C08091E8008E7701
:103BD0008093E80001151105A1F0F8018081918121
:103BE000A80EB91EB182A08285E0F82E8F2DDF913C
:103BF000CF911F910F91FF90DF90CF90BF90AF902A
:103C000008950E94701F8823D1F2F82EEFCFF6019D
:103C100081916F018093F1002197FFEFAF1ABF0AE6
:103C2000CECFAF92BF92CF92DF92FF920F931F93AE
:103C3000CF93DF936C01EB018A010E94701FF82E75
:103C4000811123C00115110539F0F801808191819E
:103C5000C81BD90BC80ED91EB12CA12C2097A9F0D6
:103C60008091E80085FD22C08091E8008B778093E9
:103C7000E80001151105A1F0F80180819181A80EDD
:103C8000B91EB182A08285E0F82E8F2DDF91CF91F1
:103C90001F910F91FF90DF90CF90BF90AF9008954C
:103CA0000E94701F8823D1F2F82EEFCF8091F1008F
:103CB000F60181936F012197FFEFAF1ABF0ACECFB4
:103CC000FC0180913B0290913C0286179707A0F07F
:103CD0006115710529F49091E8009E779093E800B2
:103CE00090E06115710551F4911108C08091E800D0
:103CF00082FF34C080E00895BC01F2CF809134028D
:103D00008823C1F18530C1F18091E80083FD30C086
:103D10008091E80082FDEACF8091E80080FFE1CF4A
:103D20008091F3002091F200382F6115710519F090
:103D30002830310558F091E02830310509F090E045
:103D40002091E8002E772093E800CBCF81918093DB
:103D5000F100615071092F5F3F4FE7CF809134022E
:103D6000882341F0853041F08091E80083FFBECF89
:103D700081E0089582E0089583E00895FC01809138
:103D80003B0290913C0286179707A0F061157105E0
:103D900029F48091E8008E778093E80090E0611527
:103DA000710551F4911108C08091E80082FF35C07F
:103DB00080E00895BC01F2CF809134028823C9F1DC
:103DC0008530C9F18091E80083FD31C08091E80021
:103DD00082FDEACF8091E80080FFE1CF8091F3007F
:103DE0002091F200382F6115710519F02830310546
:103DF00058F091E02830310509F090E08091E8001A
:103E00008E778093E800CBCF84918093F100319638
:103E1000615071092F5F3F4FE6CF809134028823B4
:103E200041F0853041F08091E80083FFBDCF81E013
:103E3000089582E0089583E00895982F973028F040
:103E40008F708093E90081E008959093E900242F1A
:103E5000762F50E0981731F07091EC002091ED0032
:103E60005091F00021FD02C09F5FE8CF3091EB0040
:103E70003E7F3093EB003091ED003D7F3093ED00BD
:103E80003091EB0031603093EB007093EC002093A5
:103E9000ED005093F0002091EE0027FDE5CF80E08B
:103EA00008958091350287FF13C08091E80082FF5A
:103EB00006C08091E8008B778093E80004C0809171
:103EC00034028111F2CF0895809134028823D9F30E
:103ED0008091E80080FFF8CF8091E8008E77ECCFEA
:103EE0002091E4003091E50095E6A9012091EC00D5
:103EF000822F817020FF06C08091E80080FF06C0FD
:103F000080E008952091E80022FD1AC080913402DB
:103F1000882389F0853089F08091EB0085FD0FC002
:103F20002091E4003091E50042175307F9F29150D7
:103F3000E1F684E0089582E0089583E0089581E049
:103F400008950E940F200E941720E0EEF0E080818B
:103F500081608083E8EDF0E080818F77808319BCF9
:103F6000A7EDB0E08C918E7F8C9380818F7E8083D3
:103F70001092330208950F931F93CF93DF930E9403
:103F80000F200E941720C8EDD0E088818F778883AA
:103F900088818068888388818F7D888319BC10928E
:103FA000340210923002109232021092310200EE6E
:103FB00010E0F80180818B7F808388818160888315
:103FC00042E060E080E00E941D1FE1EEF0E08081B1
:103FD0008E7F8083E2EEF0E080818160808380814B
:103FE00088608083F80180818E7F808388818061F2
:103FF0008883DF91CF911F910F910895E8EDF0E054
:1040000080818F7E8083E7EDF0E080818160808316
:1040100084E082BF81E0809333020C94BB1FE8ED03
:10402000F0E080818E7F80831092E20008951092EC
:10403000DA001092E10008951F920F920FB60F92CE
:1040400011242F933F934F935F936F937F938F939D
:104050009F93AF93BF93EF93FF938091E10082FF13
:104060000BC08091E20082FF07C08091E1008B7F4E
:104070008093E1000E9486228091DA0080FF19C0BF
:104080008091D80080FF15C08091DA008E7F8093E8
:10409000DA008091D90080FF96C080E189BD82E17D
:1040A00089BD09B400FEFDCF81E0809334020E94F7
:1040B000FB1B8091E10080FF19C08091E20080FF2E
:1040C00015C08091E2008E7F8093E2008091E20033
:1040D00080618093E2008091D80080628093D80054
:1040E00019BC85E0809334020E940D1C8091E10090
:1040F00084FF2BC08091E20084FF27C080E189BD4E
:1041000082E189BD89B5982F917080FFFBCF8091A6
:10411000D8008F7D8093D8008091E1008F7E8093BE
:10412000E1008091E2008F7E8093E2008091E200C6
:1041300081608093E20080913002882309F449C0B5
:1041400084E0809334020E940E1C8091E10083FF82
:1041500029C08091E20083FF25C08091E100877F24
:104160008093E10082E080933402109230028091CB
:10417000E1008E7F8093E1008091E2008E7F80934A
:10418000E2008091E20080618093E20042E060E022
:1041900080E00E941D1F8091F00088608093F000F5
:1041A0000E940C1CFF91EF91BF91AF919F918F9155
:1041B0007F916F915F914F913F912F910F900FBE23
:1041C0000F901F90189519BC109234020E94091C80
:1041D00070CF8091E30087FD93E090933402B3CFDA
:1041E0001F920F920FB60F9211242F933F934F936C
:1041F0005F936F937F938F939F93AF93BF93CF936F
:10420000DF93EF93FF93D091E900DF708091EC0092
:10421000C82FC17080FDC0E81092E9008091F000C5
:10422000877F8093F00078940E9434211092E900F7
:104230008091F00088608093F000CD2BCF70C09308
:10424000E900FF91EF91DF91CF91BF91AF919F91E5
:104250008F917F916F915F914F913F912F910F902F
:104260000FBE0F901F9018951F93CF93DF93CDB77C
:10427000DEB7AA970FB6F894DEBF0FBECDBF85E3B9
:1042800092E02091F100FC012193CF01F2E08D3307
:104290009F07B9F70E94231C8091E80083FF1EC18D
:1042A00080913502909136029A3008F017C1E92FBB
:1042B000F0E0E85BFC4D0C94B622803899F082382F
:1042C00009F00CC1809139028F70873008F006C167
:1042D0008093E9008091EB0085FB882780F910929C
:1042E000E90006C080913102909132029111826002
:1042F0009091E800977F9093E8008093F1001092EE
:10430000F1008091E8008E77E5C0882309F4D3C0DE
:10431000823009F0E3C0809137028111D6C08091CC
:1043200039028F702FEF280F263008F0D7C0809306
:10433000E9002091EB0020FFC8C0933031F4809158
:10434000EB0080628093EB00C0C09091EB00906125
:104350009093EB0021E030E001C0220F8A95EAF74C
:104360002093EA001092EA008091EB008860EACF87
:104370008111B4C0109137021F778091E3008078DB
:10438000812B8093E3008091E800877F8093E80091
:104390000E94511F8091E80080FFFCCF8091E300D4
:1043A00080688093E30082E0111183E080933402FF
:1043B00095C08058823008F091C08091370290916A
:1043C00038028C3D23E09207A1F583E08A838AE2DC
:1043D00089834FB7F894DE01139620E03EE051E266
:1043E000E32FF0E050935700E49120FF03C0E295E3
:1043F000EF703F5FEF708E2F90E0EA30C0F0C7960D
:104400008D939D932F5F243159F74FBF8091E80022
:10441000877F8093E8006AE270E0CE0101960E94F7
:10442000601E8091E8008B778093E80057C0C096AB
:10443000E7CF6091390270913A02AE014F5F5F4F52
:104440000E94531DBC01892B09F448C09091E800DB
:10445000977F9093E80089819A810E94BE1EE1CFE8
:104460008038E1F58091E800877F8093E8008091B3
:1044700030028093F10045CF811130C09091370216
:10448000923060F58091E800877F8093E8009093F8
:1044900030020E94511F80913002882311F084E085
:1044A00005C08091E30087FDFACF81E0809334025C
:1044B0000E940F1C13C080913702813079F481E093
:1044C000933009F080E0809332021092E9008091ED
:1044D000E800877F8093E8000E94511F8091E800E8
:1044E00083FF0AC08091E800877F8093E800809175
:1044F000EB0080628093EB00AA960FB6F894DEBFC3
:104500000FBECDBFDF91CF911F9108950895CF9336
:10451000809134028823A1F0C091E900CF7090917E
:10452000EC00892F817090FD80E8C82B1092E90083
:104530008091E80083FD0E943421CF70C093E90090
:10454000CF91089597FB072E16F4009407D077FDBE
:1045500009D00E94C32207FC05D03EF490958195B6
:104560009F4F0895709561957F4F0895EE0FFF1F3F
:104570000590F491E02D09946927962769277827FB
:10458000872778270895AA1BBB1B51E107C0AA1FE4
:10459000BB1FA617B70710F0A61BB70B881F991FE4
:1045A0005A95A9F780959095BC01CD010895F99988
:1045B000FECF92BD81BDF89A992780B50895A8E1F4
:1045C000B0E042E050E00C940B23262FF999FECF87
:1045D00092BD81BDF89A019700B4021639F01FBA56
:1045E00020BD0FB6F894FA9AF99A0FBE0895039673
:1045F000272F0E94E6220E94E522252F0E94E62214
:10460000242F0C94E6220196272F0E94E6220C9478
:10461000E522DC01CB01FC01F999FECF06C0F2BD19
:10462000E1BDF89A319600B40D9241505040B8F770
:104630000895F894FFCF690A760A9D0AA90AB40A78
:10464000BF0AC20AC20AC20AC20AC20AC50AC90A03
:10465000D10ADE0AEB0AEE0AF10AFE0A5A115A11D1
:10466000B211B21104122012871187112B12B71246
:10467000C612C61290139013991399139B13991392
:104680009913991390139013A01399139913A013CE
:104690005D2185216E2285216E22B821D9216E22CD
:0446A00030223C2266
:1046A4002808641E140A321E0B02461BA41B831B1B
:1046B4007F1B7B1B01E200E900EA00B500B600B7EE
:1046C40000CD008301CC008A0192019401210223D0
:1046D4000224022502260227022A02B300B4006F34
:1046E40000700081828336323331F73534C697E265
:1046F40000E900EA00B500B600B700CD008301CCA4
:10470400008A019201940121022302240225022637
:104714000227022A02B300B4006F00700081828372
:1047240040227B6203C502E7026A028302A30200FD
:00000001FF
